{
	"contracts/Estate.sol": {
		"EstateAgency": {
			"abi": [
				{
					"inputs": [],
					"stateMutability": "nonpayable",
					"type": "constructor"
				},
				{
					"inputs": [
						{
							"internalType": "uint256",
							"name": "estateID",
							"type": "uint256"
						}
					],
					"name": "banEstate",
					"outputs": [],
					"stateMutability": "nonpayable",
					"type": "function"
				},
				{
					"inputs": [
						{
							"internalType": "address",
							"name": "owner",
							"type": "address"
						},
						{
							"internalType": "string",
							"name": "info",
							"type": "string"
						},
						{
							"internalType": "uint256",
							"name": "area",
							"type": "uint256"
						}
					],
					"name": "createEstate",
					"outputs": [],
					"stateMutability": "nonpayable",
					"type": "function"
				},
				{
					"inputs": [
						{
							"internalType": "uint256",
							"name": "estateID",
							"type": "uint256"
						},
						{
							"internalType": "uint256",
							"name": "price",
							"type": "uint256"
						}
					],
					"name": "createSale",
					"outputs": [],
					"stateMutability": "nonpayable",
					"type": "function"
				},
				{
					"inputs": [
						{
							"internalType": "uint256",
							"name": "",
							"type": "uint256"
						}
					],
					"name": "estates",
					"outputs": [
						{
							"internalType": "address",
							"name": "owner",
							"type": "address"
						},
						{
							"internalType": "string",
							"name": "info",
							"type": "string"
						},
						{
							"internalType": "uint256",
							"name": "area",
							"type": "uint256"
						},
						{
							"internalType": "bool",
							"name": "is_banned",
							"type": "bool"
						},
						{
							"internalType": "bool",
							"name": "on_sale",
							"type": "bool"
						}
					],
					"stateMutability": "view",
					"type": "function"
				},
				{
					"inputs": [
						{
							"internalType": "uint256",
							"name": "",
							"type": "uint256"
						}
					],
					"name": "sales",
					"outputs": [
						{
							"internalType": "uint256",
							"name": "EstateID",
							"type": "uint256"
						},
						{
							"internalType": "address",
							"name": "seller",
							"type": "address"
						},
						{
							"internalType": "address",
							"name": "newOwner",
							"type": "address"
						},
						{
							"internalType": "uint256",
							"name": "price",
							"type": "uint256"
						}
					],
					"stateMutability": "view",
					"type": "function"
				},
				{
					"inputs": [
						{
							"internalType": "uint256",
							"name": "estateID",
							"type": "uint256"
						}
					],
					"name": "unbanEstate",
					"outputs": [],
					"stateMutability": "nonpayable",
					"type": "function"
				}
			],
			"devdoc": {
				"kind": "dev",
				"methods": {},
				"version": 1
			},
			"evm": {
				"assembly": "    /* \"contracts/Estate.sol\":71:1951  contract EstateAgency {... */\n  mstore(0x40, 0x80)\n    /* \"contracts/Estate.sol\":759:808  constructor() {... */\n  callvalue\n  dup1\n  iszero\n  tag_1\n  jumpi\n  0x00\n  dup1\n  revert\ntag_1:\n  pop\n    /* \"contracts/Estate.sol\":791:801  msg.sender */\n  caller\n    /* \"contracts/Estate.sol\":783:788  admin */\n  0x02\n  0x00\n    /* \"contracts/Estate.sol\":783:801  admin = msg.sender */\n  0x0100\n  exp\n  dup2\n  sload\n  dup2\n  0xffffffffffffffffffffffffffffffffffffffff\n  mul\n  not\n  and\n  swap1\n  dup4\n  0xffffffffffffffffffffffffffffffffffffffff\n  and\n  mul\n  or\n  swap1\n  sstore\n  pop\n    /* \"contracts/Estate.sol\":71:1951  contract EstateAgency {... */\n  dataSize(sub_0)\n  dup1\n  dataOffset(sub_0)\n  0x00\n  codecopy\n  0x00\n  return\nstop\n\nsub_0: assembly {\n        /* \"contracts/Estate.sol\":71:1951  contract EstateAgency {... */\n      mstore(0x40, 0x80)\n      callvalue\n      dup1\n      iszero\n      tag_1\n      jumpi\n      0x00\n      dup1\n      revert\n    tag_1:\n      pop\n      jumpi(tag_2, lt(calldatasize, 0x04))\n      shr(0xe0, calldataload(0x00))\n      dup1\n      0x064bf2f8\n      eq\n      tag_3\n      jumpi\n      dup1\n      0x6019061b\n      eq\n      tag_4\n      jumpi\n      dup1\n      0x78034a2d\n      eq\n      tag_5\n      jumpi\n      dup1\n      0xa6f10988\n      eq\n      tag_6\n      jumpi\n      dup1\n      0xb5f522f7\n      eq\n      tag_7\n      jumpi\n      dup1\n      0xd70f83c2\n      eq\n      tag_8\n      jumpi\n    tag_2:\n      0x00\n      dup1\n      revert\n        /* \"contracts/Estate.sol\":1287:1456  function unbanEstate(uint estateID) public isAdmin {... */\n    tag_3:\n      tag_9\n      0x04\n      dup1\n      calldatasize\n      sub\n      dup2\n      add\n      swap1\n      tag_10\n      swap2\n      swap1\n      tag_11\n      jump\t// in\n    tag_10:\n      tag_12\n      jump\t// in\n    tag_9:\n      stop\n        /* \"contracts/Estate.sol\":1484:1949  function createSale(uint estateID, uint price) public isOwner(estateID) {... */\n    tag_4:\n      tag_13\n      0x04\n      dup1\n      calldatasize\n      sub\n      dup2\n      add\n      swap1\n      tag_14\n      swap2\n      swap1\n      tag_15\n      jump\t// in\n    tag_14:\n      tag_16\n      jump\t// in\n    tag_13:\n      stop\n        /* \"contracts/Estate.sol\":1115:1280  function banEstate(uint estateID) public isAdmin {... */\n    tag_5:\n      tag_17\n      0x04\n      dup1\n      calldatasize\n      sub\n      dup2\n      add\n      swap1\n      tag_18\n      swap2\n      swap1\n      tag_11\n      jump\t// in\n    tag_18:\n      tag_19\n      jump\t// in\n    tag_17:\n      stop\n        /* \"contracts/Estate.sol\":846:1109  function createEstate(address owner, string memory info, uint area) public isAdmin {... */\n    tag_6:\n      tag_20\n      0x04\n      dup1\n      calldatasize\n      sub\n      dup2\n      add\n      swap1\n      tag_21\n      swap2\n      swap1\n      tag_22\n      jump\t// in\n    tag_21:\n      tag_23\n      jump\t// in\n    tag_20:\n      stop\n        /* \"contracts/Estate.sol\":428:447  Sale[] public sales */\n    tag_7:\n      tag_24\n      0x04\n      dup1\n      calldatasize\n      sub\n      dup2\n      add\n      swap1\n      tag_25\n      swap2\n      swap1\n      tag_11\n      jump\t// in\n    tag_25:\n      tag_26\n      jump\t// in\n    tag_24:\n      mload(0x40)\n      tag_27\n      swap5\n      swap4\n      swap3\n      swap2\n      swap1\n      tag_28\n      jump\t// in\n    tag_27:\n      mload(0x40)\n      dup1\n      swap2\n      sub\n      swap1\n      return\n        /* \"contracts/Estate.sol\":399:422  Estate[] public estates */\n    tag_8:\n      tag_29\n      0x04\n      dup1\n      calldatasize\n      sub\n      dup2\n      add\n      swap1\n      tag_30\n      swap2\n      swap1\n      tag_11\n      jump\t// in\n    tag_30:\n      tag_31\n      jump\t// in\n    tag_29:\n      mload(0x40)\n      tag_32\n      swap6\n      swap5\n      swap4\n      swap3\n      swap2\n      swap1\n      tag_33\n      jump\t// in\n    tag_32:\n      mload(0x40)\n      dup1\n      swap2\n      sub\n      swap1\n      return\n        /* \"contracts/Estate.sol\":1287:1456  function unbanEstate(uint estateID) public isAdmin {... */\n    tag_12:\n        /* \"contracts/Estate.sol\":525:530  admin */\n      0x02\n      0x00\n      swap1\n      sload\n      swap1\n      0x0100\n      exp\n      swap1\n      div\n      0xffffffffffffffffffffffffffffffffffffffff\n      and\n        /* \"contracts/Estate.sol\":511:530  msg.sender == admin */\n      0xffffffffffffffffffffffffffffffffffffffff\n      and\n        /* \"contracts/Estate.sol\":511:521  msg.sender */\n      caller\n        /* \"contracts/Estate.sol\":511:530  msg.sender == admin */\n      0xffffffffffffffffffffffffffffffffffffffff\n      and\n      eq\n        /* \"contracts/Estate.sol\":503:545  require(msg.sender == admin, \"Admin only\") */\n      tag_35\n      jumpi\n      mload(0x40)\n      0x08c379a000000000000000000000000000000000000000000000000000000000\n      dup2\n      mstore\n      0x04\n      add\n      tag_36\n      swap1\n      tag_37\n      jump\t// in\n    tag_36:\n      mload(0x40)\n      dup1\n      swap2\n      sub\n      swap1\n      revert\n    tag_35:\n        /* \"contracts/Estate.sol\":1356:1363  estates */\n      0x00\n        /* \"contracts/Estate.sol\":1364:1372  estateID */\n      dup2\n        /* \"contracts/Estate.sol\":1356:1373  estates[estateID] */\n      dup2\n      sload\n      dup2\n      lt\n      tag_39\n      jumpi\n      tag_40\n      tag_41\n      jump\t// in\n    tag_40:\n    tag_39:\n      swap1\n      0x00\n      mstore\n      keccak256(0x00, 0x20)\n      swap1\n      0x04\n      mul\n      add\n        /* \"contracts/Estate.sol\":1356:1383  estates[estateID].is_banned */\n      0x03\n      add\n      0x00\n      swap1\n      sload\n      swap1\n      0x0100\n      exp\n      swap1\n      div\n      0xff\n      and\n        /* \"contracts/Estate.sol\":1348:1404  require(estates[estateID].is_banned, \"Already unbanned\") */\n      tag_43\n      jumpi\n      mload(0x40)\n      0x08c379a000000000000000000000000000000000000000000000000000000000\n      dup2\n      mstore\n      0x04\n      add\n      tag_44\n      swap1\n      tag_45\n      jump\t// in\n    tag_44:\n      mload(0x40)\n      dup1\n      swap2\n      sub\n      swap1\n      revert\n    tag_43:\n        /* \"contracts/Estate.sol\":1444:1449  false */\n      0x00\n        /* \"contracts/Estate.sol\":1414:1421  estates */\n      dup1\n        /* \"contracts/Estate.sol\":1422:1430  estateID */\n      dup3\n        /* \"contracts/Estate.sol\":1414:1431  estates[estateID] */\n      dup2\n      sload\n      dup2\n      lt\n      tag_46\n      jumpi\n      tag_47\n      tag_41\n      jump\t// in\n    tag_47:\n    tag_46:\n      swap1\n      0x00\n      mstore\n      keccak256(0x00, 0x20)\n      swap1\n      0x04\n      mul\n      add\n        /* \"contracts/Estate.sol\":1414:1441  estates[estateID].is_banned */\n      0x03\n      add\n      0x00\n        /* \"contracts/Estate.sol\":1414:1449  estates[estateID].is_banned = false */\n      0x0100\n      exp\n      dup2\n      sload\n      dup2\n      0xff\n      mul\n      not\n      and\n      swap1\n      dup4\n      iszero\n      iszero\n      mul\n      or\n      swap1\n      sstore\n      pop\n        /* \"contracts/Estate.sol\":1287:1456  function unbanEstate(uint estateID) public isAdmin {... */\n      pop\n      jump\t// out\n        /* \"contracts/Estate.sol\":1484:1949  function createSale(uint estateID, uint price) public isOwner(estateID) {... */\n    tag_16:\n        /* \"contracts/Estate.sol\":1546:1554  estateID */\n      dup2\n        /* \"contracts/Estate.sol\":630:637  estates */\n      0x00\n        /* \"contracts/Estate.sol\":630:644  estates.length */\n      dup1\n      sload\n      swap1\n      pop\n        /* \"contracts/Estate.sol\":619:627  estateID */\n      dup2\n        /* \"contracts/Estate.sol\":619:644  estateID < estates.length */\n      lt\n        /* \"contracts/Estate.sol\":611:665  require(estateID < estates.length, \"Invalid estateID\") */\n      tag_50\n      jumpi\n      mload(0x40)\n      0x08c379a000000000000000000000000000000000000000000000000000000000\n      dup2\n      mstore\n      0x04\n      add\n      tag_51\n      swap1\n      tag_52\n      jump\t// in\n    tag_51:\n      mload(0x40)\n      dup1\n      swap2\n      sub\n      swap1\n      revert\n    tag_50:\n        /* \"contracts/Estate.sol\":697:704  estates */\n      0x00\n        /* \"contracts/Estate.sol\":705:713  estateID */\n      dup2\n        /* \"contracts/Estate.sol\":697:714  estates[estateID] */\n      dup2\n      sload\n      dup2\n      lt\n      tag_53\n      jumpi\n      tag_54\n      tag_41\n      jump\t// in\n    tag_54:\n    tag_53:\n      swap1\n      0x00\n      mstore\n      keccak256(0x00, 0x20)\n      swap1\n      0x04\n      mul\n      add\n        /* \"contracts/Estate.sol\":697:720  estates[estateID].owner */\n      0x00\n      add\n      0x00\n      swap1\n      sload\n      swap1\n      0x0100\n      exp\n      swap1\n      div\n      0xffffffffffffffffffffffffffffffffffffffff\n      and\n        /* \"contracts/Estate.sol\":683:720  msg.sender == estates[estateID].owner */\n      0xffffffffffffffffffffffffffffffffffffffff\n      and\n        /* \"contracts/Estate.sol\":683:693  msg.sender */\n      caller\n        /* \"contracts/Estate.sol\":683:720  msg.sender == estates[estateID].owner */\n      0xffffffffffffffffffffffffffffffffffffffff\n      and\n      eq\n        /* \"contracts/Estate.sol\":675:735  require(msg.sender == estates[estateID].owner, \"Owner only\") */\n      tag_56\n      jumpi\n      mload(0x40)\n      0x08c379a000000000000000000000000000000000000000000000000000000000\n      dup2\n      mstore\n      0x04\n      add\n      tag_57\n      swap1\n      tag_58\n      jump\t// in\n    tag_57:\n      mload(0x40)\n      dup1\n      swap2\n      sub\n      swap1\n      revert\n    tag_56:\n        /* \"contracts/Estate.sol\":1582:1591  10**9 wei */\n      0x3b9aca00\n        /* \"contracts/Estate.sol\":1574:1579  price */\n      dup3\n        /* \"contracts/Estate.sol\":1574:1591  price > 10**9 wei */\n      gt\n        /* \"contracts/Estate.sol\":1566:1612  require(price > 10**9 wei, \"Price is too low\") */\n      tag_60\n      jumpi\n      mload(0x40)\n      0x08c379a000000000000000000000000000000000000000000000000000000000\n      dup2\n      mstore\n      0x04\n      add\n      tag_61\n      swap1\n      tag_62\n      jump\t// in\n    tag_61:\n      mload(0x40)\n      dup1\n      swap2\n      sub\n      swap1\n      revert\n    tag_60:\n        /* \"contracts/Estate.sol\":1631:1638  estates */\n      0x00\n        /* \"contracts/Estate.sol\":1639:1647  estateID */\n      dup4\n        /* \"contracts/Estate.sol\":1631:1648  estates[estateID] */\n      dup2\n      sload\n      dup2\n      lt\n      tag_63\n      jumpi\n      tag_64\n      tag_41\n      jump\t// in\n    tag_64:\n    tag_63:\n      swap1\n      0x00\n      mstore\n      keccak256(0x00, 0x20)\n      swap1\n      0x04\n      mul\n      add\n        /* \"contracts/Estate.sol\":1631:1658  estates[estateID].is_banned */\n      0x03\n      add\n      0x00\n      swap1\n      sload\n      swap1\n      0x0100\n      exp\n      swap1\n      div\n      0xff\n      and\n        /* \"contracts/Estate.sol\":1630:1658  !estates[estateID].is_banned */\n      iszero\n        /* \"contracts/Estate.sol\":1622:1679  require(!estates[estateID].is_banned, \"Estate is banned\") */\n      tag_66\n      jumpi\n      mload(0x40)\n      0x08c379a000000000000000000000000000000000000000000000000000000000\n      dup2\n      mstore\n      0x04\n      add\n      tag_67\n      swap1\n      tag_68\n      jump\t// in\n    tag_67:\n      mload(0x40)\n      dup1\n      swap2\n      sub\n      swap1\n      revert\n    tag_66:\n        /* \"contracts/Estate.sol\":1698:1705  estates */\n      0x00\n        /* \"contracts/Estate.sol\":1706:1714  estateID */\n      dup4\n        /* \"contracts/Estate.sol\":1698:1715  estates[estateID] */\n      dup2\n      sload\n      dup2\n      lt\n      tag_69\n      jumpi\n      tag_70\n      tag_41\n      jump\t// in\n    tag_70:\n    tag_69:\n      swap1\n      0x00\n      mstore\n      keccak256(0x00, 0x20)\n      swap1\n      0x04\n      mul\n      add\n        /* \"contracts/Estate.sol\":1698:1723  estates[estateID].on_sale */\n      0x03\n      add\n      0x01\n      swap1\n      sload\n      swap1\n      0x0100\n      exp\n      swap1\n      div\n      0xff\n      and\n        /* \"contracts/Estate.sol\":1697:1723  !estates[estateID].on_sale */\n      iszero\n        /* \"contracts/Estate.sol\":1689:1743  require(!estates[estateID].on_sale, \"Already on sale\") */\n      tag_72\n      jumpi\n      mload(0x40)\n      0x08c379a000000000000000000000000000000000000000000000000000000000\n      dup2\n      mstore\n      0x04\n      add\n      tag_73\n      swap1\n      tag_74\n      jump\t// in\n    tag_73:\n      mload(0x40)\n      dup1\n      swap2\n      sub\n      swap1\n      revert\n    tag_72:\n        /* \"contracts/Estate.sol\":1754:1777  address[] memory buyers */\n      0x60\n        /* \"contracts/Estate.sol\":1787:1805  uint[] memory bids */\n      dup1\n        /* \"contracts/Estate.sol\":1816:1821  sales */\n      0x01\n        /* \"contracts/Estate.sol\":1827:1899  Sale(estateID, estates[estateID].owner, address(0), price, buyers, bids) */\n      mload(0x40)\n      dup1\n      0xc0\n      add\n      0x40\n      mstore\n      dup1\n        /* \"contracts/Estate.sol\":1832:1840  estateID */\n      dup8\n        /* \"contracts/Estate.sol\":1827:1899  Sale(estateID, estates[estateID].owner, address(0), price, buyers, bids) */\n      dup2\n      mstore\n      0x20\n      add\n        /* \"contracts/Estate.sol\":1842:1849  estates */\n      0x00\n        /* \"contracts/Estate.sol\":1850:1858  estateID */\n      dup9\n        /* \"contracts/Estate.sol\":1842:1859  estates[estateID] */\n      dup2\n      sload\n      dup2\n      lt\n      tag_75\n      jumpi\n      tag_76\n      tag_41\n      jump\t// in\n    tag_76:\n    tag_75:\n      swap1\n      0x00\n      mstore\n      keccak256(0x00, 0x20)\n      swap1\n      0x04\n      mul\n      add\n        /* \"contracts/Estate.sol\":1842:1865  estates[estateID].owner */\n      0x00\n      add\n      0x00\n      swap1\n      sload\n      swap1\n      0x0100\n      exp\n      swap1\n      div\n      0xffffffffffffffffffffffffffffffffffffffff\n      and\n        /* \"contracts/Estate.sol\":1827:1899  Sale(estateID, estates[estateID].owner, address(0), price, buyers, bids) */\n      0xffffffffffffffffffffffffffffffffffffffff\n      and\n      dup2\n      mstore\n      0x20\n      add\n        /* \"contracts/Estate.sol\":1875:1876  0 */\n      0x00\n        /* \"contracts/Estate.sol\":1827:1899  Sale(estateID, estates[estateID].owner, address(0), price, buyers, bids) */\n      0xffffffffffffffffffffffffffffffffffffffff\n      and\n      dup2\n      mstore\n      0x20\n      add\n        /* \"contracts/Estate.sol\":1879:1884  price */\n      dup7\n        /* \"contracts/Estate.sol\":1827:1899  Sale(estateID, estates[estateID].owner, address(0), price, buyers, bids) */\n      dup2\n      mstore\n      0x20\n      add\n        /* \"contracts/Estate.sol\":1886:1892  buyers */\n      dup5\n        /* \"contracts/Estate.sol\":1827:1899  Sale(estateID, estates[estateID].owner, address(0), price, buyers, bids) */\n      dup2\n      mstore\n      0x20\n      add\n        /* \"contracts/Estate.sol\":1894:1898  bids */\n      dup4\n        /* \"contracts/Estate.sol\":1827:1899  Sale(estateID, estates[estateID].owner, address(0), price, buyers, bids) */\n      dup2\n      mstore\n      pop\n        /* \"contracts/Estate.sol\":1816:1900  sales.push(Sale(estateID, estates[estateID].owner, address(0), price, buyers, bids)) */\n      swap1\n      dup1\n      0x01\n      dup2\n      sload\n      add\n      dup1\n      dup3\n      sstore\n      dup1\n      swap2\n      pop\n      pop\n      0x01\n      swap1\n      sub\n      swap1\n      0x00\n      mstore\n      keccak256(0x00, 0x20)\n      swap1\n      0x06\n      mul\n      add\n      0x00\n      swap1\n      swap2\n      swap1\n      swap2\n      swap1\n      swap2\n      pop\n      0x00\n      dup3\n      add\n      mload\n      dup2\n      0x00\n      add\n      sstore\n      0x20\n      dup3\n      add\n      mload\n      dup2\n      0x01\n      add\n      exp(0x0100, 0x00)\n      dup2\n      sload\n      dup2\n      0xffffffffffffffffffffffffffffffffffffffff\n      mul\n      not\n      and\n      swap1\n      dup4\n      0xffffffffffffffffffffffffffffffffffffffff\n      and\n      mul\n      or\n      swap1\n      sstore\n      pop\n      0x40\n      dup3\n      add\n      mload\n      dup2\n      0x02\n      add\n      exp(0x0100, 0x00)\n      dup2\n      sload\n      dup2\n      0xffffffffffffffffffffffffffffffffffffffff\n      mul\n      not\n      and\n      swap1\n      dup4\n      0xffffffffffffffffffffffffffffffffffffffff\n      and\n      mul\n      or\n      swap1\n      sstore\n      pop\n      0x60\n      dup3\n      add\n      mload\n      dup2\n      0x03\n      add\n      sstore\n      0x80\n      dup3\n      add\n      mload\n      dup2\n      0x04\n      add\n      swap1\n      dup1\n      mload\n      swap1\n      0x20\n      add\n      swap1\n      tag_79\n      swap3\n      swap2\n      swap1\n      tag_80\n      jump\t// in\n    tag_79:\n      pop\n      0xa0\n      dup3\n      add\n      mload\n      dup2\n      0x05\n      add\n      swap1\n      dup1\n      mload\n      swap1\n      0x20\n      add\n      swap1\n      tag_81\n      swap3\n      swap2\n      swap1\n      tag_82\n      jump\t// in\n    tag_81:\n      pop\n      pop\n      pop\n        /* \"contracts/Estate.sol\":1938:1942  true */\n      0x01\n        /* \"contracts/Estate.sol\":1910:1917  estates */\n      0x00\n        /* \"contracts/Estate.sol\":1918:1926  estateID */\n      dup7\n        /* \"contracts/Estate.sol\":1910:1927  estates[estateID] */\n      dup2\n      sload\n      dup2\n      lt\n      tag_83\n      jumpi\n      tag_84\n      tag_41\n      jump\t// in\n    tag_84:\n    tag_83:\n      swap1\n      0x00\n      mstore\n      keccak256(0x00, 0x20)\n      swap1\n      0x04\n      mul\n      add\n        /* \"contracts/Estate.sol\":1910:1935  estates[estateID].on_sale */\n      0x03\n      add\n      0x01\n        /* \"contracts/Estate.sol\":1910:1942  estates[estateID].on_sale = true */\n      0x0100\n      exp\n      dup2\n      sload\n      dup2\n      0xff\n      mul\n      not\n      and\n      swap1\n      dup4\n      iszero\n      iszero\n      mul\n      or\n      swap1\n      sstore\n      pop\n        /* \"contracts/Estate.sol\":1556:1949  {... */\n      pop\n      pop\n        /* \"contracts/Estate.sol\":1484:1949  function createSale(uint estateID, uint price) public isOwner(estateID) {... */\n      pop\n      pop\n      pop\n      jump\t// out\n        /* \"contracts/Estate.sol\":1115:1280  function banEstate(uint estateID) public isAdmin {... */\n    tag_19:\n        /* \"contracts/Estate.sol\":525:530  admin */\n      0x02\n      0x00\n      swap1\n      sload\n      swap1\n      0x0100\n      exp\n      swap1\n      div\n      0xffffffffffffffffffffffffffffffffffffffff\n      and\n        /* \"contracts/Estate.sol\":511:530  msg.sender == admin */\n      0xffffffffffffffffffffffffffffffffffffffff\n      and\n        /* \"contracts/Estate.sol\":511:521  msg.sender */\n      caller\n        /* \"contracts/Estate.sol\":511:530  msg.sender == admin */\n      0xffffffffffffffffffffffffffffffffffffffff\n      and\n      eq\n        /* \"contracts/Estate.sol\":503:545  require(msg.sender == admin, \"Admin only\") */\n      tag_87\n      jumpi\n      mload(0x40)\n      0x08c379a000000000000000000000000000000000000000000000000000000000\n      dup2\n      mstore\n      0x04\n      add\n      tag_88\n      swap1\n      tag_37\n      jump\t// in\n    tag_88:\n      mload(0x40)\n      dup1\n      swap2\n      sub\n      swap1\n      revert\n    tag_87:\n        /* \"contracts/Estate.sol\":1183:1190  estates */\n      0x00\n        /* \"contracts/Estate.sol\":1191:1199  estateID */\n      dup2\n        /* \"contracts/Estate.sol\":1183:1200  estates[estateID] */\n      dup2\n      sload\n      dup2\n      lt\n      tag_90\n      jumpi\n      tag_91\n      tag_41\n      jump\t// in\n    tag_91:\n    tag_90:\n      swap1\n      0x00\n      mstore\n      keccak256(0x00, 0x20)\n      swap1\n      0x04\n      mul\n      add\n        /* \"contracts/Estate.sol\":1183:1210  estates[estateID].is_banned */\n      0x03\n      add\n      0x00\n      swap1\n      sload\n      swap1\n      0x0100\n      exp\n      swap1\n      div\n      0xff\n      and\n        /* \"contracts/Estate.sol\":1182:1210  !estates[estateID].is_banned */\n      iszero\n        /* \"contracts/Estate.sol\":1174:1229  require(!estates[estateID].is_banned, \"Already banned\") */\n      tag_93\n      jumpi\n      mload(0x40)\n      0x08c379a000000000000000000000000000000000000000000000000000000000\n      dup2\n      mstore\n      0x04\n      add\n      tag_94\n      swap1\n      tag_95\n      jump\t// in\n    tag_94:\n      mload(0x40)\n      dup1\n      swap2\n      sub\n      swap1\n      revert\n    tag_93:\n        /* \"contracts/Estate.sol\":1269:1273  true */\n      0x01\n        /* \"contracts/Estate.sol\":1239:1246  estates */\n      0x00\n        /* \"contracts/Estate.sol\":1247:1255  estateID */\n      dup3\n        /* \"contracts/Estate.sol\":1239:1256  estates[estateID] */\n      dup2\n      sload\n      dup2\n      lt\n      tag_96\n      jumpi\n      tag_97\n      tag_41\n      jump\t// in\n    tag_97:\n    tag_96:\n      swap1\n      0x00\n      mstore\n      keccak256(0x00, 0x20)\n      swap1\n      0x04\n      mul\n      add\n        /* \"contracts/Estate.sol\":1239:1266  estates[estateID].is_banned */\n      0x03\n      add\n      0x00\n        /* \"contracts/Estate.sol\":1239:1273  estates[estateID].is_banned = true */\n      0x0100\n      exp\n      dup2\n      sload\n      dup2\n      0xff\n      mul\n      not\n      and\n      swap1\n      dup4\n      iszero\n      iszero\n      mul\n      or\n      swap1\n      sstore\n      pop\n        /* \"contracts/Estate.sol\":1115:1280  function banEstate(uint estateID) public isAdmin {... */\n      pop\n      jump\t// out\n        /* \"contracts/Estate.sol\":846:1109  function createEstate(address owner, string memory info, uint area) public isAdmin {... */\n    tag_23:\n        /* \"contracts/Estate.sol\":525:530  admin */\n      0x02\n      0x00\n      swap1\n      sload\n      swap1\n      0x0100\n      exp\n      swap1\n      div\n      0xffffffffffffffffffffffffffffffffffffffff\n      and\n        /* \"contracts/Estate.sol\":511:530  msg.sender == admin */\n      0xffffffffffffffffffffffffffffffffffffffff\n      and\n        /* \"contracts/Estate.sol\":511:521  msg.sender */\n      caller\n        /* \"contracts/Estate.sol\":511:530  msg.sender == admin */\n      0xffffffffffffffffffffffffffffffffffffffff\n      and\n      eq\n        /* \"contracts/Estate.sol\":503:545  require(msg.sender == admin, \"Admin only\") */\n      tag_100\n      jumpi\n      mload(0x40)\n      0x08c379a000000000000000000000000000000000000000000000000000000000\n      dup2\n      mstore\n      0x04\n      add\n      tag_101\n      swap1\n      tag_37\n      jump\t// in\n    tag_101:\n      mload(0x40)\n      dup1\n      swap2\n      sub\n      swap1\n      revert\n    tag_100:\n        /* \"contracts/Estate.sol\":964:965  0 */\n      0x00\n        /* \"contracts/Estate.sol\":947:966  owner != address(0) */\n      0xffffffffffffffffffffffffffffffffffffffff\n      and\n        /* \"contracts/Estate.sol\":947:952  owner */\n      dup4\n        /* \"contracts/Estate.sol\":947:966  owner != address(0) */\n      0xffffffffffffffffffffffffffffffffffffffff\n      and\n      sub\n        /* \"contracts/Estate.sol\":939:986  require(owner != address(0), \"Invalid address\") */\n      tag_103\n      jumpi\n      mload(0x40)\n      0x08c379a000000000000000000000000000000000000000000000000000000000\n      dup2\n      mstore\n      0x04\n      add\n      tag_104\n      swap1\n      tag_105\n      jump\t// in\n    tag_104:\n      mload(0x40)\n      dup1\n      swap2\n      sub\n      swap1\n      revert\n    tag_103:\n        /* \"contracts/Estate.sol\":1011:1012  0 */\n      0x00\n        /* \"contracts/Estate.sol\":1004:1008  area */\n      dup2\n        /* \"contracts/Estate.sol\":1004:1012  area > 0 */\n      gt\n        /* \"contracts/Estate.sol\":996:1038  require(area > 0, \"Area must be positive\") */\n      tag_106\n      jumpi\n      mload(0x40)\n      0x08c379a000000000000000000000000000000000000000000000000000000000\n      dup2\n      mstore\n      0x04\n      add\n      tag_107\n      swap1\n      tag_108\n      jump\t// in\n    tag_107:\n      mload(0x40)\n      dup1\n      swap2\n      sub\n      swap1\n      revert\n    tag_106:\n        /* \"contracts/Estate.sol\":1049:1056  estates */\n      0x00\n        /* \"contracts/Estate.sol\":1062:1101  Estate(owner, info, area, false, false) */\n      mload(0x40)\n      dup1\n      0xa0\n      add\n      0x40\n      mstore\n      dup1\n        /* \"contracts/Estate.sol\":1069:1074  owner */\n      dup6\n        /* \"contracts/Estate.sol\":1062:1101  Estate(owner, info, area, false, false) */\n      0xffffffffffffffffffffffffffffffffffffffff\n      and\n      dup2\n      mstore\n      0x20\n      add\n        /* \"contracts/Estate.sol\":1076:1080  info */\n      dup5\n        /* \"contracts/Estate.sol\":1062:1101  Estate(owner, info, area, false, false) */\n      dup2\n      mstore\n      0x20\n      add\n        /* \"contracts/Estate.sol\":1082:1086  area */\n      dup4\n        /* \"contracts/Estate.sol\":1062:1101  Estate(owner, info, area, false, false) */\n      dup2\n      mstore\n      0x20\n      add\n        /* \"contracts/Estate.sol\":1088:1093  false */\n      0x00\n        /* \"contracts/Estate.sol\":1062:1101  Estate(owner, info, area, false, false) */\n      iszero\n      iszero\n      dup2\n      mstore\n      0x20\n      add\n        /* \"contracts/Estate.sol\":1095:1100  false */\n      0x00\n        /* \"contracts/Estate.sol\":1062:1101  Estate(owner, info, area, false, false) */\n      iszero\n      iszero\n      dup2\n      mstore\n      pop\n        /* \"contracts/Estate.sol\":1049:1102  estates.push(Estate(owner, info, area, false, false)) */\n      swap1\n      dup1\n      0x01\n      dup2\n      sload\n      add\n      dup1\n      dup3\n      sstore\n      dup1\n      swap2\n      pop\n      pop\n      0x01\n      swap1\n      sub\n      swap1\n      0x00\n      mstore\n      keccak256(0x00, 0x20)\n      swap1\n      0x04\n      mul\n      add\n      0x00\n      swap1\n      swap2\n      swap1\n      swap2\n      swap1\n      swap2\n      pop\n      0x00\n      dup3\n      add\n      mload\n      dup2\n      0x00\n      add\n      exp(0x0100, 0x00)\n      dup2\n      sload\n      dup2\n      0xffffffffffffffffffffffffffffffffffffffff\n      mul\n      not\n      and\n      swap1\n      dup4\n      0xffffffffffffffffffffffffffffffffffffffff\n      and\n      mul\n      or\n      swap1\n      sstore\n      pop\n      0x20\n      dup3\n      add\n      mload\n      dup2\n      0x01\n      add\n      swap1\n      dup2\n      tag_110\n      swap2\n      swap1\n      tag_111\n      jump\t// in\n    tag_110:\n      pop\n      0x40\n      dup3\n      add\n      mload\n      dup2\n      0x02\n      add\n      sstore\n      0x60\n      dup3\n      add\n      mload\n      dup2\n      0x03\n      add\n      exp(0x0100, 0x00)\n      dup2\n      sload\n      dup2\n      0xff\n      mul\n      not\n      and\n      swap1\n      dup4\n      iszero\n      iszero\n      mul\n      or\n      swap1\n      sstore\n      pop\n      0x80\n      dup3\n      add\n      mload\n      dup2\n      0x03\n      add\n      exp(0x0100, 0x01)\n      dup2\n      sload\n      dup2\n      0xff\n      mul\n      not\n      and\n      swap1\n      dup4\n      iszero\n      iszero\n      mul\n      or\n      swap1\n      sstore\n      pop\n      pop\n      pop\n        /* \"contracts/Estate.sol\":846:1109  function createEstate(address owner, string memory info, uint area) public isAdmin {... */\n      pop\n      pop\n      pop\n      jump\t// out\n        /* \"contracts/Estate.sol\":428:447  Sale[] public sales */\n    tag_26:\n      0x01\n      dup2\n      dup2\n      sload\n      dup2\n      lt\n      tag_112\n      jumpi\n      0x00\n      dup1\n      revert\n    tag_112:\n      swap1\n      0x00\n      mstore\n      keccak256(0x00, 0x20)\n      swap1\n      0x06\n      mul\n      add\n      0x00\n      swap2\n      pop\n      swap1\n      pop\n      dup1\n      0x00\n      add\n      sload\n      swap1\n      dup1\n      0x01\n      add\n      0x00\n      swap1\n      sload\n      swap1\n      0x0100\n      exp\n      swap1\n      div\n      0xffffffffffffffffffffffffffffffffffffffff\n      and\n      swap1\n      dup1\n      0x02\n      add\n      0x00\n      swap1\n      sload\n      swap1\n      0x0100\n      exp\n      swap1\n      div\n      0xffffffffffffffffffffffffffffffffffffffff\n      and\n      swap1\n      dup1\n      0x03\n      add\n      sload\n      swap1\n      pop\n      dup5\n      jump\t// out\n        /* \"contracts/Estate.sol\":399:422  Estate[] public estates */\n    tag_31:\n      0x00\n      dup2\n      dup2\n      sload\n      dup2\n      lt\n      tag_114\n      jumpi\n      0x00\n      dup1\n      revert\n    tag_114:\n      swap1\n      0x00\n      mstore\n      keccak256(0x00, 0x20)\n      swap1\n      0x04\n      mul\n      add\n      0x00\n      swap2\n      pop\n      swap1\n      pop\n      dup1\n      0x00\n      add\n      0x00\n      swap1\n      sload\n      swap1\n      0x0100\n      exp\n      swap1\n      div\n      0xffffffffffffffffffffffffffffffffffffffff\n      and\n      swap1\n      dup1\n      0x01\n      add\n      dup1\n      sload\n      tag_116\n      swap1\n      tag_117\n      jump\t// in\n    tag_116:\n      dup1\n      0x1f\n      add\n      0x20\n      dup1\n      swap2\n      div\n      mul\n      0x20\n      add\n      mload(0x40)\n      swap1\n      dup2\n      add\n      0x40\n      mstore\n      dup1\n      swap3\n      swap2\n      swap1\n      dup2\n      dup2\n      mstore\n      0x20\n      add\n      dup3\n      dup1\n      sload\n      tag_118\n      swap1\n      tag_117\n      jump\t// in\n    tag_118:\n      dup1\n      iszero\n      tag_119\n      jumpi\n      dup1\n      0x1f\n      lt\n      tag_120\n      jumpi\n      0x0100\n      dup1\n      dup4\n      sload\n      div\n      mul\n      dup4\n      mstore\n      swap2\n      0x20\n      add\n      swap2\n      jump(tag_119)\n    tag_120:\n      dup3\n      add\n      swap2\n      swap1\n      0x00\n      mstore\n      keccak256(0x00, 0x20)\n      swap1\n    tag_121:\n      dup2\n      sload\n      dup2\n      mstore\n      swap1\n      0x01\n      add\n      swap1\n      0x20\n      add\n      dup1\n      dup4\n      gt\n      tag_121\n      jumpi\n      dup3\n      swap1\n      sub\n      0x1f\n      and\n      dup3\n      add\n      swap2\n    tag_119:\n      pop\n      pop\n      pop\n      pop\n      pop\n      swap1\n      dup1\n      0x02\n      add\n      sload\n      swap1\n      dup1\n      0x03\n      add\n      0x00\n      swap1\n      sload\n      swap1\n      0x0100\n      exp\n      swap1\n      div\n      0xff\n      and\n      swap1\n      dup1\n      0x03\n      add\n      0x01\n      swap1\n      sload\n      swap1\n      0x0100\n      exp\n      swap1\n      div\n      0xff\n      and\n      swap1\n      pop\n      dup6\n      jump\t// out\n    tag_80:\n      dup3\n      dup1\n      sload\n      dup3\n      dup3\n      sstore\n      swap1\n      0x00\n      mstore\n      keccak256(0x00, 0x20)\n      swap1\n      dup2\n      add\n      swap3\n      dup3\n      iszero\n      tag_122\n      jumpi\n      swap2\n      0x20\n      mul\n      dup3\n      add\n    tag_123:\n      dup3\n      dup2\n      gt\n      iszero\n      tag_124\n      jumpi\n      dup3\n      mload\n      dup3\n      exp(0x0100, 0x00)\n      dup2\n      sload\n      dup2\n      0xffffffffffffffffffffffffffffffffffffffff\n      mul\n      not\n      and\n      swap1\n      dup4\n      0xffffffffffffffffffffffffffffffffffffffff\n      and\n      mul\n      or\n      swap1\n      sstore\n      pop\n      swap2\n      0x20\n      add\n      swap2\n      swap1\n      0x01\n      add\n      swap1\n      jump(tag_123)\n    tag_124:\n    tag_122:\n      pop\n      swap1\n      pop\n      tag_125\n      swap2\n      swap1\n      tag_126\n      jump\t// in\n    tag_125:\n      pop\n      swap1\n      jump\t// out\n    tag_82:\n      dup3\n      dup1\n      sload\n      dup3\n      dup3\n      sstore\n      swap1\n      0x00\n      mstore\n      keccak256(0x00, 0x20)\n      swap1\n      dup2\n      add\n      swap3\n      dup3\n      iszero\n      tag_127\n      jumpi\n      swap2\n      0x20\n      mul\n      dup3\n      add\n    tag_128:\n      dup3\n      dup2\n      gt\n      iszero\n      tag_129\n      jumpi\n      dup3\n      mload\n      dup3\n      sstore\n      swap2\n      0x20\n      add\n      swap2\n      swap1\n      0x01\n      add\n      swap1\n      jump(tag_128)\n    tag_129:\n    tag_127:\n      pop\n      swap1\n      pop\n      tag_130\n      swap2\n      swap1\n      tag_126\n      jump\t// in\n    tag_130:\n      pop\n      swap1\n      jump\t// out\n    tag_126:\n    tag_131:\n      dup1\n      dup3\n      gt\n      iszero\n      tag_132\n      jumpi\n      0x00\n      dup2\n      0x00\n      swap1\n      sstore\n      pop\n      0x01\n      add\n      jump(tag_131)\n    tag_132:\n      pop\n      swap1\n      jump\t// out\n        /* \"#utility.yul\":7:82   */\n    tag_133:\n        /* \"#utility.yul\":40:46   */\n      0x00\n        /* \"#utility.yul\":73:75   */\n      0x40\n        /* \"#utility.yul\":67:76   */\n      mload\n        /* \"#utility.yul\":57:76   */\n      swap1\n      pop\n        /* \"#utility.yul\":7:82   */\n      swap1\n      jump\t// out\n        /* \"#utility.yul\":88:205   */\n    tag_134:\n        /* \"#utility.yul\":197:198   */\n      0x00\n        /* \"#utility.yul\":194:195   */\n      dup1\n        /* \"#utility.yul\":187:199   */\n      revert\n        /* \"#utility.yul\":211:328   */\n    tag_135:\n        /* \"#utility.yul\":320:321   */\n      0x00\n        /* \"#utility.yul\":317:318   */\n      dup1\n        /* \"#utility.yul\":310:322   */\n      revert\n        /* \"#utility.yul\":334:411   */\n    tag_136:\n        /* \"#utility.yul\":371:378   */\n      0x00\n        /* \"#utility.yul\":400:405   */\n      dup2\n        /* \"#utility.yul\":389:405   */\n      swap1\n      pop\n        /* \"#utility.yul\":334:411   */\n      swap2\n      swap1\n      pop\n      jump\t// out\n        /* \"#utility.yul\":417:539   */\n    tag_137:\n        /* \"#utility.yul\":490:514   */\n      tag_203\n        /* \"#utility.yul\":508:513   */\n      dup2\n        /* \"#utility.yul\":490:514   */\n      tag_136\n      jump\t// in\n    tag_203:\n        /* \"#utility.yul\":483:488   */\n      dup2\n        /* \"#utility.yul\":480:515   */\n      eq\n        /* \"#utility.yul\":470:533   */\n      tag_204\n      jumpi\n        /* \"#utility.yul\":529:530   */\n      0x00\n        /* \"#utility.yul\":526:527   */\n      dup1\n        /* \"#utility.yul\":519:531   */\n      revert\n        /* \"#utility.yul\":470:533   */\n    tag_204:\n        /* \"#utility.yul\":417:539   */\n      pop\n      jump\t// out\n        /* \"#utility.yul\":545:684   */\n    tag_138:\n        /* \"#utility.yul\":591:596   */\n      0x00\n        /* \"#utility.yul\":629:635   */\n      dup2\n        /* \"#utility.yul\":616:636   */\n      calldataload\n        /* \"#utility.yul\":607:636   */\n      swap1\n      pop\n        /* \"#utility.yul\":645:678   */\n      tag_206\n        /* \"#utility.yul\":672:677   */\n      dup2\n        /* \"#utility.yul\":645:678   */\n      tag_137\n      jump\t// in\n    tag_206:\n        /* \"#utility.yul\":545:684   */\n      swap3\n      swap2\n      pop\n      pop\n      jump\t// out\n        /* \"#utility.yul\":690:1019   */\n    tag_11:\n        /* \"#utility.yul\":749:755   */\n      0x00\n        /* \"#utility.yul\":798:800   */\n      0x20\n        /* \"#utility.yul\":786:795   */\n      dup3\n        /* \"#utility.yul\":777:784   */\n      dup5\n        /* \"#utility.yul\":773:796   */\n      sub\n        /* \"#utility.yul\":769:801   */\n      slt\n        /* \"#utility.yul\":766:885   */\n      iszero\n      tag_208\n      jumpi\n        /* \"#utility.yul\":804:883   */\n      tag_209\n      tag_134\n      jump\t// in\n    tag_209:\n        /* \"#utility.yul\":766:885   */\n    tag_208:\n        /* \"#utility.yul\":924:925   */\n      0x00\n        /* \"#utility.yul\":949:1002   */\n      tag_210\n        /* \"#utility.yul\":994:1001   */\n      dup5\n        /* \"#utility.yul\":985:991   */\n      dup3\n        /* \"#utility.yul\":974:983   */\n      dup6\n        /* \"#utility.yul\":970:992   */\n      add\n        /* \"#utility.yul\":949:1002   */\n      tag_138\n      jump\t// in\n    tag_210:\n        /* \"#utility.yul\":939:1002   */\n      swap2\n      pop\n        /* \"#utility.yul\":895:1012   */\n      pop\n        /* \"#utility.yul\":690:1019   */\n      swap3\n      swap2\n      pop\n      pop\n      jump\t// out\n        /* \"#utility.yul\":1025:1499   */\n    tag_15:\n        /* \"#utility.yul\":1093:1099   */\n      0x00\n        /* \"#utility.yul\":1101:1107   */\n      dup1\n        /* \"#utility.yul\":1150:1152   */\n      0x40\n        /* \"#utility.yul\":1138:1147   */\n      dup4\n        /* \"#utility.yul\":1129:1136   */\n      dup6\n        /* \"#utility.yul\":1125:1148   */\n      sub\n        /* \"#utility.yul\":1121:1153   */\n      slt\n        /* \"#utility.yul\":1118:1237   */\n      iszero\n      tag_212\n      jumpi\n        /* \"#utility.yul\":1156:1235   */\n      tag_213\n      tag_134\n      jump\t// in\n    tag_213:\n        /* \"#utility.yul\":1118:1237   */\n    tag_212:\n        /* \"#utility.yul\":1276:1277   */\n      0x00\n        /* \"#utility.yul\":1301:1354   */\n      tag_214\n        /* \"#utility.yul\":1346:1353   */\n      dup6\n        /* \"#utility.yul\":1337:1343   */\n      dup3\n        /* \"#utility.yul\":1326:1335   */\n      dup7\n        /* \"#utility.yul\":1322:1344   */\n      add\n        /* \"#utility.yul\":1301:1354   */\n      tag_138\n      jump\t// in\n    tag_214:\n        /* \"#utility.yul\":1291:1354   */\n      swap3\n      pop\n        /* \"#utility.yul\":1247:1364   */\n      pop\n        /* \"#utility.yul\":1403:1405   */\n      0x20\n        /* \"#utility.yul\":1429:1482   */\n      tag_215\n        /* \"#utility.yul\":1474:1481   */\n      dup6\n        /* \"#utility.yul\":1465:1471   */\n      dup3\n        /* \"#utility.yul\":1454:1463   */\n      dup7\n        /* \"#utility.yul\":1450:1472   */\n      add\n        /* \"#utility.yul\":1429:1482   */\n      tag_138\n      jump\t// in\n    tag_215:\n        /* \"#utility.yul\":1419:1482   */\n      swap2\n      pop\n        /* \"#utility.yul\":1374:1492   */\n      pop\n        /* \"#utility.yul\":1025:1499   */\n      swap3\n      pop\n      swap3\n      swap1\n      pop\n      jump\t// out\n        /* \"#utility.yul\":1505:1631   */\n    tag_139:\n        /* \"#utility.yul\":1542:1549   */\n      0x00\n        /* \"#utility.yul\":1582:1624   */\n      0xffffffffffffffffffffffffffffffffffffffff\n        /* \"#utility.yul\":1575:1580   */\n      dup3\n        /* \"#utility.yul\":1571:1625   */\n      and\n        /* \"#utility.yul\":1560:1625   */\n      swap1\n      pop\n        /* \"#utility.yul\":1505:1631   */\n      swap2\n      swap1\n      pop\n      jump\t// out\n        /* \"#utility.yul\":1637:1733   */\n    tag_140:\n        /* \"#utility.yul\":1674:1681   */\n      0x00\n        /* \"#utility.yul\":1703:1727   */\n      tag_218\n        /* \"#utility.yul\":1721:1726   */\n      dup3\n        /* \"#utility.yul\":1703:1727   */\n      tag_139\n      jump\t// in\n    tag_218:\n        /* \"#utility.yul\":1692:1727   */\n      swap1\n      pop\n        /* \"#utility.yul\":1637:1733   */\n      swap2\n      swap1\n      pop\n      jump\t// out\n        /* \"#utility.yul\":1739:1861   */\n    tag_141:\n        /* \"#utility.yul\":1812:1836   */\n      tag_220\n        /* \"#utility.yul\":1830:1835   */\n      dup2\n        /* \"#utility.yul\":1812:1836   */\n      tag_140\n      jump\t// in\n    tag_220:\n        /* \"#utility.yul\":1805:1810   */\n      dup2\n        /* \"#utility.yul\":1802:1837   */\n      eq\n        /* \"#utility.yul\":1792:1855   */\n      tag_221\n      jumpi\n        /* \"#utility.yul\":1851:1852   */\n      0x00\n        /* \"#utility.yul\":1848:1849   */\n      dup1\n        /* \"#utility.yul\":1841:1853   */\n      revert\n        /* \"#utility.yul\":1792:1855   */\n    tag_221:\n        /* \"#utility.yul\":1739:1861   */\n      pop\n      jump\t// out\n        /* \"#utility.yul\":1867:2006   */\n    tag_142:\n        /* \"#utility.yul\":1913:1918   */\n      0x00\n        /* \"#utility.yul\":1951:1957   */\n      dup2\n        /* \"#utility.yul\":1938:1958   */\n      calldataload\n        /* \"#utility.yul\":1929:1958   */\n      swap1\n      pop\n        /* \"#utility.yul\":1967:2000   */\n      tag_223\n        /* \"#utility.yul\":1994:1999   */\n      dup2\n        /* \"#utility.yul\":1967:2000   */\n      tag_141\n      jump\t// in\n    tag_223:\n        /* \"#utility.yul\":1867:2006   */\n      swap3\n      swap2\n      pop\n      pop\n      jump\t// out\n        /* \"#utility.yul\":2012:2129   */\n    tag_143:\n        /* \"#utility.yul\":2121:2122   */\n      0x00\n        /* \"#utility.yul\":2118:2119   */\n      dup1\n        /* \"#utility.yul\":2111:2123   */\n      revert\n        /* \"#utility.yul\":2135:2252   */\n    tag_144:\n        /* \"#utility.yul\":2244:2245   */\n      0x00\n        /* \"#utility.yul\":2241:2242   */\n      dup1\n        /* \"#utility.yul\":2234:2246   */\n      revert\n        /* \"#utility.yul\":2258:2360   */\n    tag_145:\n        /* \"#utility.yul\":2299:2305   */\n      0x00\n        /* \"#utility.yul\":2350:2352   */\n      0x1f\n        /* \"#utility.yul\":2346:2353   */\n      not\n        /* \"#utility.yul\":2341:2343   */\n      0x1f\n        /* \"#utility.yul\":2334:2339   */\n      dup4\n        /* \"#utility.yul\":2330:2344   */\n      add\n        /* \"#utility.yul\":2326:2354   */\n      and\n        /* \"#utility.yul\":2316:2354   */\n      swap1\n      pop\n        /* \"#utility.yul\":2258:2360   */\n      swap2\n      swap1\n      pop\n      jump\t// out\n        /* \"#utility.yul\":2366:2546   */\n    tag_146:\n        /* \"#utility.yul\":2414:2491   */\n      0x4e487b7100000000000000000000000000000000000000000000000000000000\n        /* \"#utility.yul\":2411:2412   */\n      0x00\n        /* \"#utility.yul\":2404:2492   */\n      mstore\n        /* \"#utility.yul\":2511:2515   */\n      0x41\n        /* \"#utility.yul\":2508:2509   */\n      0x04\n        /* \"#utility.yul\":2501:2516   */\n      mstore\n        /* \"#utility.yul\":2535:2539   */\n      0x24\n        /* \"#utility.yul\":2532:2533   */\n      0x00\n        /* \"#utility.yul\":2525:2540   */\n      revert\n        /* \"#utility.yul\":2552:2833   */\n    tag_147:\n        /* \"#utility.yul\":2635:2662   */\n      tag_229\n        /* \"#utility.yul\":2657:2661   */\n      dup3\n        /* \"#utility.yul\":2635:2662   */\n      tag_145\n      jump\t// in\n    tag_229:\n        /* \"#utility.yul\":2627:2633   */\n      dup2\n        /* \"#utility.yul\":2623:2663   */\n      add\n        /* \"#utility.yul\":2765:2771   */\n      dup2\n        /* \"#utility.yul\":2753:2763   */\n      dup2\n        /* \"#utility.yul\":2750:2772   */\n      lt\n        /* \"#utility.yul\":2729:2747   */\n      0xffffffffffffffff\n        /* \"#utility.yul\":2717:2727   */\n      dup3\n        /* \"#utility.yul\":2714:2748   */\n      gt\n        /* \"#utility.yul\":2711:2773   */\n      or\n        /* \"#utility.yul\":2708:2796   */\n      iszero\n      tag_230\n      jumpi\n        /* \"#utility.yul\":2776:2794   */\n      tag_231\n      tag_146\n      jump\t// in\n    tag_231:\n        /* \"#utility.yul\":2708:2796   */\n    tag_230:\n        /* \"#utility.yul\":2816:2826   */\n      dup1\n        /* \"#utility.yul\":2812:2814   */\n      0x40\n        /* \"#utility.yul\":2805:2827   */\n      mstore\n        /* \"#utility.yul\":2595:2833   */\n      pop\n        /* \"#utility.yul\":2552:2833   */\n      pop\n      pop\n      jump\t// out\n        /* \"#utility.yul\":2839:2968   */\n    tag_148:\n        /* \"#utility.yul\":2873:2879   */\n      0x00\n        /* \"#utility.yul\":2900:2920   */\n      tag_233\n      tag_133\n      jump\t// in\n    tag_233:\n        /* \"#utility.yul\":2890:2920   */\n      swap1\n      pop\n        /* \"#utility.yul\":2929:2962   */\n      tag_234\n        /* \"#utility.yul\":2957:2961   */\n      dup3\n        /* \"#utility.yul\":2949:2955   */\n      dup3\n        /* \"#utility.yul\":2929:2962   */\n      tag_147\n      jump\t// in\n    tag_234:\n        /* \"#utility.yul\":2839:2968   */\n      swap2\n      swap1\n      pop\n      jump\t// out\n        /* \"#utility.yul\":2974:3282   */\n    tag_149:\n        /* \"#utility.yul\":3036:3040   */\n      0x00\n        /* \"#utility.yul\":3126:3144   */\n      0xffffffffffffffff\n        /* \"#utility.yul\":3118:3124   */\n      dup3\n        /* \"#utility.yul\":3115:3145   */\n      gt\n        /* \"#utility.yul\":3112:3168   */\n      iszero\n      tag_236\n      jumpi\n        /* \"#utility.yul\":3148:3166   */\n      tag_237\n      tag_146\n      jump\t// in\n    tag_237:\n        /* \"#utility.yul\":3112:3168   */\n    tag_236:\n        /* \"#utility.yul\":3186:3215   */\n      tag_238\n        /* \"#utility.yul\":3208:3214   */\n      dup3\n        /* \"#utility.yul\":3186:3215   */\n      tag_145\n      jump\t// in\n    tag_238:\n        /* \"#utility.yul\":3178:3215   */\n      swap1\n      pop\n        /* \"#utility.yul\":3270:3274   */\n      0x20\n        /* \"#utility.yul\":3264:3268   */\n      dup2\n        /* \"#utility.yul\":3260:3275   */\n      add\n        /* \"#utility.yul\":3252:3275   */\n      swap1\n      pop\n        /* \"#utility.yul\":2974:3282   */\n      swap2\n      swap1\n      pop\n      jump\t// out\n        /* \"#utility.yul\":3288:3436   */\n    tag_150:\n        /* \"#utility.yul\":3386:3392   */\n      dup3\n        /* \"#utility.yul\":3381:3384   */\n      dup2\n        /* \"#utility.yul\":3376:3379   */\n      dup4\n        /* \"#utility.yul\":3363:3393   */\n      calldatacopy\n        /* \"#utility.yul\":3427:3428   */\n      0x00\n        /* \"#utility.yul\":3418:3424   */\n      dup4\n        /* \"#utility.yul\":3413:3416   */\n      dup4\n        /* \"#utility.yul\":3409:3425   */\n      add\n        /* \"#utility.yul\":3402:3429   */\n      mstore\n        /* \"#utility.yul\":3288:3436   */\n      pop\n      pop\n      pop\n      jump\t// out\n        /* \"#utility.yul\":3442:3867   */\n    tag_151:\n        /* \"#utility.yul\":3520:3525   */\n      0x00\n        /* \"#utility.yul\":3545:3611   */\n      tag_241\n        /* \"#utility.yul\":3561:3610   */\n      tag_242\n        /* \"#utility.yul\":3603:3609   */\n      dup5\n        /* \"#utility.yul\":3561:3610   */\n      tag_149\n      jump\t// in\n    tag_242:\n        /* \"#utility.yul\":3545:3611   */\n      tag_148\n      jump\t// in\n    tag_241:\n        /* \"#utility.yul\":3536:3611   */\n      swap1\n      pop\n        /* \"#utility.yul\":3634:3640   */\n      dup3\n        /* \"#utility.yul\":3627:3632   */\n      dup2\n        /* \"#utility.yul\":3620:3641   */\n      mstore\n        /* \"#utility.yul\":3672:3676   */\n      0x20\n        /* \"#utility.yul\":3665:3670   */\n      dup2\n        /* \"#utility.yul\":3661:3677   */\n      add\n        /* \"#utility.yul\":3710:3713   */\n      dup5\n        /* \"#utility.yul\":3701:3707   */\n      dup5\n        /* \"#utility.yul\":3696:3699   */\n      dup5\n        /* \"#utility.yul\":3692:3708   */\n      add\n        /* \"#utility.yul\":3689:3714   */\n      gt\n        /* \"#utility.yul\":3686:3798   */\n      iszero\n      tag_243\n      jumpi\n        /* \"#utility.yul\":3717:3796   */\n      tag_244\n      tag_144\n      jump\t// in\n    tag_244:\n        /* \"#utility.yul\":3686:3798   */\n    tag_243:\n        /* \"#utility.yul\":3807:3861   */\n      tag_245\n        /* \"#utility.yul\":3854:3860   */\n      dup5\n        /* \"#utility.yul\":3849:3852   */\n      dup3\n        /* \"#utility.yul\":3844:3847   */\n      dup6\n        /* \"#utility.yul\":3807:3861   */\n      tag_150\n      jump\t// in\n    tag_245:\n        /* \"#utility.yul\":3526:3867   */\n      pop\n        /* \"#utility.yul\":3442:3867   */\n      swap4\n      swap3\n      pop\n      pop\n      pop\n      jump\t// out\n        /* \"#utility.yul\":3887:4227   */\n    tag_152:\n        /* \"#utility.yul\":3943:3948   */\n      0x00\n        /* \"#utility.yul\":3992:3995   */\n      dup3\n        /* \"#utility.yul\":3985:3989   */\n      0x1f\n        /* \"#utility.yul\":3977:3983   */\n      dup4\n        /* \"#utility.yul\":3973:3990   */\n      add\n        /* \"#utility.yul\":3969:3996   */\n      slt\n        /* \"#utility.yul\":3959:4081   */\n      tag_247\n      jumpi\n        /* \"#utility.yul\":4000:4079   */\n      tag_248\n      tag_143\n      jump\t// in\n    tag_248:\n        /* \"#utility.yul\":3959:4081   */\n    tag_247:\n        /* \"#utility.yul\":4117:4123   */\n      dup2\n        /* \"#utility.yul\":4104:4124   */\n      calldataload\n        /* \"#utility.yul\":4142:4221   */\n      tag_249\n        /* \"#utility.yul\":4217:4220   */\n      dup5\n        /* \"#utility.yul\":4209:4215   */\n      dup3\n        /* \"#utility.yul\":4202:4206   */\n      0x20\n        /* \"#utility.yul\":4194:4200   */\n      dup7\n        /* \"#utility.yul\":4190:4207   */\n      add\n        /* \"#utility.yul\":4142:4221   */\n      tag_151\n      jump\t// in\n    tag_249:\n        /* \"#utility.yul\":4133:4221   */\n      swap2\n      pop\n        /* \"#utility.yul\":3949:4227   */\n      pop\n        /* \"#utility.yul\":3887:4227   */\n      swap3\n      swap2\n      pop\n      pop\n      jump\t// out\n        /* \"#utility.yul\":4233:5032   */\n    tag_22:\n        /* \"#utility.yul\":4320:4326   */\n      0x00\n        /* \"#utility.yul\":4328:4334   */\n      dup1\n        /* \"#utility.yul\":4336:4342   */\n      0x00\n        /* \"#utility.yul\":4385:4387   */\n      0x60\n        /* \"#utility.yul\":4373:4382   */\n      dup5\n        /* \"#utility.yul\":4364:4371   */\n      dup7\n        /* \"#utility.yul\":4360:4383   */\n      sub\n        /* \"#utility.yul\":4356:4388   */\n      slt\n        /* \"#utility.yul\":4353:4472   */\n      iszero\n      tag_251\n      jumpi\n        /* \"#utility.yul\":4391:4470   */\n      tag_252\n      tag_134\n      jump\t// in\n    tag_252:\n        /* \"#utility.yul\":4353:4472   */\n    tag_251:\n        /* \"#utility.yul\":4511:4512   */\n      0x00\n        /* \"#utility.yul\":4536:4589   */\n      tag_253\n        /* \"#utility.yul\":4581:4588   */\n      dup7\n        /* \"#utility.yul\":4572:4578   */\n      dup3\n        /* \"#utility.yul\":4561:4570   */\n      dup8\n        /* \"#utility.yul\":4557:4579   */\n      add\n        /* \"#utility.yul\":4536:4589   */\n      tag_142\n      jump\t// in\n    tag_253:\n        /* \"#utility.yul\":4526:4589   */\n      swap4\n      pop\n        /* \"#utility.yul\":4482:4599   */\n      pop\n        /* \"#utility.yul\":4666:4668   */\n      0x20\n        /* \"#utility.yul\":4655:4664   */\n      dup5\n        /* \"#utility.yul\":4651:4669   */\n      add\n        /* \"#utility.yul\":4638:4670   */\n      calldataload\n        /* \"#utility.yul\":4697:4715   */\n      0xffffffffffffffff\n        /* \"#utility.yul\":4689:4695   */\n      dup2\n        /* \"#utility.yul\":4686:4716   */\n      gt\n        /* \"#utility.yul\":4683:4800   */\n      iszero\n      tag_254\n      jumpi\n        /* \"#utility.yul\":4719:4798   */\n      tag_255\n      tag_135\n      jump\t// in\n    tag_255:\n        /* \"#utility.yul\":4683:4800   */\n    tag_254:\n        /* \"#utility.yul\":4824:4887   */\n      tag_256\n        /* \"#utility.yul\":4879:4886   */\n      dup7\n        /* \"#utility.yul\":4870:4876   */\n      dup3\n        /* \"#utility.yul\":4859:4868   */\n      dup8\n        /* \"#utility.yul\":4855:4877   */\n      add\n        /* \"#utility.yul\":4824:4887   */\n      tag_152\n      jump\t// in\n    tag_256:\n        /* \"#utility.yul\":4814:4887   */\n      swap3\n      pop\n        /* \"#utility.yul\":4609:4897   */\n      pop\n        /* \"#utility.yul\":4936:4938   */\n      0x40\n        /* \"#utility.yul\":4962:5015   */\n      tag_257\n        /* \"#utility.yul\":5007:5014   */\n      dup7\n        /* \"#utility.yul\":4998:5004   */\n      dup3\n        /* \"#utility.yul\":4987:4996   */\n      dup8\n        /* \"#utility.yul\":4983:5005   */\n      add\n        /* \"#utility.yul\":4962:5015   */\n      tag_138\n      jump\t// in\n    tag_257:\n        /* \"#utility.yul\":4952:5015   */\n      swap2\n      pop\n        /* \"#utility.yul\":4907:5025   */\n      pop\n        /* \"#utility.yul\":4233:5032   */\n      swap3\n      pop\n      swap3\n      pop\n      swap3\n      jump\t// out\n        /* \"#utility.yul\":5038:5156   */\n    tag_153:\n        /* \"#utility.yul\":5125:5149   */\n      tag_259\n        /* \"#utility.yul\":5143:5148   */\n      dup2\n        /* \"#utility.yul\":5125:5149   */\n      tag_136\n      jump\t// in\n    tag_259:\n        /* \"#utility.yul\":5120:5123   */\n      dup3\n        /* \"#utility.yul\":5113:5150   */\n      mstore\n        /* \"#utility.yul\":5038:5156   */\n      pop\n      pop\n      jump\t// out\n        /* \"#utility.yul\":5162:5280   */\n    tag_154:\n        /* \"#utility.yul\":5249:5273   */\n      tag_261\n        /* \"#utility.yul\":5267:5272   */\n      dup2\n        /* \"#utility.yul\":5249:5273   */\n      tag_140\n      jump\t// in\n    tag_261:\n        /* \"#utility.yul\":5244:5247   */\n      dup3\n        /* \"#utility.yul\":5237:5274   */\n      mstore\n        /* \"#utility.yul\":5162:5280   */\n      pop\n      pop\n      jump\t// out\n        /* \"#utility.yul\":5286:5839   */\n    tag_28:\n        /* \"#utility.yul\":5463:5467   */\n      0x00\n        /* \"#utility.yul\":5501:5504   */\n      0x80\n        /* \"#utility.yul\":5490:5499   */\n      dup3\n        /* \"#utility.yul\":5486:5505   */\n      add\n        /* \"#utility.yul\":5478:5505   */\n      swap1\n      pop\n        /* \"#utility.yul\":5515:5586   */\n      tag_263\n        /* \"#utility.yul\":5583:5584   */\n      0x00\n        /* \"#utility.yul\":5572:5581   */\n      dup4\n        /* \"#utility.yul\":5568:5585   */\n      add\n        /* \"#utility.yul\":5559:5565   */\n      dup8\n        /* \"#utility.yul\":5515:5586   */\n      tag_153\n      jump\t// in\n    tag_263:\n        /* \"#utility.yul\":5596:5668   */\n      tag_264\n        /* \"#utility.yul\":5664:5666   */\n      0x20\n        /* \"#utility.yul\":5653:5662   */\n      dup4\n        /* \"#utility.yul\":5649:5667   */\n      add\n        /* \"#utility.yul\":5640:5646   */\n      dup7\n        /* \"#utility.yul\":5596:5668   */\n      tag_154\n      jump\t// in\n    tag_264:\n        /* \"#utility.yul\":5678:5750   */\n      tag_265\n        /* \"#utility.yul\":5746:5748   */\n      0x40\n        /* \"#utility.yul\":5735:5744   */\n      dup4\n        /* \"#utility.yul\":5731:5749   */\n      add\n        /* \"#utility.yul\":5722:5728   */\n      dup6\n        /* \"#utility.yul\":5678:5750   */\n      tag_154\n      jump\t// in\n    tag_265:\n        /* \"#utility.yul\":5760:5832   */\n      tag_266\n        /* \"#utility.yul\":5828:5830   */\n      0x60\n        /* \"#utility.yul\":5817:5826   */\n      dup4\n        /* \"#utility.yul\":5813:5831   */\n      add\n        /* \"#utility.yul\":5804:5810   */\n      dup5\n        /* \"#utility.yul\":5760:5832   */\n      tag_153\n      jump\t// in\n    tag_266:\n        /* \"#utility.yul\":5286:5839   */\n      swap6\n      swap5\n      pop\n      pop\n      pop\n      pop\n      pop\n      jump\t// out\n        /* \"#utility.yul\":5845:5944   */\n    tag_155:\n        /* \"#utility.yul\":5897:5903   */\n      0x00\n        /* \"#utility.yul\":5931:5936   */\n      dup2\n        /* \"#utility.yul\":5925:5937   */\n      mload\n        /* \"#utility.yul\":5915:5937   */\n      swap1\n      pop\n        /* \"#utility.yul\":5845:5944   */\n      swap2\n      swap1\n      pop\n      jump\t// out\n        /* \"#utility.yul\":5950:6119   */\n    tag_156:\n        /* \"#utility.yul\":6034:6045   */\n      0x00\n        /* \"#utility.yul\":6068:6074   */\n      dup3\n        /* \"#utility.yul\":6063:6066   */\n      dup3\n        /* \"#utility.yul\":6056:6075   */\n      mstore\n        /* \"#utility.yul\":6108:6112   */\n      0x20\n        /* \"#utility.yul\":6103:6106   */\n      dup3\n        /* \"#utility.yul\":6099:6113   */\n      add\n        /* \"#utility.yul\":6084:6113   */\n      swap1\n      pop\n        /* \"#utility.yul\":5950:6119   */\n      swap3\n      swap2\n      pop\n      pop\n      jump\t// out\n        /* \"#utility.yul\":6125:6264   */\n    tag_157:\n        /* \"#utility.yul\":6214:6220   */\n      dup3\n        /* \"#utility.yul\":6209:6212   */\n      dup2\n        /* \"#utility.yul\":6204:6207   */\n      dup4\n        /* \"#utility.yul\":6198:6221   */\n      mcopy\n        /* \"#utility.yul\":6255:6256   */\n      0x00\n        /* \"#utility.yul\":6246:6252   */\n      dup4\n        /* \"#utility.yul\":6241:6244   */\n      dup4\n        /* \"#utility.yul\":6237:6253   */\n      add\n        /* \"#utility.yul\":6230:6257   */\n      mstore\n        /* \"#utility.yul\":6125:6264   */\n      pop\n      pop\n      pop\n      jump\t// out\n        /* \"#utility.yul\":6270:6647   */\n    tag_158:\n        /* \"#utility.yul\":6358:6361   */\n      0x00\n        /* \"#utility.yul\":6386:6425   */\n      tag_271\n        /* \"#utility.yul\":6419:6424   */\n      dup3\n        /* \"#utility.yul\":6386:6425   */\n      tag_155\n      jump\t// in\n    tag_271:\n        /* \"#utility.yul\":6441:6512   */\n      tag_272\n        /* \"#utility.yul\":6505:6511   */\n      dup2\n        /* \"#utility.yul\":6500:6503   */\n      dup6\n        /* \"#utility.yul\":6441:6512   */\n      tag_156\n      jump\t// in\n    tag_272:\n        /* \"#utility.yul\":6434:6512   */\n      swap4\n      pop\n        /* \"#utility.yul\":6521:6586   */\n      tag_273\n        /* \"#utility.yul\":6579:6585   */\n      dup2\n        /* \"#utility.yul\":6574:6577   */\n      dup6\n        /* \"#utility.yul\":6567:6571   */\n      0x20\n        /* \"#utility.yul\":6560:6565   */\n      dup7\n        /* \"#utility.yul\":6556:6572   */\n      add\n        /* \"#utility.yul\":6521:6586   */\n      tag_157\n      jump\t// in\n    tag_273:\n        /* \"#utility.yul\":6611:6640   */\n      tag_274\n        /* \"#utility.yul\":6633:6639   */\n      dup2\n        /* \"#utility.yul\":6611:6640   */\n      tag_145\n      jump\t// in\n    tag_274:\n        /* \"#utility.yul\":6606:6609   */\n      dup5\n        /* \"#utility.yul\":6602:6641   */\n      add\n        /* \"#utility.yul\":6595:6641   */\n      swap2\n      pop\n        /* \"#utility.yul\":6362:6647   */\n      pop\n        /* \"#utility.yul\":6270:6647   */\n      swap3\n      swap2\n      pop\n      pop\n      jump\t// out\n        /* \"#utility.yul\":6653:6743   */\n    tag_159:\n        /* \"#utility.yul\":6687:6694   */\n      0x00\n        /* \"#utility.yul\":6730:6735   */\n      dup2\n        /* \"#utility.yul\":6723:6736   */\n      iszero\n        /* \"#utility.yul\":6716:6737   */\n      iszero\n        /* \"#utility.yul\":6705:6737   */\n      swap1\n      pop\n        /* \"#utility.yul\":6653:6743   */\n      swap2\n      swap1\n      pop\n      jump\t// out\n        /* \"#utility.yul\":6749:6858   */\n    tag_160:\n        /* \"#utility.yul\":6830:6851   */\n      tag_277\n        /* \"#utility.yul\":6845:6850   */\n      dup2\n        /* \"#utility.yul\":6830:6851   */\n      tag_159\n      jump\t// in\n    tag_277:\n        /* \"#utility.yul\":6825:6828   */\n      dup3\n        /* \"#utility.yul\":6818:6852   */\n      mstore\n        /* \"#utility.yul\":6749:6858   */\n      pop\n      pop\n      jump\t// out\n        /* \"#utility.yul\":6864:7595   */\n    tag_33:\n        /* \"#utility.yul\":7077:7081   */\n      0x00\n        /* \"#utility.yul\":7115:7118   */\n      0xa0\n        /* \"#utility.yul\":7104:7113   */\n      dup3\n        /* \"#utility.yul\":7100:7119   */\n      add\n        /* \"#utility.yul\":7092:7119   */\n      swap1\n      pop\n        /* \"#utility.yul\":7129:7200   */\n      tag_279\n        /* \"#utility.yul\":7197:7198   */\n      0x00\n        /* \"#utility.yul\":7186:7195   */\n      dup4\n        /* \"#utility.yul\":7182:7199   */\n      add\n        /* \"#utility.yul\":7173:7179   */\n      dup9\n        /* \"#utility.yul\":7129:7200   */\n      tag_154\n      jump\t// in\n    tag_279:\n        /* \"#utility.yul\":7247:7256   */\n      dup2\n        /* \"#utility.yul\":7241:7245   */\n      dup2\n        /* \"#utility.yul\":7237:7257   */\n      sub\n        /* \"#utility.yul\":7232:7234   */\n      0x20\n        /* \"#utility.yul\":7221:7230   */\n      dup4\n        /* \"#utility.yul\":7217:7235   */\n      add\n        /* \"#utility.yul\":7210:7258   */\n      mstore\n        /* \"#utility.yul\":7275:7353   */\n      tag_280\n        /* \"#utility.yul\":7348:7352   */\n      dup2\n        /* \"#utility.yul\":7339:7345   */\n      dup8\n        /* \"#utility.yul\":7275:7353   */\n      tag_158\n      jump\t// in\n    tag_280:\n        /* \"#utility.yul\":7267:7353   */\n      swap1\n      pop\n        /* \"#utility.yul\":7363:7435   */\n      tag_281\n        /* \"#utility.yul\":7431:7433   */\n      0x40\n        /* \"#utility.yul\":7420:7429   */\n      dup4\n        /* \"#utility.yul\":7416:7434   */\n      add\n        /* \"#utility.yul\":7407:7413   */\n      dup7\n        /* \"#utility.yul\":7363:7435   */\n      tag_153\n      jump\t// in\n    tag_281:\n        /* \"#utility.yul\":7445:7511   */\n      tag_282\n        /* \"#utility.yul\":7507:7509   */\n      0x60\n        /* \"#utility.yul\":7496:7505   */\n      dup4\n        /* \"#utility.yul\":7492:7510   */\n      add\n        /* \"#utility.yul\":7483:7489   */\n      dup6\n        /* \"#utility.yul\":7445:7511   */\n      tag_160\n      jump\t// in\n    tag_282:\n        /* \"#utility.yul\":7521:7588   */\n      tag_283\n        /* \"#utility.yul\":7583:7586   */\n      0x80\n        /* \"#utility.yul\":7572:7581   */\n      dup4\n        /* \"#utility.yul\":7568:7587   */\n      add\n        /* \"#utility.yul\":7559:7565   */\n      dup5\n        /* \"#utility.yul\":7521:7588   */\n      tag_160\n      jump\t// in\n    tag_283:\n        /* \"#utility.yul\":6864:7595   */\n      swap7\n      swap6\n      pop\n      pop\n      pop\n      pop\n      pop\n      pop\n      jump\t// out\n        /* \"#utility.yul\":7601:7761   */\n    tag_161:\n        /* \"#utility.yul\":7741:7753   */\n      0x41646d696e206f6e6c7900000000000000000000000000000000000000000000\n        /* \"#utility.yul\":7737:7738   */\n      0x00\n        /* \"#utility.yul\":7729:7735   */\n      dup3\n        /* \"#utility.yul\":7725:7739   */\n      add\n        /* \"#utility.yul\":7718:7754   */\n      mstore\n        /* \"#utility.yul\":7601:7761   */\n      pop\n      jump\t// out\n        /* \"#utility.yul\":7767:8133   */\n    tag_162:\n        /* \"#utility.yul\":7909:7912   */\n      0x00\n        /* \"#utility.yul\":7930:7997   */\n      tag_286\n        /* \"#utility.yul\":7994:7996   */\n      0x0a\n        /* \"#utility.yul\":7989:7992   */\n      dup4\n        /* \"#utility.yul\":7930:7997   */\n      tag_156\n      jump\t// in\n    tag_286:\n        /* \"#utility.yul\":7923:7997   */\n      swap2\n      pop\n        /* \"#utility.yul\":8006:8099   */\n      tag_287\n        /* \"#utility.yul\":8095:8098   */\n      dup3\n        /* \"#utility.yul\":8006:8099   */\n      tag_161\n      jump\t// in\n    tag_287:\n        /* \"#utility.yul\":8124:8126   */\n      0x20\n        /* \"#utility.yul\":8119:8122   */\n      dup3\n        /* \"#utility.yul\":8115:8127   */\n      add\n        /* \"#utility.yul\":8108:8127   */\n      swap1\n      pop\n        /* \"#utility.yul\":7767:8133   */\n      swap2\n      swap1\n      pop\n      jump\t// out\n        /* \"#utility.yul\":8139:8558   */\n    tag_37:\n        /* \"#utility.yul\":8305:8309   */\n      0x00\n        /* \"#utility.yul\":8343:8345   */\n      0x20\n        /* \"#utility.yul\":8332:8341   */\n      dup3\n        /* \"#utility.yul\":8328:8346   */\n      add\n        /* \"#utility.yul\":8320:8346   */\n      swap1\n      pop\n        /* \"#utility.yul\":8392:8401   */\n      dup2\n        /* \"#utility.yul\":8386:8390   */\n      dup2\n        /* \"#utility.yul\":8382:8402   */\n      sub\n        /* \"#utility.yul\":8378:8379   */\n      0x00\n        /* \"#utility.yul\":8367:8376   */\n      dup4\n        /* \"#utility.yul\":8363:8380   */\n      add\n        /* \"#utility.yul\":8356:8403   */\n      mstore\n        /* \"#utility.yul\":8420:8551   */\n      tag_289\n        /* \"#utility.yul\":8546:8550   */\n      dup2\n        /* \"#utility.yul\":8420:8551   */\n      tag_162\n      jump\t// in\n    tag_289:\n        /* \"#utility.yul\":8412:8551   */\n      swap1\n      pop\n        /* \"#utility.yul\":8139:8558   */\n      swap2\n      swap1\n      pop\n      jump\t// out\n        /* \"#utility.yul\":8564:8744   */\n    tag_41:\n        /* \"#utility.yul\":8612:8689   */\n      0x4e487b7100000000000000000000000000000000000000000000000000000000\n        /* \"#utility.yul\":8609:8610   */\n      0x00\n        /* \"#utility.yul\":8602:8690   */\n      mstore\n        /* \"#utility.yul\":8709:8713   */\n      0x32\n        /* \"#utility.yul\":8706:8707   */\n      0x04\n        /* \"#utility.yul\":8699:8714   */\n      mstore\n        /* \"#utility.yul\":8733:8737   */\n      0x24\n        /* \"#utility.yul\":8730:8731   */\n      0x00\n        /* \"#utility.yul\":8723:8738   */\n      revert\n        /* \"#utility.yul\":8750:8916   */\n    tag_163:\n        /* \"#utility.yul\":8890:8908   */\n      0x416c726561647920756e62616e6e656400000000000000000000000000000000\n        /* \"#utility.yul\":8886:8887   */\n      0x00\n        /* \"#utility.yul\":8878:8884   */\n      dup3\n        /* \"#utility.yul\":8874:8888   */\n      add\n        /* \"#utility.yul\":8867:8909   */\n      mstore\n        /* \"#utility.yul\":8750:8916   */\n      pop\n      jump\t// out\n        /* \"#utility.yul\":8922:9288   */\n    tag_164:\n        /* \"#utility.yul\":9064:9067   */\n      0x00\n        /* \"#utility.yul\":9085:9152   */\n      tag_293\n        /* \"#utility.yul\":9149:9151   */\n      0x10\n        /* \"#utility.yul\":9144:9147   */\n      dup4\n        /* \"#utility.yul\":9085:9152   */\n      tag_156\n      jump\t// in\n    tag_293:\n        /* \"#utility.yul\":9078:9152   */\n      swap2\n      pop\n        /* \"#utility.yul\":9161:9254   */\n      tag_294\n        /* \"#utility.yul\":9250:9253   */\n      dup3\n        /* \"#utility.yul\":9161:9254   */\n      tag_163\n      jump\t// in\n    tag_294:\n        /* \"#utility.yul\":9279:9281   */\n      0x20\n        /* \"#utility.yul\":9274:9277   */\n      dup3\n        /* \"#utility.yul\":9270:9282   */\n      add\n        /* \"#utility.yul\":9263:9282   */\n      swap1\n      pop\n        /* \"#utility.yul\":8922:9288   */\n      swap2\n      swap1\n      pop\n      jump\t// out\n        /* \"#utility.yul\":9294:9713   */\n    tag_45:\n        /* \"#utility.yul\":9460:9464   */\n      0x00\n        /* \"#utility.yul\":9498:9500   */\n      0x20\n        /* \"#utility.yul\":9487:9496   */\n      dup3\n        /* \"#utility.yul\":9483:9501   */\n      add\n        /* \"#utility.yul\":9475:9501   */\n      swap1\n      pop\n        /* \"#utility.yul\":9547:9556   */\n      dup2\n        /* \"#utility.yul\":9541:9545   */\n      dup2\n        /* \"#utility.yul\":9537:9557   */\n      sub\n        /* \"#utility.yul\":9533:9534   */\n      0x00\n        /* \"#utility.yul\":9522:9531   */\n      dup4\n        /* \"#utility.yul\":9518:9535   */\n      add\n        /* \"#utility.yul\":9511:9558   */\n      mstore\n        /* \"#utility.yul\":9575:9706   */\n      tag_296\n        /* \"#utility.yul\":9701:9705   */\n      dup2\n        /* \"#utility.yul\":9575:9706   */\n      tag_164\n      jump\t// in\n    tag_296:\n        /* \"#utility.yul\":9567:9706   */\n      swap1\n      pop\n        /* \"#utility.yul\":9294:9713   */\n      swap2\n      swap1\n      pop\n      jump\t// out\n        /* \"#utility.yul\":9719:9885   */\n    tag_165:\n        /* \"#utility.yul\":9859:9877   */\n      0x496e76616c696420657374617465494400000000000000000000000000000000\n        /* \"#utility.yul\":9855:9856   */\n      0x00\n        /* \"#utility.yul\":9847:9853   */\n      dup3\n        /* \"#utility.yul\":9843:9857   */\n      add\n        /* \"#utility.yul\":9836:9878   */\n      mstore\n        /* \"#utility.yul\":9719:9885   */\n      pop\n      jump\t// out\n        /* \"#utility.yul\":9891:10257   */\n    tag_166:\n        /* \"#utility.yul\":10033:10036   */\n      0x00\n        /* \"#utility.yul\":10054:10121   */\n      tag_299\n        /* \"#utility.yul\":10118:10120   */\n      0x10\n        /* \"#utility.yul\":10113:10116   */\n      dup4\n        /* \"#utility.yul\":10054:10121   */\n      tag_156\n      jump\t// in\n    tag_299:\n        /* \"#utility.yul\":10047:10121   */\n      swap2\n      pop\n        /* \"#utility.yul\":10130:10223   */\n      tag_300\n        /* \"#utility.yul\":10219:10222   */\n      dup3\n        /* \"#utility.yul\":10130:10223   */\n      tag_165\n      jump\t// in\n    tag_300:\n        /* \"#utility.yul\":10248:10250   */\n      0x20\n        /* \"#utility.yul\":10243:10246   */\n      dup3\n        /* \"#utility.yul\":10239:10251   */\n      add\n        /* \"#utility.yul\":10232:10251   */\n      swap1\n      pop\n        /* \"#utility.yul\":9891:10257   */\n      swap2\n      swap1\n      pop\n      jump\t// out\n        /* \"#utility.yul\":10263:10682   */\n    tag_52:\n        /* \"#utility.yul\":10429:10433   */\n      0x00\n        /* \"#utility.yul\":10467:10469   */\n      0x20\n        /* \"#utility.yul\":10456:10465   */\n      dup3\n        /* \"#utility.yul\":10452:10470   */\n      add\n        /* \"#utility.yul\":10444:10470   */\n      swap1\n      pop\n        /* \"#utility.yul\":10516:10525   */\n      dup2\n        /* \"#utility.yul\":10510:10514   */\n      dup2\n        /* \"#utility.yul\":10506:10526   */\n      sub\n        /* \"#utility.yul\":10502:10503   */\n      0x00\n        /* \"#utility.yul\":10491:10500   */\n      dup4\n        /* \"#utility.yul\":10487:10504   */\n      add\n        /* \"#utility.yul\":10480:10527   */\n      mstore\n        /* \"#utility.yul\":10544:10675   */\n      tag_302\n        /* \"#utility.yul\":10670:10674   */\n      dup2\n        /* \"#utility.yul\":10544:10675   */\n      tag_166\n      jump\t// in\n    tag_302:\n        /* \"#utility.yul\":10536:10675   */\n      swap1\n      pop\n        /* \"#utility.yul\":10263:10682   */\n      swap2\n      swap1\n      pop\n      jump\t// out\n        /* \"#utility.yul\":10688:10848   */\n    tag_167:\n        /* \"#utility.yul\":10828:10840   */\n      0x4f776e6572206f6e6c7900000000000000000000000000000000000000000000\n        /* \"#utility.yul\":10824:10825   */\n      0x00\n        /* \"#utility.yul\":10816:10822   */\n      dup3\n        /* \"#utility.yul\":10812:10826   */\n      add\n        /* \"#utility.yul\":10805:10841   */\n      mstore\n        /* \"#utility.yul\":10688:10848   */\n      pop\n      jump\t// out\n        /* \"#utility.yul\":10854:11220   */\n    tag_168:\n        /* \"#utility.yul\":10996:10999   */\n      0x00\n        /* \"#utility.yul\":11017:11084   */\n      tag_305\n        /* \"#utility.yul\":11081:11083   */\n      0x0a\n        /* \"#utility.yul\":11076:11079   */\n      dup4\n        /* \"#utility.yul\":11017:11084   */\n      tag_156\n      jump\t// in\n    tag_305:\n        /* \"#utility.yul\":11010:11084   */\n      swap2\n      pop\n        /* \"#utility.yul\":11093:11186   */\n      tag_306\n        /* \"#utility.yul\":11182:11185   */\n      dup3\n        /* \"#utility.yul\":11093:11186   */\n      tag_167\n      jump\t// in\n    tag_306:\n        /* \"#utility.yul\":11211:11213   */\n      0x20\n        /* \"#utility.yul\":11206:11209   */\n      dup3\n        /* \"#utility.yul\":11202:11214   */\n      add\n        /* \"#utility.yul\":11195:11214   */\n      swap1\n      pop\n        /* \"#utility.yul\":10854:11220   */\n      swap2\n      swap1\n      pop\n      jump\t// out\n        /* \"#utility.yul\":11226:11645   */\n    tag_58:\n        /* \"#utility.yul\":11392:11396   */\n      0x00\n        /* \"#utility.yul\":11430:11432   */\n      0x20\n        /* \"#utility.yul\":11419:11428   */\n      dup3\n        /* \"#utility.yul\":11415:11433   */\n      add\n        /* \"#utility.yul\":11407:11433   */\n      swap1\n      pop\n        /* \"#utility.yul\":11479:11488   */\n      dup2\n        /* \"#utility.yul\":11473:11477   */\n      dup2\n        /* \"#utility.yul\":11469:11489   */\n      sub\n        /* \"#utility.yul\":11465:11466   */\n      0x00\n        /* \"#utility.yul\":11454:11463   */\n      dup4\n        /* \"#utility.yul\":11450:11467   */\n      add\n        /* \"#utility.yul\":11443:11490   */\n      mstore\n        /* \"#utility.yul\":11507:11638   */\n      tag_308\n        /* \"#utility.yul\":11633:11637   */\n      dup2\n        /* \"#utility.yul\":11507:11638   */\n      tag_168\n      jump\t// in\n    tag_308:\n        /* \"#utility.yul\":11499:11638   */\n      swap1\n      pop\n        /* \"#utility.yul\":11226:11645   */\n      swap2\n      swap1\n      pop\n      jump\t// out\n        /* \"#utility.yul\":11651:11817   */\n    tag_169:\n        /* \"#utility.yul\":11791:11809   */\n      0x507269636520697320746f6f206c6f7700000000000000000000000000000000\n        /* \"#utility.yul\":11787:11788   */\n      0x00\n        /* \"#utility.yul\":11779:11785   */\n      dup3\n        /* \"#utility.yul\":11775:11789   */\n      add\n        /* \"#utility.yul\":11768:11810   */\n      mstore\n        /* \"#utility.yul\":11651:11817   */\n      pop\n      jump\t// out\n        /* \"#utility.yul\":11823:12189   */\n    tag_170:\n        /* \"#utility.yul\":11965:11968   */\n      0x00\n        /* \"#utility.yul\":11986:12053   */\n      tag_311\n        /* \"#utility.yul\":12050:12052   */\n      0x10\n        /* \"#utility.yul\":12045:12048   */\n      dup4\n        /* \"#utility.yul\":11986:12053   */\n      tag_156\n      jump\t// in\n    tag_311:\n        /* \"#utility.yul\":11979:12053   */\n      swap2\n      pop\n        /* \"#utility.yul\":12062:12155   */\n      tag_312\n        /* \"#utility.yul\":12151:12154   */\n      dup3\n        /* \"#utility.yul\":12062:12155   */\n      tag_169\n      jump\t// in\n    tag_312:\n        /* \"#utility.yul\":12180:12182   */\n      0x20\n        /* \"#utility.yul\":12175:12178   */\n      dup3\n        /* \"#utility.yul\":12171:12183   */\n      add\n        /* \"#utility.yul\":12164:12183   */\n      swap1\n      pop\n        /* \"#utility.yul\":11823:12189   */\n      swap2\n      swap1\n      pop\n      jump\t// out\n        /* \"#utility.yul\":12195:12614   */\n    tag_62:\n        /* \"#utility.yul\":12361:12365   */\n      0x00\n        /* \"#utility.yul\":12399:12401   */\n      0x20\n        /* \"#utility.yul\":12388:12397   */\n      dup3\n        /* \"#utility.yul\":12384:12402   */\n      add\n        /* \"#utility.yul\":12376:12402   */\n      swap1\n      pop\n        /* \"#utility.yul\":12448:12457   */\n      dup2\n        /* \"#utility.yul\":12442:12446   */\n      dup2\n        /* \"#utility.yul\":12438:12458   */\n      sub\n        /* \"#utility.yul\":12434:12435   */\n      0x00\n        /* \"#utility.yul\":12423:12432   */\n      dup4\n        /* \"#utility.yul\":12419:12436   */\n      add\n        /* \"#utility.yul\":12412:12459   */\n      mstore\n        /* \"#utility.yul\":12476:12607   */\n      tag_314\n        /* \"#utility.yul\":12602:12606   */\n      dup2\n        /* \"#utility.yul\":12476:12607   */\n      tag_170\n      jump\t// in\n    tag_314:\n        /* \"#utility.yul\":12468:12607   */\n      swap1\n      pop\n        /* \"#utility.yul\":12195:12614   */\n      swap2\n      swap1\n      pop\n      jump\t// out\n        /* \"#utility.yul\":12620:12786   */\n    tag_171:\n        /* \"#utility.yul\":12760:12778   */\n      0x4573746174652069732062616e6e656400000000000000000000000000000000\n        /* \"#utility.yul\":12756:12757   */\n      0x00\n        /* \"#utility.yul\":12748:12754   */\n      dup3\n        /* \"#utility.yul\":12744:12758   */\n      add\n        /* \"#utility.yul\":12737:12779   */\n      mstore\n        /* \"#utility.yul\":12620:12786   */\n      pop\n      jump\t// out\n        /* \"#utility.yul\":12792:13158   */\n    tag_172:\n        /* \"#utility.yul\":12934:12937   */\n      0x00\n        /* \"#utility.yul\":12955:13022   */\n      tag_317\n        /* \"#utility.yul\":13019:13021   */\n      0x10\n        /* \"#utility.yul\":13014:13017   */\n      dup4\n        /* \"#utility.yul\":12955:13022   */\n      tag_156\n      jump\t// in\n    tag_317:\n        /* \"#utility.yul\":12948:13022   */\n      swap2\n      pop\n        /* \"#utility.yul\":13031:13124   */\n      tag_318\n        /* \"#utility.yul\":13120:13123   */\n      dup3\n        /* \"#utility.yul\":13031:13124   */\n      tag_171\n      jump\t// in\n    tag_318:\n        /* \"#utility.yul\":13149:13151   */\n      0x20\n        /* \"#utility.yul\":13144:13147   */\n      dup3\n        /* \"#utility.yul\":13140:13152   */\n      add\n        /* \"#utility.yul\":13133:13152   */\n      swap1\n      pop\n        /* \"#utility.yul\":12792:13158   */\n      swap2\n      swap1\n      pop\n      jump\t// out\n        /* \"#utility.yul\":13164:13583   */\n    tag_68:\n        /* \"#utility.yul\":13330:13334   */\n      0x00\n        /* \"#utility.yul\":13368:13370   */\n      0x20\n        /* \"#utility.yul\":13357:13366   */\n      dup3\n        /* \"#utility.yul\":13353:13371   */\n      add\n        /* \"#utility.yul\":13345:13371   */\n      swap1\n      pop\n        /* \"#utility.yul\":13417:13426   */\n      dup2\n        /* \"#utility.yul\":13411:13415   */\n      dup2\n        /* \"#utility.yul\":13407:13427   */\n      sub\n        /* \"#utility.yul\":13403:13404   */\n      0x00\n        /* \"#utility.yul\":13392:13401   */\n      dup4\n        /* \"#utility.yul\":13388:13405   */\n      add\n        /* \"#utility.yul\":13381:13428   */\n      mstore\n        /* \"#utility.yul\":13445:13576   */\n      tag_320\n        /* \"#utility.yul\":13571:13575   */\n      dup2\n        /* \"#utility.yul\":13445:13576   */\n      tag_172\n      jump\t// in\n    tag_320:\n        /* \"#utility.yul\":13437:13576   */\n      swap1\n      pop\n        /* \"#utility.yul\":13164:13583   */\n      swap2\n      swap1\n      pop\n      jump\t// out\n        /* \"#utility.yul\":13589:13754   */\n    tag_173:\n        /* \"#utility.yul\":13729:13746   */\n      0x416c7265616479206f6e2073616c650000000000000000000000000000000000\n        /* \"#utility.yul\":13725:13726   */\n      0x00\n        /* \"#utility.yul\":13717:13723   */\n      dup3\n        /* \"#utility.yul\":13713:13727   */\n      add\n        /* \"#utility.yul\":13706:13747   */\n      mstore\n        /* \"#utility.yul\":13589:13754   */\n      pop\n      jump\t// out\n        /* \"#utility.yul\":13760:14126   */\n    tag_174:\n        /* \"#utility.yul\":13902:13905   */\n      0x00\n        /* \"#utility.yul\":13923:13990   */\n      tag_323\n        /* \"#utility.yul\":13987:13989   */\n      0x0f\n        /* \"#utility.yul\":13982:13985   */\n      dup4\n        /* \"#utility.yul\":13923:13990   */\n      tag_156\n      jump\t// in\n    tag_323:\n        /* \"#utility.yul\":13916:13990   */\n      swap2\n      pop\n        /* \"#utility.yul\":13999:14092   */\n      tag_324\n        /* \"#utility.yul\":14088:14091   */\n      dup3\n        /* \"#utility.yul\":13999:14092   */\n      tag_173\n      jump\t// in\n    tag_324:\n        /* \"#utility.yul\":14117:14119   */\n      0x20\n        /* \"#utility.yul\":14112:14115   */\n      dup3\n        /* \"#utility.yul\":14108:14120   */\n      add\n        /* \"#utility.yul\":14101:14120   */\n      swap1\n      pop\n        /* \"#utility.yul\":13760:14126   */\n      swap2\n      swap1\n      pop\n      jump\t// out\n        /* \"#utility.yul\":14132:14551   */\n    tag_74:\n        /* \"#utility.yul\":14298:14302   */\n      0x00\n        /* \"#utility.yul\":14336:14338   */\n      0x20\n        /* \"#utility.yul\":14325:14334   */\n      dup3\n        /* \"#utility.yul\":14321:14339   */\n      add\n        /* \"#utility.yul\":14313:14339   */\n      swap1\n      pop\n        /* \"#utility.yul\":14385:14394   */\n      dup2\n        /* \"#utility.yul\":14379:14383   */\n      dup2\n        /* \"#utility.yul\":14375:14395   */\n      sub\n        /* \"#utility.yul\":14371:14372   */\n      0x00\n        /* \"#utility.yul\":14360:14369   */\n      dup4\n        /* \"#utility.yul\":14356:14373   */\n      add\n        /* \"#utility.yul\":14349:14396   */\n      mstore\n        /* \"#utility.yul\":14413:14544   */\n      tag_326\n        /* \"#utility.yul\":14539:14543   */\n      dup2\n        /* \"#utility.yul\":14413:14544   */\n      tag_174\n      jump\t// in\n    tag_326:\n        /* \"#utility.yul\":14405:14544   */\n      swap1\n      pop\n        /* \"#utility.yul\":14132:14551   */\n      swap2\n      swap1\n      pop\n      jump\t// out\n        /* \"#utility.yul\":14557:14721   */\n    tag_175:\n        /* \"#utility.yul\":14697:14713   */\n      0x416c72656164792062616e6e6564000000000000000000000000000000000000\n        /* \"#utility.yul\":14693:14694   */\n      0x00\n        /* \"#utility.yul\":14685:14691   */\n      dup3\n        /* \"#utility.yul\":14681:14695   */\n      add\n        /* \"#utility.yul\":14674:14714   */\n      mstore\n        /* \"#utility.yul\":14557:14721   */\n      pop\n      jump\t// out\n        /* \"#utility.yul\":14727:15093   */\n    tag_176:\n        /* \"#utility.yul\":14869:14872   */\n      0x00\n        /* \"#utility.yul\":14890:14957   */\n      tag_329\n        /* \"#utility.yul\":14954:14956   */\n      0x0e\n        /* \"#utility.yul\":14949:14952   */\n      dup4\n        /* \"#utility.yul\":14890:14957   */\n      tag_156\n      jump\t// in\n    tag_329:\n        /* \"#utility.yul\":14883:14957   */\n      swap2\n      pop\n        /* \"#utility.yul\":14966:15059   */\n      tag_330\n        /* \"#utility.yul\":15055:15058   */\n      dup3\n        /* \"#utility.yul\":14966:15059   */\n      tag_175\n      jump\t// in\n    tag_330:\n        /* \"#utility.yul\":15084:15086   */\n      0x20\n        /* \"#utility.yul\":15079:15082   */\n      dup3\n        /* \"#utility.yul\":15075:15087   */\n      add\n        /* \"#utility.yul\":15068:15087   */\n      swap1\n      pop\n        /* \"#utility.yul\":14727:15093   */\n      swap2\n      swap1\n      pop\n      jump\t// out\n        /* \"#utility.yul\":15099:15518   */\n    tag_95:\n        /* \"#utility.yul\":15265:15269   */\n      0x00\n        /* \"#utility.yul\":15303:15305   */\n      0x20\n        /* \"#utility.yul\":15292:15301   */\n      dup3\n        /* \"#utility.yul\":15288:15306   */\n      add\n        /* \"#utility.yul\":15280:15306   */\n      swap1\n      pop\n        /* \"#utility.yul\":15352:15361   */\n      dup2\n        /* \"#utility.yul\":15346:15350   */\n      dup2\n        /* \"#utility.yul\":15342:15362   */\n      sub\n        /* \"#utility.yul\":15338:15339   */\n      0x00\n        /* \"#utility.yul\":15327:15336   */\n      dup4\n        /* \"#utility.yul\":15323:15340   */\n      add\n        /* \"#utility.yul\":15316:15363   */\n      mstore\n        /* \"#utility.yul\":15380:15511   */\n      tag_332\n        /* \"#utility.yul\":15506:15510   */\n      dup2\n        /* \"#utility.yul\":15380:15511   */\n      tag_176\n      jump\t// in\n    tag_332:\n        /* \"#utility.yul\":15372:15511   */\n      swap1\n      pop\n        /* \"#utility.yul\":15099:15518   */\n      swap2\n      swap1\n      pop\n      jump\t// out\n        /* \"#utility.yul\":15524:15689   */\n    tag_177:\n        /* \"#utility.yul\":15664:15681   */\n      0x496e76616c696420616464726573730000000000000000000000000000000000\n        /* \"#utility.yul\":15660:15661   */\n      0x00\n        /* \"#utility.yul\":15652:15658   */\n      dup3\n        /* \"#utility.yul\":15648:15662   */\n      add\n        /* \"#utility.yul\":15641:15682   */\n      mstore\n        /* \"#utility.yul\":15524:15689   */\n      pop\n      jump\t// out\n        /* \"#utility.yul\":15695:16061   */\n    tag_178:\n        /* \"#utility.yul\":15837:15840   */\n      0x00\n        /* \"#utility.yul\":15858:15925   */\n      tag_335\n        /* \"#utility.yul\":15922:15924   */\n      0x0f\n        /* \"#utility.yul\":15917:15920   */\n      dup4\n        /* \"#utility.yul\":15858:15925   */\n      tag_156\n      jump\t// in\n    tag_335:\n        /* \"#utility.yul\":15851:15925   */\n      swap2\n      pop\n        /* \"#utility.yul\":15934:16027   */\n      tag_336\n        /* \"#utility.yul\":16023:16026   */\n      dup3\n        /* \"#utility.yul\":15934:16027   */\n      tag_177\n      jump\t// in\n    tag_336:\n        /* \"#utility.yul\":16052:16054   */\n      0x20\n        /* \"#utility.yul\":16047:16050   */\n      dup3\n        /* \"#utility.yul\":16043:16055   */\n      add\n        /* \"#utility.yul\":16036:16055   */\n      swap1\n      pop\n        /* \"#utility.yul\":15695:16061   */\n      swap2\n      swap1\n      pop\n      jump\t// out\n        /* \"#utility.yul\":16067:16486   */\n    tag_105:\n        /* \"#utility.yul\":16233:16237   */\n      0x00\n        /* \"#utility.yul\":16271:16273   */\n      0x20\n        /* \"#utility.yul\":16260:16269   */\n      dup3\n        /* \"#utility.yul\":16256:16274   */\n      add\n        /* \"#utility.yul\":16248:16274   */\n      swap1\n      pop\n        /* \"#utility.yul\":16320:16329   */\n      dup2\n        /* \"#utility.yul\":16314:16318   */\n      dup2\n        /* \"#utility.yul\":16310:16330   */\n      sub\n        /* \"#utility.yul\":16306:16307   */\n      0x00\n        /* \"#utility.yul\":16295:16304   */\n      dup4\n        /* \"#utility.yul\":16291:16308   */\n      add\n        /* \"#utility.yul\":16284:16331   */\n      mstore\n        /* \"#utility.yul\":16348:16479   */\n      tag_338\n        /* \"#utility.yul\":16474:16478   */\n      dup2\n        /* \"#utility.yul\":16348:16479   */\n      tag_178\n      jump\t// in\n    tag_338:\n        /* \"#utility.yul\":16340:16479   */\n      swap1\n      pop\n        /* \"#utility.yul\":16067:16486   */\n      swap2\n      swap1\n      pop\n      jump\t// out\n        /* \"#utility.yul\":16492:16663   */\n    tag_179:\n        /* \"#utility.yul\":16632:16655   */\n      0x41726561206d75737420626520706f7369746976650000000000000000000000\n        /* \"#utility.yul\":16628:16629   */\n      0x00\n        /* \"#utility.yul\":16620:16626   */\n      dup3\n        /* \"#utility.yul\":16616:16630   */\n      add\n        /* \"#utility.yul\":16609:16656   */\n      mstore\n        /* \"#utility.yul\":16492:16663   */\n      pop\n      jump\t// out\n        /* \"#utility.yul\":16669:17035   */\n    tag_180:\n        /* \"#utility.yul\":16811:16814   */\n      0x00\n        /* \"#utility.yul\":16832:16899   */\n      tag_341\n        /* \"#utility.yul\":16896:16898   */\n      0x15\n        /* \"#utility.yul\":16891:16894   */\n      dup4\n        /* \"#utility.yul\":16832:16899   */\n      tag_156\n      jump\t// in\n    tag_341:\n        /* \"#utility.yul\":16825:16899   */\n      swap2\n      pop\n        /* \"#utility.yul\":16908:17001   */\n      tag_342\n        /* \"#utility.yul\":16997:17000   */\n      dup3\n        /* \"#utility.yul\":16908:17001   */\n      tag_179\n      jump\t// in\n    tag_342:\n        /* \"#utility.yul\":17026:17028   */\n      0x20\n        /* \"#utility.yul\":17021:17024   */\n      dup3\n        /* \"#utility.yul\":17017:17029   */\n      add\n        /* \"#utility.yul\":17010:17029   */\n      swap1\n      pop\n        /* \"#utility.yul\":16669:17035   */\n      swap2\n      swap1\n      pop\n      jump\t// out\n        /* \"#utility.yul\":17041:17460   */\n    tag_108:\n        /* \"#utility.yul\":17207:17211   */\n      0x00\n        /* \"#utility.yul\":17245:17247   */\n      0x20\n        /* \"#utility.yul\":17234:17243   */\n      dup3\n        /* \"#utility.yul\":17230:17248   */\n      add\n        /* \"#utility.yul\":17222:17248   */\n      swap1\n      pop\n        /* \"#utility.yul\":17294:17303   */\n      dup2\n        /* \"#utility.yul\":17288:17292   */\n      dup2\n        /* \"#utility.yul\":17284:17304   */\n      sub\n        /* \"#utility.yul\":17280:17281   */\n      0x00\n        /* \"#utility.yul\":17269:17278   */\n      dup4\n        /* \"#utility.yul\":17265:17282   */\n      add\n        /* \"#utility.yul\":17258:17305   */\n      mstore\n        /* \"#utility.yul\":17322:17453   */\n      tag_344\n        /* \"#utility.yul\":17448:17452   */\n      dup2\n        /* \"#utility.yul\":17322:17453   */\n      tag_180\n      jump\t// in\n    tag_344:\n        /* \"#utility.yul\":17314:17453   */\n      swap1\n      pop\n        /* \"#utility.yul\":17041:17460   */\n      swap2\n      swap1\n      pop\n      jump\t// out\n        /* \"#utility.yul\":17466:17646   */\n    tag_181:\n        /* \"#utility.yul\":17514:17591   */\n      0x4e487b7100000000000000000000000000000000000000000000000000000000\n        /* \"#utility.yul\":17511:17512   */\n      0x00\n        /* \"#utility.yul\":17504:17592   */\n      mstore\n        /* \"#utility.yul\":17611:17615   */\n      0x22\n        /* \"#utility.yul\":17608:17609   */\n      0x04\n        /* \"#utility.yul\":17601:17616   */\n      mstore\n        /* \"#utility.yul\":17635:17639   */\n      0x24\n        /* \"#utility.yul\":17632:17633   */\n      0x00\n        /* \"#utility.yul\":17625:17640   */\n      revert\n        /* \"#utility.yul\":17652:17972   */\n    tag_117:\n        /* \"#utility.yul\":17696:17702   */\n      0x00\n        /* \"#utility.yul\":17733:17734   */\n      0x02\n        /* \"#utility.yul\":17727:17731   */\n      dup3\n        /* \"#utility.yul\":17723:17735   */\n      div\n        /* \"#utility.yul\":17713:17735   */\n      swap1\n      pop\n        /* \"#utility.yul\":17780:17781   */\n      0x01\n        /* \"#utility.yul\":17774:17778   */\n      dup3\n        /* \"#utility.yul\":17770:17782   */\n      and\n        /* \"#utility.yul\":17801:17819   */\n      dup1\n        /* \"#utility.yul\":17791:17872   */\n      tag_347\n      jumpi\n        /* \"#utility.yul\":17857:17861   */\n      0x7f\n        /* \"#utility.yul\":17849:17855   */\n      dup3\n        /* \"#utility.yul\":17845:17862   */\n      and\n        /* \"#utility.yul\":17835:17862   */\n      swap2\n      pop\n        /* \"#utility.yul\":17791:17872   */\n    tag_347:\n        /* \"#utility.yul\":17919:17921   */\n      0x20\n        /* \"#utility.yul\":17911:17917   */\n      dup3\n        /* \"#utility.yul\":17908:17922   */\n      lt\n        /* \"#utility.yul\":17888:17906   */\n      dup2\n        /* \"#utility.yul\":17885:17923   */\n      sub\n        /* \"#utility.yul\":17882:17966   */\n      tag_348\n      jumpi\n        /* \"#utility.yul\":17938:17956   */\n      tag_349\n      tag_181\n      jump\t// in\n    tag_349:\n        /* \"#utility.yul\":17882:17966   */\n    tag_348:\n        /* \"#utility.yul\":17703:17972   */\n      pop\n        /* \"#utility.yul\":17652:17972   */\n      swap2\n      swap1\n      pop\n      jump\t// out\n        /* \"#utility.yul\":17978:18119   */\n    tag_182:\n        /* \"#utility.yul\":18027:18031   */\n      0x00\n        /* \"#utility.yul\":18050:18053   */\n      dup2\n        /* \"#utility.yul\":18042:18053   */\n      swap1\n      pop\n        /* \"#utility.yul\":18073:18076   */\n      dup2\n        /* \"#utility.yul\":18070:18071   */\n      0x00\n        /* \"#utility.yul\":18063:18077   */\n      mstore\n        /* \"#utility.yul\":18107:18111   */\n      0x20\n        /* \"#utility.yul\":18104:18105   */\n      0x00\n        /* \"#utility.yul\":18094:18112   */\n      keccak256\n        /* \"#utility.yul\":18086:18112   */\n      swap1\n      pop\n        /* \"#utility.yul\":17978:18119   */\n      swap2\n      swap1\n      pop\n      jump\t// out\n        /* \"#utility.yul\":18125:18218   */\n    tag_183:\n        /* \"#utility.yul\":18162:18168   */\n      0x00\n        /* \"#utility.yul\":18209:18211   */\n      0x20\n        /* \"#utility.yul\":18204:18206   */\n      0x1f\n        /* \"#utility.yul\":18197:18202   */\n      dup4\n        /* \"#utility.yul\":18193:18207   */\n      add\n        /* \"#utility.yul\":18189:18212   */\n      div\n        /* \"#utility.yul\":18179:18212   */\n      swap1\n      pop\n        /* \"#utility.yul\":18125:18218   */\n      swap2\n      swap1\n      pop\n      jump\t// out\n        /* \"#utility.yul\":18224:18331   */\n    tag_184:\n        /* \"#utility.yul\":18268:18276   */\n      0x00\n        /* \"#utility.yul\":18318:18323   */\n      dup3\n        /* \"#utility.yul\":18312:18316   */\n      dup3\n        /* \"#utility.yul\":18308:18324   */\n      shl\n        /* \"#utility.yul\":18287:18324   */\n      swap1\n      pop\n        /* \"#utility.yul\":18224:18331   */\n      swap3\n      swap2\n      pop\n      pop\n      jump\t// out\n        /* \"#utility.yul\":18337:18730   */\n    tag_185:\n        /* \"#utility.yul\":18406:18412   */\n      0x00\n        /* \"#utility.yul\":18456:18457   */\n      0x08\n        /* \"#utility.yul\":18444:18454   */\n      dup4\n        /* \"#utility.yul\":18440:18458   */\n      mul\n        /* \"#utility.yul\":18479:18576   */\n      tag_354\n        /* \"#utility.yul\":18509:18575   */\n      0xffffffffffffffffffffffffffffffffffffffffffffffffffffffffffffffff\n        /* \"#utility.yul\":18498:18507   */\n      dup3\n        /* \"#utility.yul\":18479:18576   */\n      tag_184\n      jump\t// in\n    tag_354:\n        /* \"#utility.yul\":18597:18636   */\n      tag_355\n        /* \"#utility.yul\":18627:18635   */\n      dup7\n        /* \"#utility.yul\":18616:18625   */\n      dup4\n        /* \"#utility.yul\":18597:18636   */\n      tag_184\n      jump\t// in\n    tag_355:\n        /* \"#utility.yul\":18585:18636   */\n      swap6\n      pop\n        /* \"#utility.yul\":18669:18673   */\n      dup1\n        /* \"#utility.yul\":18665:18674   */\n      not\n        /* \"#utility.yul\":18658:18663   */\n      dup5\n        /* \"#utility.yul\":18654:18675   */\n      and\n        /* \"#utility.yul\":18645:18675   */\n      swap4\n      pop\n        /* \"#utility.yul\":18718:18722   */\n      dup1\n        /* \"#utility.yul\":18708:18716   */\n      dup7\n        /* \"#utility.yul\":18704:18723   */\n      and\n        /* \"#utility.yul\":18697:18702   */\n      dup5\n        /* \"#utility.yul\":18694:18724   */\n      or\n        /* \"#utility.yul\":18684:18724   */\n      swap3\n      pop\n        /* \"#utility.yul\":18413:18730   */\n      pop\n      pop\n        /* \"#utility.yul\":18337:18730   */\n      swap4\n      swap3\n      pop\n      pop\n      pop\n      jump\t// out\n        /* \"#utility.yul\":18736:18796   */\n    tag_186:\n        /* \"#utility.yul\":18764:18767   */\n      0x00\n        /* \"#utility.yul\":18785:18790   */\n      dup2\n        /* \"#utility.yul\":18778:18790   */\n      swap1\n      pop\n        /* \"#utility.yul\":18736:18796   */\n      swap2\n      swap1\n      pop\n      jump\t// out\n        /* \"#utility.yul\":18802:18944   */\n    tag_187:\n        /* \"#utility.yul\":18852:18861   */\n      0x00\n        /* \"#utility.yul\":18885:18938   */\n      tag_358\n        /* \"#utility.yul\":18903:18937   */\n      tag_359\n        /* \"#utility.yul\":18912:18936   */\n      tag_360\n        /* \"#utility.yul\":18930:18935   */\n      dup5\n        /* \"#utility.yul\":18912:18936   */\n      tag_136\n      jump\t// in\n    tag_360:\n        /* \"#utility.yul\":18903:18937   */\n      tag_186\n      jump\t// in\n    tag_359:\n        /* \"#utility.yul\":18885:18938   */\n      tag_136\n      jump\t// in\n    tag_358:\n        /* \"#utility.yul\":18872:18938   */\n      swap1\n      pop\n        /* \"#utility.yul\":18802:18944   */\n      swap2\n      swap1\n      pop\n      jump\t// out\n        /* \"#utility.yul\":18950:19025   */\n    tag_188:\n        /* \"#utility.yul\":18993:18996   */\n      0x00\n        /* \"#utility.yul\":19014:19019   */\n      dup2\n        /* \"#utility.yul\":19007:19019   */\n      swap1\n      pop\n        /* \"#utility.yul\":18950:19025   */\n      swap2\n      swap1\n      pop\n      jump\t// out\n        /* \"#utility.yul\":19031:19300   */\n    tag_189:\n        /* \"#utility.yul\":19141:19180   */\n      tag_363\n        /* \"#utility.yul\":19172:19179   */\n      dup4\n        /* \"#utility.yul\":19141:19180   */\n      tag_187\n      jump\t// in\n    tag_363:\n        /* \"#utility.yul\":19202:19293   */\n      tag_364\n        /* \"#utility.yul\":19251:19292   */\n      tag_365\n        /* \"#utility.yul\":19275:19291   */\n      dup3\n        /* \"#utility.yul\":19251:19292   */\n      tag_188\n      jump\t// in\n    tag_365:\n        /* \"#utility.yul\":19243:19249   */\n      dup5\n        /* \"#utility.yul\":19236:19240   */\n      dup5\n        /* \"#utility.yul\":19230:19241   */\n      sload\n        /* \"#utility.yul\":19202:19293   */\n      tag_185\n      jump\t// in\n    tag_364:\n        /* \"#utility.yul\":19196:19200   */\n      dup3\n        /* \"#utility.yul\":19189:19294   */\n      sstore\n        /* \"#utility.yul\":19107:19300   */\n      pop\n        /* \"#utility.yul\":19031:19300   */\n      pop\n      pop\n      pop\n      jump\t// out\n        /* \"#utility.yul\":19306:19379   */\n    tag_190:\n        /* \"#utility.yul\":19351:19354   */\n      0x00\n        /* \"#utility.yul\":19306:19379   */\n      swap1\n      jump\t// out\n        /* \"#utility.yul\":19385:19574   */\n    tag_191:\n        /* \"#utility.yul\":19462:19494   */\n      tag_368\n      tag_190\n      jump\t// in\n    tag_368:\n        /* \"#utility.yul\":19503:19568   */\n      tag_369\n        /* \"#utility.yul\":19561:19567   */\n      dup2\n        /* \"#utility.yul\":19553:19559   */\n      dup5\n        /* \"#utility.yul\":19547:19551   */\n      dup5\n        /* \"#utility.yul\":19503:19568   */\n      tag_189\n      jump\t// in\n    tag_369:\n        /* \"#utility.yul\":19438:19574   */\n      pop\n        /* \"#utility.yul\":19385:19574   */\n      pop\n      pop\n      jump\t// out\n        /* \"#utility.yul\":19580:19766   */\n    tag_192:\n        /* \"#utility.yul\":19640:19760   */\n    tag_371:\n        /* \"#utility.yul\":19657:19660   */\n      dup2\n        /* \"#utility.yul\":19650:19655   */\n      dup2\n        /* \"#utility.yul\":19647:19661   */\n      lt\n        /* \"#utility.yul\":19640:19760   */\n      iszero\n      tag_373\n      jumpi\n        /* \"#utility.yul\":19711:19750   */\n      tag_374\n        /* \"#utility.yul\":19748:19749   */\n      0x00\n        /* \"#utility.yul\":19741:19746   */\n      dup3\n        /* \"#utility.yul\":19711:19750   */\n      tag_191\n      jump\t// in\n    tag_374:\n        /* \"#utility.yul\":19684:19685   */\n      0x01\n        /* \"#utility.yul\":19677:19682   */\n      dup2\n        /* \"#utility.yul\":19673:19686   */\n      add\n        /* \"#utility.yul\":19664:19686   */\n      swap1\n      pop\n        /* \"#utility.yul\":19640:19760   */\n      jump(tag_371)\n    tag_373:\n        /* \"#utility.yul\":19580:19766   */\n      pop\n      pop\n      jump\t// out\n        /* \"#utility.yul\":19772:20315   */\n    tag_193:\n        /* \"#utility.yul\":19873:19875   */\n      0x1f\n        /* \"#utility.yul\":19868:19871   */\n      dup3\n        /* \"#utility.yul\":19865:19876   */\n      gt\n        /* \"#utility.yul\":19862:20308   */\n      iszero\n      tag_376\n      jumpi\n        /* \"#utility.yul\":19907:19945   */\n      tag_377\n        /* \"#utility.yul\":19939:19944   */\n      dup2\n        /* \"#utility.yul\":19907:19945   */\n      tag_182\n      jump\t// in\n    tag_377:\n        /* \"#utility.yul\":19991:20020   */\n      tag_378\n        /* \"#utility.yul\":20009:20019   */\n      dup5\n        /* \"#utility.yul\":19991:20020   */\n      tag_183\n      jump\t// in\n    tag_378:\n        /* \"#utility.yul\":19981:19989   */\n      dup2\n        /* \"#utility.yul\":19977:20021   */\n      add\n        /* \"#utility.yul\":20174:20176   */\n      0x20\n        /* \"#utility.yul\":20162:20172   */\n      dup6\n        /* \"#utility.yul\":20159:20177   */\n      lt\n        /* \"#utility.yul\":20156:20205   */\n      iszero\n      tag_379\n      jumpi\n        /* \"#utility.yul\":20195:20203   */\n      dup2\n        /* \"#utility.yul\":20180:20203   */\n      swap1\n      pop\n        /* \"#utility.yul\":20156:20205   */\n    tag_379:\n        /* \"#utility.yul\":20218:20298   */\n      tag_380\n        /* \"#utility.yul\":20274:20296   */\n      tag_381\n        /* \"#utility.yul\":20292:20295   */\n      dup6\n        /* \"#utility.yul\":20274:20296   */\n      tag_183\n      jump\t// in\n    tag_381:\n        /* \"#utility.yul\":20264:20272   */\n      dup4\n        /* \"#utility.yul\":20260:20297   */\n      add\n        /* \"#utility.yul\":20247:20258   */\n      dup3\n        /* \"#utility.yul\":20218:20298   */\n      tag_192\n      jump\t// in\n    tag_380:\n        /* \"#utility.yul\":19877:20308   */\n      pop\n      pop\n        /* \"#utility.yul\":19862:20308   */\n    tag_376:\n        /* \"#utility.yul\":19772:20315   */\n      pop\n      pop\n      pop\n      jump\t// out\n        /* \"#utility.yul\":20321:20438   */\n    tag_194:\n        /* \"#utility.yul\":20375:20383   */\n      0x00\n        /* \"#utility.yul\":20425:20430   */\n      dup3\n        /* \"#utility.yul\":20419:20423   */\n      dup3\n        /* \"#utility.yul\":20415:20431   */\n      shr\n        /* \"#utility.yul\":20394:20431   */\n      swap1\n      pop\n        /* \"#utility.yul\":20321:20438   */\n      swap3\n      swap2\n      pop\n      pop\n      jump\t// out\n        /* \"#utility.yul\":20444:20613   */\n    tag_195:\n        /* \"#utility.yul\":20488:20494   */\n      0x00\n        /* \"#utility.yul\":20521:20572   */\n      tag_384\n        /* \"#utility.yul\":20569:20570   */\n      0x00\n        /* \"#utility.yul\":20565:20571   */\n      not\n        /* \"#utility.yul\":20557:20562   */\n      dup5\n        /* \"#utility.yul\":20554:20555   */\n      0x08\n        /* \"#utility.yul\":20550:20563   */\n      mul\n        /* \"#utility.yul\":20521:20572   */\n      tag_194\n      jump\t// in\n    tag_384:\n        /* \"#utility.yul\":20517:20573   */\n      not\n        /* \"#utility.yul\":20602:20606   */\n      dup1\n        /* \"#utility.yul\":20596:20600   */\n      dup4\n        /* \"#utility.yul\":20592:20607   */\n      and\n        /* \"#utility.yul\":20582:20607   */\n      swap2\n      pop\n        /* \"#utility.yul\":20495:20613   */\n      pop\n        /* \"#utility.yul\":20444:20613   */\n      swap3\n      swap2\n      pop\n      pop\n      jump\t// out\n        /* \"#utility.yul\":20618:20913   */\n    tag_196:\n        /* \"#utility.yul\":20694:20698   */\n      0x00\n        /* \"#utility.yul\":20840:20869   */\n      tag_386\n        /* \"#utility.yul\":20865:20868   */\n      dup4\n        /* \"#utility.yul\":20859:20863   */\n      dup4\n        /* \"#utility.yul\":20840:20869   */\n      tag_195\n      jump\t// in\n    tag_386:\n        /* \"#utility.yul\":20832:20869   */\n      swap2\n      pop\n        /* \"#utility.yul\":20902:20905   */\n      dup3\n        /* \"#utility.yul\":20899:20900   */\n      0x02\n        /* \"#utility.yul\":20895:20906   */\n      mul\n        /* \"#utility.yul\":20889:20893   */\n      dup3\n        /* \"#utility.yul\":20886:20907   */\n      or\n        /* \"#utility.yul\":20878:20907   */\n      swap1\n      pop\n        /* \"#utility.yul\":20618:20913   */\n      swap3\n      swap2\n      pop\n      pop\n      jump\t// out\n        /* \"#utility.yul\":20918:22313   */\n    tag_111:\n        /* \"#utility.yul\":21035:21072   */\n      tag_388\n        /* \"#utility.yul\":21068:21071   */\n      dup3\n        /* \"#utility.yul\":21035:21072   */\n      tag_155\n      jump\t// in\n    tag_388:\n        /* \"#utility.yul\":21137:21155   */\n      0xffffffffffffffff\n        /* \"#utility.yul\":21129:21135   */\n      dup2\n        /* \"#utility.yul\":21126:21156   */\n      gt\n        /* \"#utility.yul\":21123:21179   */\n      iszero\n      tag_389\n      jumpi\n        /* \"#utility.yul\":21159:21177   */\n      tag_390\n      tag_146\n      jump\t// in\n    tag_390:\n        /* \"#utility.yul\":21123:21179   */\n    tag_389:\n        /* \"#utility.yul\":21203:21241   */\n      tag_391\n        /* \"#utility.yul\":21235:21239   */\n      dup3\n        /* \"#utility.yul\":21229:21240   */\n      sload\n        /* \"#utility.yul\":21203:21241   */\n      tag_117\n      jump\t// in\n    tag_391:\n        /* \"#utility.yul\":21288:21355   */\n      tag_392\n        /* \"#utility.yul\":21348:21354   */\n      dup3\n        /* \"#utility.yul\":21340:21346   */\n      dup3\n        /* \"#utility.yul\":21334:21338   */\n      dup6\n        /* \"#utility.yul\":21288:21355   */\n      tag_193\n      jump\t// in\n    tag_392:\n        /* \"#utility.yul\":21382:21383   */\n      0x00\n        /* \"#utility.yul\":21406:21410   */\n      0x20\n        /* \"#utility.yul\":21393:21410   */\n      swap1\n      pop\n        /* \"#utility.yul\":21438:21440   */\n      0x1f\n        /* \"#utility.yul\":21430:21436   */\n      dup4\n        /* \"#utility.yul\":21427:21441   */\n      gt\n        /* \"#utility.yul\":21455:21456   */\n      0x01\n        /* \"#utility.yul\":21450:22068   */\n      dup2\n      eq\n      tag_394\n      jumpi\n        /* \"#utility.yul\":22112:22113   */\n      0x00\n        /* \"#utility.yul\":22129:22135   */\n      dup5\n        /* \"#utility.yul\":22126:22203   */\n      iszero\n      tag_395\n      jumpi\n        /* \"#utility.yul\":22178:22187   */\n      dup3\n        /* \"#utility.yul\":22173:22176   */\n      dup8\n        /* \"#utility.yul\":22169:22188   */\n      add\n        /* \"#utility.yul\":22163:22189   */\n      mload\n        /* \"#utility.yul\":22154:22189   */\n      swap1\n      pop\n        /* \"#utility.yul\":22126:22203   */\n    tag_395:\n        /* \"#utility.yul\":22229:22296   */\n      tag_396\n        /* \"#utility.yul\":22289:22295   */\n      dup6\n        /* \"#utility.yul\":22282:22287   */\n      dup3\n        /* \"#utility.yul\":22229:22296   */\n      tag_196\n      jump\t// in\n    tag_396:\n        /* \"#utility.yul\":22223:22227   */\n      dup7\n        /* \"#utility.yul\":22216:22297   */\n      sstore\n        /* \"#utility.yul\":22085:22307   */\n      pop\n        /* \"#utility.yul\":21420:22307   */\n      jump(tag_393)\n        /* \"#utility.yul\":21450:22068   */\n    tag_394:\n        /* \"#utility.yul\":21502:21506   */\n      0x1f\n        /* \"#utility.yul\":21498:21507   */\n      not\n        /* \"#utility.yul\":21490:21496   */\n      dup5\n        /* \"#utility.yul\":21486:21508   */\n      and\n        /* \"#utility.yul\":21536:21573   */\n      tag_397\n        /* \"#utility.yul\":21568:21572   */\n      dup7\n        /* \"#utility.yul\":21536:21573   */\n      tag_182\n      jump\t// in\n    tag_397:\n        /* \"#utility.yul\":21595:21596   */\n      0x00\n        /* \"#utility.yul\":21609:21817   */\n    tag_398:\n        /* \"#utility.yul\":21623:21630   */\n      dup3\n        /* \"#utility.yul\":21620:21621   */\n      dup2\n        /* \"#utility.yul\":21617:21631   */\n      lt\n        /* \"#utility.yul\":21609:21817   */\n      iszero\n      tag_400\n      jumpi\n        /* \"#utility.yul\":21702:21711   */\n      dup5\n        /* \"#utility.yul\":21697:21700   */\n      dup10\n        /* \"#utility.yul\":21693:21712   */\n      add\n        /* \"#utility.yul\":21687:21713   */\n      mload\n        /* \"#utility.yul\":21679:21685   */\n      dup3\n        /* \"#utility.yul\":21672:21714   */\n      sstore\n        /* \"#utility.yul\":21753:21754   */\n      0x01\n        /* \"#utility.yul\":21745:21751   */\n      dup3\n        /* \"#utility.yul\":21741:21755   */\n      add\n        /* \"#utility.yul\":21731:21755   */\n      swap2\n      pop\n        /* \"#utility.yul\":21800:21802   */\n      0x20\n        /* \"#utility.yul\":21789:21798   */\n      dup6\n        /* \"#utility.yul\":21785:21803   */\n      add\n        /* \"#utility.yul\":21772:21803   */\n      swap5\n      pop\n        /* \"#utility.yul\":21646:21650   */\n      0x20\n        /* \"#utility.yul\":21643:21644   */\n      dup2\n        /* \"#utility.yul\":21639:21651   */\n      add\n        /* \"#utility.yul\":21634:21651   */\n      swap1\n      pop\n        /* \"#utility.yul\":21609:21817   */\n      jump(tag_398)\n    tag_400:\n        /* \"#utility.yul\":21845:21851   */\n      dup7\n        /* \"#utility.yul\":21836:21843   */\n      dup4\n        /* \"#utility.yul\":21833:21852   */\n      lt\n        /* \"#utility.yul\":21830:22009   */\n      iszero\n      tag_401\n      jumpi\n        /* \"#utility.yul\":21903:21912   */\n      dup5\n        /* \"#utility.yul\":21898:21901   */\n      dup10\n        /* \"#utility.yul\":21894:21913   */\n      add\n        /* \"#utility.yul\":21888:21914   */\n      mload\n        /* \"#utility.yul\":21946:21994   */\n      tag_402\n        /* \"#utility.yul\":21988:21992   */\n      0x1f\n        /* \"#utility.yul\":21980:21986   */\n      dup10\n        /* \"#utility.yul\":21976:21993   */\n      and\n        /* \"#utility.yul\":21965:21974   */\n      dup3\n        /* \"#utility.yul\":21946:21994   */\n      tag_195\n      jump\t// in\n    tag_402:\n        /* \"#utility.yul\":21938:21944   */\n      dup4\n        /* \"#utility.yul\":21931:21995   */\n      sstore\n        /* \"#utility.yul\":21853:22009   */\n      pop\n        /* \"#utility.yul\":21830:22009   */\n    tag_401:\n        /* \"#utility.yul\":22055:22056   */\n      0x01\n        /* \"#utility.yul\":22051:22052   */\n      0x02\n        /* \"#utility.yul\":22043:22049   */\n      dup9\n        /* \"#utility.yul\":22039:22053   */\n      mul\n        /* \"#utility.yul\":22035:22057   */\n      add\n        /* \"#utility.yul\":22029:22033   */\n      dup9\n        /* \"#utility.yul\":22022:22058   */\n      sstore\n        /* \"#utility.yul\":21457:22068   */\n      pop\n      pop\n      pop\n        /* \"#utility.yul\":21420:22307   */\n    tag_393:\n      pop\n        /* \"#utility.yul\":21010:22313   */\n      pop\n      pop\n      pop\n        /* \"#utility.yul\":20918:22313   */\n      pop\n      pop\n      jump\t// out\n\n    auxdata: 0xa26469706673582212200ad0742cb9ce319f0b95c553fa9dc0afc0152c7fd160a3a28e5405d5e79e4a6f64736f6c634300081a0033\n}\n",
				"bytecode": {
					"linkReferences": {},
					"object": "6080604052348015600e575f80fd5b503360025f6101000a81548173ffffffffffffffffffffffffffffffffffffffff021916908373ffffffffffffffffffffffffffffffffffffffff16021790555061177c8061005c5f395ff3fe608060405234801561000f575f80fd5b5060043610610060575f3560e01c8063064bf2f8146100645780636019061b1461008057806378034a2d1461009c578063a6f10988146100b8578063b5f522f7146100d4578063d70f83c214610107575b5f80fd5b61007e60048036038101906100799190610ca2565b61013b565b005b61009a60048036038101906100959190610ccd565b610274565b005b6100b660048036038101906100b19190610ca2565b61066e565b005b6100d260048036038101906100cd9190610ea1565b6107a9565b005b6100ee60048036038101906100e99190610ca2565b6109fa565b6040516100fe9493929190610f2b565b60405180910390f35b610121600480360381019061011c9190610ca2565b610a73565b604051610132959493929190610fe8565b60405180910390f35b60025f9054906101000a900473ffffffffffffffffffffffffffffffffffffffff1673ffffffffffffffffffffffffffffffffffffffff163373ffffffffffffffffffffffffffffffffffffffff16146101ca576040517f08c379a00000000000000000000000000000000000000000000000000000000081526004016101c19061108a565b60405180910390fd5b5f81815481106101dd576101dc6110a8565b5b905f5260205f2090600402016003015f9054906101000a900460ff16610238576040517f08c379a000000000000000000000000000000000000000000000000000000000815260040161022f9061111f565b60405180910390fd5b5f80828154811061024c5761024b6110a8565b5b905f5260205f2090600402016003015f6101000a81548160ff02191690831515021790555050565b815f8054905081106102bb576040517f08c379a00000000000000000000000000000000000000000000000000000000081526004016102b290611187565b60405180910390fd5b5f81815481106102ce576102cd6110a8565b5b905f5260205f2090600402015f015f9054906101000a900473ffffffffffffffffffffffffffffffffffffffff1673ffffffffffffffffffffffffffffffffffffffff163373ffffffffffffffffffffffffffffffffffffffff1614610369576040517f08c379a0000000000000000000000000000000000000000000000000000000008152600401610360906111ef565b60405180910390fd5b633b9aca0082116103af576040517f08c379a00000000000000000000000000000000000000000000000000000000081526004016103a690611257565b60405180910390fd5b5f83815481106103c2576103c16110a8565b5b905f5260205f2090600402016003015f9054906101000a900460ff161561041e576040517f08c379a0000000000000000000000000000000000000000000000000000000008152600401610415906112bf565b60405180910390fd5b5f8381548110610431576104306110a8565b5b905f5260205f20906004020160030160019054906101000a900460ff161561048e576040517f08c379a000000000000000000000000000000000000000000000000000000000815260040161048590611327565b60405180910390fd5b60608060016040518060c001604052808781526020015f88815481106104b7576104b66110a8565b5b905f5260205f2090600402015f015f9054906101000a900473ffffffffffffffffffffffffffffffffffffffff1673ffffffffffffffffffffffffffffffffffffffff1681526020015f73ffffffffffffffffffffffffffffffffffffffff16815260200186815260200184815260200183815250908060018154018082558091505060019003905f5260205f2090600602015f909190919091505f820151815f01556020820151816001015f6101000a81548173ffffffffffffffffffffffffffffffffffffffff021916908373ffffffffffffffffffffffffffffffffffffffff1602179055506040820151816002015f6101000a81548173ffffffffffffffffffffffffffffffffffffffff021916908373ffffffffffffffffffffffffffffffffffffffff16021790555060608201518160030155608082015181600401908051906020019061060c929190610b71565b5060a0820151816005019080519060200190610629929190610bf8565b50505060015f8681548110610641576106406110a8565b5b905f5260205f20906004020160030160016101000a81548160ff0219169083151502179055505050505050565b60025f9054906101000a900473ffffffffffffffffffffffffffffffffffffffff1673ffffffffffffffffffffffffffffffffffffffff163373ffffffffffffffffffffffffffffffffffffffff16146106fd576040517f08c379a00000000000000000000000000000000000000000000000000000000081526004016106f49061108a565b60405180910390fd5b5f81815481106107105761070f6110a8565b5b905f5260205f2090600402016003015f9054906101000a900460ff161561076c576040517f08c379a00000000000000000000000000000000000000000000000000000000081526004016107639061138f565b60405180910390fd5b60015f8281548110610781576107806110a8565b5b905f5260205f2090600402016003015f6101000a81548160ff02191690831515021790555050565b60025f9054906101000a900473ffffffffffffffffffffffffffffffffffffffff1673ffffffffffffffffffffffffffffffffffffffff163373ffffffffffffffffffffffffffffffffffffffff1614610838576040517f08c379a000000000000000000000000000000000000000000000000000000000815260040161082f9061108a565b60405180910390fd5b5f73ffffffffffffffffffffffffffffffffffffffff168373ffffffffffffffffffffffffffffffffffffffff16036108a6576040517f08c379a000000000000000000000000000000000000000000000000000000000815260040161089d906113f7565b60405180910390fd5b5f81116108e8576040517f08c379a00000000000000000000000000000000000000000000000000000000081526004016108df9061145f565b60405180910390fd5b5f6040518060a001604052808573ffffffffffffffffffffffffffffffffffffffff1681526020018481526020018381526020015f151581526020015f1515815250908060018154018082558091505060019003905f5260205f2090600402015f909190919091505f820151815f015f6101000a81548173ffffffffffffffffffffffffffffffffffffffff021916908373ffffffffffffffffffffffffffffffffffffffff16021790555060208201518160010190816109a99190611677565b50604082015181600201556060820151816003015f6101000a81548160ff02191690831515021790555060808201518160030160016101000a81548160ff0219169083151502179055505050505050565b60018181548110610a09575f80fd5b905f5260205f2090600602015f91509050805f015490806001015f9054906101000a900473ffffffffffffffffffffffffffffffffffffffff1690806002015f9054906101000a900473ffffffffffffffffffffffffffffffffffffffff16908060030154905084565b5f8181548110610a81575f80fd5b905f5260205f2090600402015f91509050805f015f9054906101000a900473ffffffffffffffffffffffffffffffffffffffff1690806001018054610ac5906114aa565b80601f0160208091040260200160405190810160405280929190818152602001828054610af1906114aa565b8015610b3c5780601f10610b1357610100808354040283529160200191610b3c565b820191905f5260205f20905b815481529060010190602001808311610b1f57829003601f168201915b505050505090806002015490806003015f9054906101000a900460ff16908060030160019054906101000a900460ff16905085565b828054828255905f5260205f20908101928215610be7579160200282015b82811115610be6578251825f6101000a81548173ffffffffffffffffffffffffffffffffffffffff021916908373ffffffffffffffffffffffffffffffffffffffff16021790555091602001919060010190610b8f565b5b509050610bf49190610c43565b5090565b828054828255905f5260205f20908101928215610c32579160200282015b82811115610c31578251825591602001919060010190610c16565b5b509050610c3f9190610c43565b5090565b5b80821115610c5a575f815f905550600101610c44565b5090565b5f604051905090565b5f80fd5b5f80fd5b5f819050919050565b610c8181610c6f565b8114610c8b575f80fd5b50565b5f81359050610c9c81610c78565b92915050565b5f60208284031215610cb757610cb6610c67565b5b5f610cc484828501610c8e565b91505092915050565b5f8060408385031215610ce357610ce2610c67565b5b5f610cf085828601610c8e565b9250506020610d0185828601610c8e565b9150509250929050565b5f73ffffffffffffffffffffffffffffffffffffffff82169050919050565b5f610d3482610d0b565b9050919050565b610d4481610d2a565b8114610d4e575f80fd5b50565b5f81359050610d5f81610d3b565b92915050565b5f80fd5b5f80fd5b5f601f19601f8301169050919050565b7f4e487b71000000000000000000000000000000000000000000000000000000005f52604160045260245ffd5b610db382610d6d565b810181811067ffffffffffffffff82111715610dd257610dd1610d7d565b5b80604052505050565b5f610de4610c5e565b9050610df08282610daa565b919050565b5f67ffffffffffffffff821115610e0f57610e0e610d7d565b5b610e1882610d6d565b9050602081019050919050565b828183375f83830152505050565b5f610e45610e4084610df5565b610ddb565b905082815260208101848484011115610e6157610e60610d69565b5b610e6c848285610e25565b509392505050565b5f82601f830112610e8857610e87610d65565b5b8135610e98848260208601610e33565b91505092915050565b5f805f60608486031215610eb857610eb7610c67565b5b5f610ec586828701610d51565b935050602084013567ffffffffffffffff811115610ee657610ee5610c6b565b5b610ef286828701610e74565b9250506040610f0386828701610c8e565b9150509250925092565b610f1681610c6f565b82525050565b610f2581610d2a565b82525050565b5f608082019050610f3e5f830187610f0d565b610f4b6020830186610f1c565b610f586040830185610f1c565b610f656060830184610f0d565b95945050505050565b5f81519050919050565b5f82825260208201905092915050565b8281835e5f83830152505050565b5f610fa082610f6e565b610faa8185610f78565b9350610fba818560208601610f88565b610fc381610d6d565b840191505092915050565b5f8115159050919050565b610fe281610fce565b82525050565b5f60a082019050610ffb5f830188610f1c565b818103602083015261100d8187610f96565b905061101c6040830186610f0d565b6110296060830185610fd9565b6110366080830184610fd9565b9695505050505050565b7f41646d696e206f6e6c79000000000000000000000000000000000000000000005f82015250565b5f611074600a83610f78565b915061107f82611040565b602082019050919050565b5f6020820190508181035f8301526110a181611068565b9050919050565b7f4e487b71000000000000000000000000000000000000000000000000000000005f52603260045260245ffd5b7f416c726561647920756e62616e6e6564000000000000000000000000000000005f82015250565b5f611109601083610f78565b9150611114826110d5565b602082019050919050565b5f6020820190508181035f830152611136816110fd565b9050919050565b7f496e76616c6964206573746174654944000000000000000000000000000000005f82015250565b5f611171601083610f78565b915061117c8261113d565b602082019050919050565b5f6020820190508181035f83015261119e81611165565b9050919050565b7f4f776e6572206f6e6c79000000000000000000000000000000000000000000005f82015250565b5f6111d9600a83610f78565b91506111e4826111a5565b602082019050919050565b5f6020820190508181035f830152611206816111cd565b9050919050565b7f507269636520697320746f6f206c6f77000000000000000000000000000000005f82015250565b5f611241601083610f78565b915061124c8261120d565b602082019050919050565b5f6020820190508181035f83015261126e81611235565b9050919050565b7f4573746174652069732062616e6e6564000000000000000000000000000000005f82015250565b5f6112a9601083610f78565b91506112b482611275565b602082019050919050565b5f6020820190508181035f8301526112d68161129d565b9050919050565b7f416c7265616479206f6e2073616c6500000000000000000000000000000000005f82015250565b5f611311600f83610f78565b915061131c826112dd565b602082019050919050565b5f6020820190508181035f83015261133e81611305565b9050919050565b7f416c72656164792062616e6e65640000000000000000000000000000000000005f82015250565b5f611379600e83610f78565b915061138482611345565b602082019050919050565b5f6020820190508181035f8301526113a68161136d565b9050919050565b7f496e76616c6964206164647265737300000000000000000000000000000000005f82015250565b5f6113e1600f83610f78565b91506113ec826113ad565b602082019050919050565b5f6020820190508181035f83015261140e816113d5565b9050919050565b7f41726561206d75737420626520706f73697469766500000000000000000000005f82015250565b5f611449601583610f78565b915061145482611415565b602082019050919050565b5f6020820190508181035f8301526114768161143d565b9050919050565b7f4e487b71000000000000000000000000000000000000000000000000000000005f52602260045260245ffd5b5f60028204905060018216806114c157607f821691505b6020821081036114d4576114d361147d565b5b50919050565b5f819050815f5260205f209050919050565b5f6020601f8301049050919050565b5f82821b905092915050565b5f600883026115367fffffffffffffffffffffffffffffffffffffffffffffffffffffffffffffffff826114fb565b61154086836114fb565b95508019841693508086168417925050509392505050565b5f819050919050565b5f61157b61157661157184610c6f565b611558565b610c6f565b9050919050565b5f819050919050565b61159483611561565b6115a86115a082611582565b848454611507565b825550505050565b5f90565b6115bc6115b0565b6115c781848461158b565b505050565b5b818110156115ea576115df5f826115b4565b6001810190506115cd565b5050565b601f82111561162f57611600816114da565b611609846114ec565b81016020851015611618578190505b61162c611624856114ec565b8301826115cc565b50505b505050565b5f82821c905092915050565b5f61164f5f1984600802611634565b1980831691505092915050565b5f6116678383611640565b9150826002028217905092915050565b61168082610f6e565b67ffffffffffffffff81111561169957611698610d7d565b5b6116a382546114aa565b6116ae8282856115ee565b5f60209050601f8311600181146116df575f84156116cd578287015190505b6116d7858261165c565b86555061173e565b601f1984166116ed866114da565b5f5b82811015611714578489015182556001820191506020850194506020810190506116ef565b86831015611731578489015161172d601f891682611640565b8355505b6001600288020188555050505b50505050505056fea26469706673582212200ad0742cb9ce319f0b95c553fa9dc0afc0152c7fd160a3a28e5405d5e79e4a6f64736f6c634300081a0033",
					"opcodes": "PUSH1 0x80 PUSH1 0x40 MSTORE CALLVALUE DUP1 ISZERO PUSH1 0xE JUMPI PUSH0 DUP1 REVERT JUMPDEST POP CALLER PUSH1 0x2 PUSH0 PUSH2 0x100 EXP DUP2 SLOAD DUP2 PUSH20 0xFFFFFFFFFFFFFFFFFFFFFFFFFFFFFFFFFFFFFFFF MUL NOT AND SWAP1 DUP4 PUSH20 0xFFFFFFFFFFFFFFFFFFFFFFFFFFFFFFFFFFFFFFFF AND MUL OR SWAP1 SSTORE POP PUSH2 0x177C DUP1 PUSH2 0x5C PUSH0 CODECOPY PUSH0 RETURN INVALID PUSH1 0x80 PUSH1 0x40 MSTORE CALLVALUE DUP1 ISZERO PUSH2 0xF JUMPI PUSH0 DUP1 REVERT JUMPDEST POP PUSH1 0x4 CALLDATASIZE LT PUSH2 0x60 JUMPI PUSH0 CALLDATALOAD PUSH1 0xE0 SHR DUP1 PUSH4 0x64BF2F8 EQ PUSH2 0x64 JUMPI DUP1 PUSH4 0x6019061B EQ PUSH2 0x80 JUMPI DUP1 PUSH4 0x78034A2D EQ PUSH2 0x9C JUMPI DUP1 PUSH4 0xA6F10988 EQ PUSH2 0xB8 JUMPI DUP1 PUSH4 0xB5F522F7 EQ PUSH2 0xD4 JUMPI DUP1 PUSH4 0xD70F83C2 EQ PUSH2 0x107 JUMPI JUMPDEST PUSH0 DUP1 REVERT JUMPDEST PUSH2 0x7E PUSH1 0x4 DUP1 CALLDATASIZE SUB DUP2 ADD SWAP1 PUSH2 0x79 SWAP2 SWAP1 PUSH2 0xCA2 JUMP JUMPDEST PUSH2 0x13B JUMP JUMPDEST STOP JUMPDEST PUSH2 0x9A PUSH1 0x4 DUP1 CALLDATASIZE SUB DUP2 ADD SWAP1 PUSH2 0x95 SWAP2 SWAP1 PUSH2 0xCCD JUMP JUMPDEST PUSH2 0x274 JUMP JUMPDEST STOP JUMPDEST PUSH2 0xB6 PUSH1 0x4 DUP1 CALLDATASIZE SUB DUP2 ADD SWAP1 PUSH2 0xB1 SWAP2 SWAP1 PUSH2 0xCA2 JUMP JUMPDEST PUSH2 0x66E JUMP JUMPDEST STOP JUMPDEST PUSH2 0xD2 PUSH1 0x4 DUP1 CALLDATASIZE SUB DUP2 ADD SWAP1 PUSH2 0xCD SWAP2 SWAP1 PUSH2 0xEA1 JUMP JUMPDEST PUSH2 0x7A9 JUMP JUMPDEST STOP JUMPDEST PUSH2 0xEE PUSH1 0x4 DUP1 CALLDATASIZE SUB DUP2 ADD SWAP1 PUSH2 0xE9 SWAP2 SWAP1 PUSH2 0xCA2 JUMP JUMPDEST PUSH2 0x9FA JUMP JUMPDEST PUSH1 0x40 MLOAD PUSH2 0xFE SWAP5 SWAP4 SWAP3 SWAP2 SWAP1 PUSH2 0xF2B JUMP JUMPDEST PUSH1 0x40 MLOAD DUP1 SWAP2 SUB SWAP1 RETURN JUMPDEST PUSH2 0x121 PUSH1 0x4 DUP1 CALLDATASIZE SUB DUP2 ADD SWAP1 PUSH2 0x11C SWAP2 SWAP1 PUSH2 0xCA2 JUMP JUMPDEST PUSH2 0xA73 JUMP JUMPDEST PUSH1 0x40 MLOAD PUSH2 0x132 SWAP6 SWAP5 SWAP4 SWAP3 SWAP2 SWAP1 PUSH2 0xFE8 JUMP JUMPDEST PUSH1 0x40 MLOAD DUP1 SWAP2 SUB SWAP1 RETURN JUMPDEST PUSH1 0x2 PUSH0 SWAP1 SLOAD SWAP1 PUSH2 0x100 EXP SWAP1 DIV PUSH20 0xFFFFFFFFFFFFFFFFFFFFFFFFFFFFFFFFFFFFFFFF AND PUSH20 0xFFFFFFFFFFFFFFFFFFFFFFFFFFFFFFFFFFFFFFFF AND CALLER PUSH20 0xFFFFFFFFFFFFFFFFFFFFFFFFFFFFFFFFFFFFFFFF AND EQ PUSH2 0x1CA JUMPI PUSH1 0x40 MLOAD PUSH32 0x8C379A000000000000000000000000000000000000000000000000000000000 DUP2 MSTORE PUSH1 0x4 ADD PUSH2 0x1C1 SWAP1 PUSH2 0x108A JUMP JUMPDEST PUSH1 0x40 MLOAD DUP1 SWAP2 SUB SWAP1 REVERT JUMPDEST PUSH0 DUP2 DUP2 SLOAD DUP2 LT PUSH2 0x1DD JUMPI PUSH2 0x1DC PUSH2 0x10A8 JUMP JUMPDEST JUMPDEST SWAP1 PUSH0 MSTORE PUSH1 0x20 PUSH0 KECCAK256 SWAP1 PUSH1 0x4 MUL ADD PUSH1 0x3 ADD PUSH0 SWAP1 SLOAD SWAP1 PUSH2 0x100 EXP SWAP1 DIV PUSH1 0xFF AND PUSH2 0x238 JUMPI PUSH1 0x40 MLOAD PUSH32 0x8C379A000000000000000000000000000000000000000000000000000000000 DUP2 MSTORE PUSH1 0x4 ADD PUSH2 0x22F SWAP1 PUSH2 0x111F JUMP JUMPDEST PUSH1 0x40 MLOAD DUP1 SWAP2 SUB SWAP1 REVERT JUMPDEST PUSH0 DUP1 DUP3 DUP2 SLOAD DUP2 LT PUSH2 0x24C JUMPI PUSH2 0x24B PUSH2 0x10A8 JUMP JUMPDEST JUMPDEST SWAP1 PUSH0 MSTORE PUSH1 0x20 PUSH0 KECCAK256 SWAP1 PUSH1 0x4 MUL ADD PUSH1 0x3 ADD PUSH0 PUSH2 0x100 EXP DUP2 SLOAD DUP2 PUSH1 0xFF MUL NOT AND SWAP1 DUP4 ISZERO ISZERO MUL OR SWAP1 SSTORE POP POP JUMP JUMPDEST DUP2 PUSH0 DUP1 SLOAD SWAP1 POP DUP2 LT PUSH2 0x2BB JUMPI PUSH1 0x40 MLOAD PUSH32 0x8C379A000000000000000000000000000000000000000000000000000000000 DUP2 MSTORE PUSH1 0x4 ADD PUSH2 0x2B2 SWAP1 PUSH2 0x1187 JUMP JUMPDEST PUSH1 0x40 MLOAD DUP1 SWAP2 SUB SWAP1 REVERT JUMPDEST PUSH0 DUP2 DUP2 SLOAD DUP2 LT PUSH2 0x2CE JUMPI PUSH2 0x2CD PUSH2 0x10A8 JUMP JUMPDEST JUMPDEST SWAP1 PUSH0 MSTORE PUSH1 0x20 PUSH0 KECCAK256 SWAP1 PUSH1 0x4 MUL ADD PUSH0 ADD PUSH0 SWAP1 SLOAD SWAP1 PUSH2 0x100 EXP SWAP1 DIV PUSH20 0xFFFFFFFFFFFFFFFFFFFFFFFFFFFFFFFFFFFFFFFF AND PUSH20 0xFFFFFFFFFFFFFFFFFFFFFFFFFFFFFFFFFFFFFFFF AND CALLER PUSH20 0xFFFFFFFFFFFFFFFFFFFFFFFFFFFFFFFFFFFFFFFF AND EQ PUSH2 0x369 JUMPI PUSH1 0x40 MLOAD PUSH32 0x8C379A000000000000000000000000000000000000000000000000000000000 DUP2 MSTORE PUSH1 0x4 ADD PUSH2 0x360 SWAP1 PUSH2 0x11EF JUMP JUMPDEST PUSH1 0x40 MLOAD DUP1 SWAP2 SUB SWAP1 REVERT JUMPDEST PUSH4 0x3B9ACA00 DUP3 GT PUSH2 0x3AF JUMPI PUSH1 0x40 MLOAD PUSH32 0x8C379A000000000000000000000000000000000000000000000000000000000 DUP2 MSTORE PUSH1 0x4 ADD PUSH2 0x3A6 SWAP1 PUSH2 0x1257 JUMP JUMPDEST PUSH1 0x40 MLOAD DUP1 SWAP2 SUB SWAP1 REVERT JUMPDEST PUSH0 DUP4 DUP2 SLOAD DUP2 LT PUSH2 0x3C2 JUMPI PUSH2 0x3C1 PUSH2 0x10A8 JUMP JUMPDEST JUMPDEST SWAP1 PUSH0 MSTORE PUSH1 0x20 PUSH0 KECCAK256 SWAP1 PUSH1 0x4 MUL ADD PUSH1 0x3 ADD PUSH0 SWAP1 SLOAD SWAP1 PUSH2 0x100 EXP SWAP1 DIV PUSH1 0xFF AND ISZERO PUSH2 0x41E JUMPI PUSH1 0x40 MLOAD PUSH32 0x8C379A000000000000000000000000000000000000000000000000000000000 DUP2 MSTORE PUSH1 0x4 ADD PUSH2 0x415 SWAP1 PUSH2 0x12BF JUMP JUMPDEST PUSH1 0x40 MLOAD DUP1 SWAP2 SUB SWAP1 REVERT JUMPDEST PUSH0 DUP4 DUP2 SLOAD DUP2 LT PUSH2 0x431 JUMPI PUSH2 0x430 PUSH2 0x10A8 JUMP JUMPDEST JUMPDEST SWAP1 PUSH0 MSTORE PUSH1 0x20 PUSH0 KECCAK256 SWAP1 PUSH1 0x4 MUL ADD PUSH1 0x3 ADD PUSH1 0x1 SWAP1 SLOAD SWAP1 PUSH2 0x100 EXP SWAP1 DIV PUSH1 0xFF AND ISZERO PUSH2 0x48E JUMPI PUSH1 0x40 MLOAD PUSH32 0x8C379A000000000000000000000000000000000000000000000000000000000 DUP2 MSTORE PUSH1 0x4 ADD PUSH2 0x485 SWAP1 PUSH2 0x1327 JUMP JUMPDEST PUSH1 0x40 MLOAD DUP1 SWAP2 SUB SWAP1 REVERT JUMPDEST PUSH1 0x60 DUP1 PUSH1 0x1 PUSH1 0x40 MLOAD DUP1 PUSH1 0xC0 ADD PUSH1 0x40 MSTORE DUP1 DUP8 DUP2 MSTORE PUSH1 0x20 ADD PUSH0 DUP9 DUP2 SLOAD DUP2 LT PUSH2 0x4B7 JUMPI PUSH2 0x4B6 PUSH2 0x10A8 JUMP JUMPDEST JUMPDEST SWAP1 PUSH0 MSTORE PUSH1 0x20 PUSH0 KECCAK256 SWAP1 PUSH1 0x4 MUL ADD PUSH0 ADD PUSH0 SWAP1 SLOAD SWAP1 PUSH2 0x100 EXP SWAP1 DIV PUSH20 0xFFFFFFFFFFFFFFFFFFFFFFFFFFFFFFFFFFFFFFFF AND PUSH20 0xFFFFFFFFFFFFFFFFFFFFFFFFFFFFFFFFFFFFFFFF AND DUP2 MSTORE PUSH1 0x20 ADD PUSH0 PUSH20 0xFFFFFFFFFFFFFFFFFFFFFFFFFFFFFFFFFFFFFFFF AND DUP2 MSTORE PUSH1 0x20 ADD DUP7 DUP2 MSTORE PUSH1 0x20 ADD DUP5 DUP2 MSTORE PUSH1 0x20 ADD DUP4 DUP2 MSTORE POP SWAP1 DUP1 PUSH1 0x1 DUP2 SLOAD ADD DUP1 DUP3 SSTORE DUP1 SWAP2 POP POP PUSH1 0x1 SWAP1 SUB SWAP1 PUSH0 MSTORE PUSH1 0x20 PUSH0 KECCAK256 SWAP1 PUSH1 0x6 MUL ADD PUSH0 SWAP1 SWAP2 SWAP1 SWAP2 SWAP1 SWAP2 POP PUSH0 DUP3 ADD MLOAD DUP2 PUSH0 ADD SSTORE PUSH1 0x20 DUP3 ADD MLOAD DUP2 PUSH1 0x1 ADD PUSH0 PUSH2 0x100 EXP DUP2 SLOAD DUP2 PUSH20 0xFFFFFFFFFFFFFFFFFFFFFFFFFFFFFFFFFFFFFFFF MUL NOT AND SWAP1 DUP4 PUSH20 0xFFFFFFFFFFFFFFFFFFFFFFFFFFFFFFFFFFFFFFFF AND MUL OR SWAP1 SSTORE POP PUSH1 0x40 DUP3 ADD MLOAD DUP2 PUSH1 0x2 ADD PUSH0 PUSH2 0x100 EXP DUP2 SLOAD DUP2 PUSH20 0xFFFFFFFFFFFFFFFFFFFFFFFFFFFFFFFFFFFFFFFF MUL NOT AND SWAP1 DUP4 PUSH20 0xFFFFFFFFFFFFFFFFFFFFFFFFFFFFFFFFFFFFFFFF AND MUL OR SWAP1 SSTORE POP PUSH1 0x60 DUP3 ADD MLOAD DUP2 PUSH1 0x3 ADD SSTORE PUSH1 0x80 DUP3 ADD MLOAD DUP2 PUSH1 0x4 ADD SWAP1 DUP1 MLOAD SWAP1 PUSH1 0x20 ADD SWAP1 PUSH2 0x60C SWAP3 SWAP2 SWAP1 PUSH2 0xB71 JUMP JUMPDEST POP PUSH1 0xA0 DUP3 ADD MLOAD DUP2 PUSH1 0x5 ADD SWAP1 DUP1 MLOAD SWAP1 PUSH1 0x20 ADD SWAP1 PUSH2 0x629 SWAP3 SWAP2 SWAP1 PUSH2 0xBF8 JUMP JUMPDEST POP POP POP PUSH1 0x1 PUSH0 DUP7 DUP2 SLOAD DUP2 LT PUSH2 0x641 JUMPI PUSH2 0x640 PUSH2 0x10A8 JUMP JUMPDEST JUMPDEST SWAP1 PUSH0 MSTORE PUSH1 0x20 PUSH0 KECCAK256 SWAP1 PUSH1 0x4 MUL ADD PUSH1 0x3 ADD PUSH1 0x1 PUSH2 0x100 EXP DUP2 SLOAD DUP2 PUSH1 0xFF MUL NOT AND SWAP1 DUP4 ISZERO ISZERO MUL OR SWAP1 SSTORE POP POP POP POP POP POP JUMP JUMPDEST PUSH1 0x2 PUSH0 SWAP1 SLOAD SWAP1 PUSH2 0x100 EXP SWAP1 DIV PUSH20 0xFFFFFFFFFFFFFFFFFFFFFFFFFFFFFFFFFFFFFFFF AND PUSH20 0xFFFFFFFFFFFFFFFFFFFFFFFFFFFFFFFFFFFFFFFF AND CALLER PUSH20 0xFFFFFFFFFFFFFFFFFFFFFFFFFFFFFFFFFFFFFFFF AND EQ PUSH2 0x6FD JUMPI PUSH1 0x40 MLOAD PUSH32 0x8C379A000000000000000000000000000000000000000000000000000000000 DUP2 MSTORE PUSH1 0x4 ADD PUSH2 0x6F4 SWAP1 PUSH2 0x108A JUMP JUMPDEST PUSH1 0x40 MLOAD DUP1 SWAP2 SUB SWAP1 REVERT JUMPDEST PUSH0 DUP2 DUP2 SLOAD DUP2 LT PUSH2 0x710 JUMPI PUSH2 0x70F PUSH2 0x10A8 JUMP JUMPDEST JUMPDEST SWAP1 PUSH0 MSTORE PUSH1 0x20 PUSH0 KECCAK256 SWAP1 PUSH1 0x4 MUL ADD PUSH1 0x3 ADD PUSH0 SWAP1 SLOAD SWAP1 PUSH2 0x100 EXP SWAP1 DIV PUSH1 0xFF AND ISZERO PUSH2 0x76C JUMPI PUSH1 0x40 MLOAD PUSH32 0x8C379A000000000000000000000000000000000000000000000000000000000 DUP2 MSTORE PUSH1 0x4 ADD PUSH2 0x763 SWAP1 PUSH2 0x138F JUMP JUMPDEST PUSH1 0x40 MLOAD DUP1 SWAP2 SUB SWAP1 REVERT JUMPDEST PUSH1 0x1 PUSH0 DUP3 DUP2 SLOAD DUP2 LT PUSH2 0x781 JUMPI PUSH2 0x780 PUSH2 0x10A8 JUMP JUMPDEST JUMPDEST SWAP1 PUSH0 MSTORE PUSH1 0x20 PUSH0 KECCAK256 SWAP1 PUSH1 0x4 MUL ADD PUSH1 0x3 ADD PUSH0 PUSH2 0x100 EXP DUP2 SLOAD DUP2 PUSH1 0xFF MUL NOT AND SWAP1 DUP4 ISZERO ISZERO MUL OR SWAP1 SSTORE POP POP JUMP JUMPDEST PUSH1 0x2 PUSH0 SWAP1 SLOAD SWAP1 PUSH2 0x100 EXP SWAP1 DIV PUSH20 0xFFFFFFFFFFFFFFFFFFFFFFFFFFFFFFFFFFFFFFFF AND PUSH20 0xFFFFFFFFFFFFFFFFFFFFFFFFFFFFFFFFFFFFFFFF AND CALLER PUSH20 0xFFFFFFFFFFFFFFFFFFFFFFFFFFFFFFFFFFFFFFFF AND EQ PUSH2 0x838 JUMPI PUSH1 0x40 MLOAD PUSH32 0x8C379A000000000000000000000000000000000000000000000000000000000 DUP2 MSTORE PUSH1 0x4 ADD PUSH2 0x82F SWAP1 PUSH2 0x108A JUMP JUMPDEST PUSH1 0x40 MLOAD DUP1 SWAP2 SUB SWAP1 REVERT JUMPDEST PUSH0 PUSH20 0xFFFFFFFFFFFFFFFFFFFFFFFFFFFFFFFFFFFFFFFF AND DUP4 PUSH20 0xFFFFFFFFFFFFFFFFFFFFFFFFFFFFFFFFFFFFFFFF AND SUB PUSH2 0x8A6 JUMPI PUSH1 0x40 MLOAD PUSH32 0x8C379A000000000000000000000000000000000000000000000000000000000 DUP2 MSTORE PUSH1 0x4 ADD PUSH2 0x89D SWAP1 PUSH2 0x13F7 JUMP JUMPDEST PUSH1 0x40 MLOAD DUP1 SWAP2 SUB SWAP1 REVERT JUMPDEST PUSH0 DUP2 GT PUSH2 0x8E8 JUMPI PUSH1 0x40 MLOAD PUSH32 0x8C379A000000000000000000000000000000000000000000000000000000000 DUP2 MSTORE PUSH1 0x4 ADD PUSH2 0x8DF SWAP1 PUSH2 0x145F JUMP JUMPDEST PUSH1 0x40 MLOAD DUP1 SWAP2 SUB SWAP1 REVERT JUMPDEST PUSH0 PUSH1 0x40 MLOAD DUP1 PUSH1 0xA0 ADD PUSH1 0x40 MSTORE DUP1 DUP6 PUSH20 0xFFFFFFFFFFFFFFFFFFFFFFFFFFFFFFFFFFFFFFFF AND DUP2 MSTORE PUSH1 0x20 ADD DUP5 DUP2 MSTORE PUSH1 0x20 ADD DUP4 DUP2 MSTORE PUSH1 0x20 ADD PUSH0 ISZERO ISZERO DUP2 MSTORE PUSH1 0x20 ADD PUSH0 ISZERO ISZERO DUP2 MSTORE POP SWAP1 DUP1 PUSH1 0x1 DUP2 SLOAD ADD DUP1 DUP3 SSTORE DUP1 SWAP2 POP POP PUSH1 0x1 SWAP1 SUB SWAP1 PUSH0 MSTORE PUSH1 0x20 PUSH0 KECCAK256 SWAP1 PUSH1 0x4 MUL ADD PUSH0 SWAP1 SWAP2 SWAP1 SWAP2 SWAP1 SWAP2 POP PUSH0 DUP3 ADD MLOAD DUP2 PUSH0 ADD PUSH0 PUSH2 0x100 EXP DUP2 SLOAD DUP2 PUSH20 0xFFFFFFFFFFFFFFFFFFFFFFFFFFFFFFFFFFFFFFFF MUL NOT AND SWAP1 DUP4 PUSH20 0xFFFFFFFFFFFFFFFFFFFFFFFFFFFFFFFFFFFFFFFF AND MUL OR SWAP1 SSTORE POP PUSH1 0x20 DUP3 ADD MLOAD DUP2 PUSH1 0x1 ADD SWAP1 DUP2 PUSH2 0x9A9 SWAP2 SWAP1 PUSH2 0x1677 JUMP JUMPDEST POP PUSH1 0x40 DUP3 ADD MLOAD DUP2 PUSH1 0x2 ADD SSTORE PUSH1 0x60 DUP3 ADD MLOAD DUP2 PUSH1 0x3 ADD PUSH0 PUSH2 0x100 EXP DUP2 SLOAD DUP2 PUSH1 0xFF MUL NOT AND SWAP1 DUP4 ISZERO ISZERO MUL OR SWAP1 SSTORE POP PUSH1 0x80 DUP3 ADD MLOAD DUP2 PUSH1 0x3 ADD PUSH1 0x1 PUSH2 0x100 EXP DUP2 SLOAD DUP2 PUSH1 0xFF MUL NOT AND SWAP1 DUP4 ISZERO ISZERO MUL OR SWAP1 SSTORE POP POP POP POP POP POP JUMP JUMPDEST PUSH1 0x1 DUP2 DUP2 SLOAD DUP2 LT PUSH2 0xA09 JUMPI PUSH0 DUP1 REVERT JUMPDEST SWAP1 PUSH0 MSTORE PUSH1 0x20 PUSH0 KECCAK256 SWAP1 PUSH1 0x6 MUL ADD PUSH0 SWAP2 POP SWAP1 POP DUP1 PUSH0 ADD SLOAD SWAP1 DUP1 PUSH1 0x1 ADD PUSH0 SWAP1 SLOAD SWAP1 PUSH2 0x100 EXP SWAP1 DIV PUSH20 0xFFFFFFFFFFFFFFFFFFFFFFFFFFFFFFFFFFFFFFFF AND SWAP1 DUP1 PUSH1 0x2 ADD PUSH0 SWAP1 SLOAD SWAP1 PUSH2 0x100 EXP SWAP1 DIV PUSH20 0xFFFFFFFFFFFFFFFFFFFFFFFFFFFFFFFFFFFFFFFF AND SWAP1 DUP1 PUSH1 0x3 ADD SLOAD SWAP1 POP DUP5 JUMP JUMPDEST PUSH0 DUP2 DUP2 SLOAD DUP2 LT PUSH2 0xA81 JUMPI PUSH0 DUP1 REVERT JUMPDEST SWAP1 PUSH0 MSTORE PUSH1 0x20 PUSH0 KECCAK256 SWAP1 PUSH1 0x4 MUL ADD PUSH0 SWAP2 POP SWAP1 POP DUP1 PUSH0 ADD PUSH0 SWAP1 SLOAD SWAP1 PUSH2 0x100 EXP SWAP1 DIV PUSH20 0xFFFFFFFFFFFFFFFFFFFFFFFFFFFFFFFFFFFFFFFF AND SWAP1 DUP1 PUSH1 0x1 ADD DUP1 SLOAD PUSH2 0xAC5 SWAP1 PUSH2 0x14AA JUMP JUMPDEST DUP1 PUSH1 0x1F ADD PUSH1 0x20 DUP1 SWAP2 DIV MUL PUSH1 0x20 ADD PUSH1 0x40 MLOAD SWAP1 DUP2 ADD PUSH1 0x40 MSTORE DUP1 SWAP3 SWAP2 SWAP1 DUP2 DUP2 MSTORE PUSH1 0x20 ADD DUP3 DUP1 SLOAD PUSH2 0xAF1 SWAP1 PUSH2 0x14AA JUMP JUMPDEST DUP1 ISZERO PUSH2 0xB3C JUMPI DUP1 PUSH1 0x1F LT PUSH2 0xB13 JUMPI PUSH2 0x100 DUP1 DUP4 SLOAD DIV MUL DUP4 MSTORE SWAP2 PUSH1 0x20 ADD SWAP2 PUSH2 0xB3C JUMP JUMPDEST DUP3 ADD SWAP2 SWAP1 PUSH0 MSTORE PUSH1 0x20 PUSH0 KECCAK256 SWAP1 JUMPDEST DUP2 SLOAD DUP2 MSTORE SWAP1 PUSH1 0x1 ADD SWAP1 PUSH1 0x20 ADD DUP1 DUP4 GT PUSH2 0xB1F JUMPI DUP3 SWAP1 SUB PUSH1 0x1F AND DUP3 ADD SWAP2 JUMPDEST POP POP POP POP POP SWAP1 DUP1 PUSH1 0x2 ADD SLOAD SWAP1 DUP1 PUSH1 0x3 ADD PUSH0 SWAP1 SLOAD SWAP1 PUSH2 0x100 EXP SWAP1 DIV PUSH1 0xFF AND SWAP1 DUP1 PUSH1 0x3 ADD PUSH1 0x1 SWAP1 SLOAD SWAP1 PUSH2 0x100 EXP SWAP1 DIV PUSH1 0xFF AND SWAP1 POP DUP6 JUMP JUMPDEST DUP3 DUP1 SLOAD DUP3 DUP3 SSTORE SWAP1 PUSH0 MSTORE PUSH1 0x20 PUSH0 KECCAK256 SWAP1 DUP2 ADD SWAP3 DUP3 ISZERO PUSH2 0xBE7 JUMPI SWAP2 PUSH1 0x20 MUL DUP3 ADD JUMPDEST DUP3 DUP2 GT ISZERO PUSH2 0xBE6 JUMPI DUP3 MLOAD DUP3 PUSH0 PUSH2 0x100 EXP DUP2 SLOAD DUP2 PUSH20 0xFFFFFFFFFFFFFFFFFFFFFFFFFFFFFFFFFFFFFFFF MUL NOT AND SWAP1 DUP4 PUSH20 0xFFFFFFFFFFFFFFFFFFFFFFFFFFFFFFFFFFFFFFFF AND MUL OR SWAP1 SSTORE POP SWAP2 PUSH1 0x20 ADD SWAP2 SWAP1 PUSH1 0x1 ADD SWAP1 PUSH2 0xB8F JUMP JUMPDEST JUMPDEST POP SWAP1 POP PUSH2 0xBF4 SWAP2 SWAP1 PUSH2 0xC43 JUMP JUMPDEST POP SWAP1 JUMP JUMPDEST DUP3 DUP1 SLOAD DUP3 DUP3 SSTORE SWAP1 PUSH0 MSTORE PUSH1 0x20 PUSH0 KECCAK256 SWAP1 DUP2 ADD SWAP3 DUP3 ISZERO PUSH2 0xC32 JUMPI SWAP2 PUSH1 0x20 MUL DUP3 ADD JUMPDEST DUP3 DUP2 GT ISZERO PUSH2 0xC31 JUMPI DUP3 MLOAD DUP3 SSTORE SWAP2 PUSH1 0x20 ADD SWAP2 SWAP1 PUSH1 0x1 ADD SWAP1 PUSH2 0xC16 JUMP JUMPDEST JUMPDEST POP SWAP1 POP PUSH2 0xC3F SWAP2 SWAP1 PUSH2 0xC43 JUMP JUMPDEST POP SWAP1 JUMP JUMPDEST JUMPDEST DUP1 DUP3 GT ISZERO PUSH2 0xC5A JUMPI PUSH0 DUP2 PUSH0 SWAP1 SSTORE POP PUSH1 0x1 ADD PUSH2 0xC44 JUMP JUMPDEST POP SWAP1 JUMP JUMPDEST PUSH0 PUSH1 0x40 MLOAD SWAP1 POP SWAP1 JUMP JUMPDEST PUSH0 DUP1 REVERT JUMPDEST PUSH0 DUP1 REVERT JUMPDEST PUSH0 DUP2 SWAP1 POP SWAP2 SWAP1 POP JUMP JUMPDEST PUSH2 0xC81 DUP2 PUSH2 0xC6F JUMP JUMPDEST DUP2 EQ PUSH2 0xC8B JUMPI PUSH0 DUP1 REVERT JUMPDEST POP JUMP JUMPDEST PUSH0 DUP2 CALLDATALOAD SWAP1 POP PUSH2 0xC9C DUP2 PUSH2 0xC78 JUMP JUMPDEST SWAP3 SWAP2 POP POP JUMP JUMPDEST PUSH0 PUSH1 0x20 DUP3 DUP5 SUB SLT ISZERO PUSH2 0xCB7 JUMPI PUSH2 0xCB6 PUSH2 0xC67 JUMP JUMPDEST JUMPDEST PUSH0 PUSH2 0xCC4 DUP5 DUP3 DUP6 ADD PUSH2 0xC8E JUMP JUMPDEST SWAP2 POP POP SWAP3 SWAP2 POP POP JUMP JUMPDEST PUSH0 DUP1 PUSH1 0x40 DUP4 DUP6 SUB SLT ISZERO PUSH2 0xCE3 JUMPI PUSH2 0xCE2 PUSH2 0xC67 JUMP JUMPDEST JUMPDEST PUSH0 PUSH2 0xCF0 DUP6 DUP3 DUP7 ADD PUSH2 0xC8E JUMP JUMPDEST SWAP3 POP POP PUSH1 0x20 PUSH2 0xD01 DUP6 DUP3 DUP7 ADD PUSH2 0xC8E JUMP JUMPDEST SWAP2 POP POP SWAP3 POP SWAP3 SWAP1 POP JUMP JUMPDEST PUSH0 PUSH20 0xFFFFFFFFFFFFFFFFFFFFFFFFFFFFFFFFFFFFFFFF DUP3 AND SWAP1 POP SWAP2 SWAP1 POP JUMP JUMPDEST PUSH0 PUSH2 0xD34 DUP3 PUSH2 0xD0B JUMP JUMPDEST SWAP1 POP SWAP2 SWAP1 POP JUMP JUMPDEST PUSH2 0xD44 DUP2 PUSH2 0xD2A JUMP JUMPDEST DUP2 EQ PUSH2 0xD4E JUMPI PUSH0 DUP1 REVERT JUMPDEST POP JUMP JUMPDEST PUSH0 DUP2 CALLDATALOAD SWAP1 POP PUSH2 0xD5F DUP2 PUSH2 0xD3B JUMP JUMPDEST SWAP3 SWAP2 POP POP JUMP JUMPDEST PUSH0 DUP1 REVERT JUMPDEST PUSH0 DUP1 REVERT JUMPDEST PUSH0 PUSH1 0x1F NOT PUSH1 0x1F DUP4 ADD AND SWAP1 POP SWAP2 SWAP1 POP JUMP JUMPDEST PUSH32 0x4E487B7100000000000000000000000000000000000000000000000000000000 PUSH0 MSTORE PUSH1 0x41 PUSH1 0x4 MSTORE PUSH1 0x24 PUSH0 REVERT JUMPDEST PUSH2 0xDB3 DUP3 PUSH2 0xD6D JUMP JUMPDEST DUP2 ADD DUP2 DUP2 LT PUSH8 0xFFFFFFFFFFFFFFFF DUP3 GT OR ISZERO PUSH2 0xDD2 JUMPI PUSH2 0xDD1 PUSH2 0xD7D JUMP JUMPDEST JUMPDEST DUP1 PUSH1 0x40 MSTORE POP POP POP JUMP JUMPDEST PUSH0 PUSH2 0xDE4 PUSH2 0xC5E JUMP JUMPDEST SWAP1 POP PUSH2 0xDF0 DUP3 DUP3 PUSH2 0xDAA JUMP JUMPDEST SWAP2 SWAP1 POP JUMP JUMPDEST PUSH0 PUSH8 0xFFFFFFFFFFFFFFFF DUP3 GT ISZERO PUSH2 0xE0F JUMPI PUSH2 0xE0E PUSH2 0xD7D JUMP JUMPDEST JUMPDEST PUSH2 0xE18 DUP3 PUSH2 0xD6D JUMP JUMPDEST SWAP1 POP PUSH1 0x20 DUP2 ADD SWAP1 POP SWAP2 SWAP1 POP JUMP JUMPDEST DUP3 DUP2 DUP4 CALLDATACOPY PUSH0 DUP4 DUP4 ADD MSTORE POP POP POP JUMP JUMPDEST PUSH0 PUSH2 0xE45 PUSH2 0xE40 DUP5 PUSH2 0xDF5 JUMP JUMPDEST PUSH2 0xDDB JUMP JUMPDEST SWAP1 POP DUP3 DUP2 MSTORE PUSH1 0x20 DUP2 ADD DUP5 DUP5 DUP5 ADD GT ISZERO PUSH2 0xE61 JUMPI PUSH2 0xE60 PUSH2 0xD69 JUMP JUMPDEST JUMPDEST PUSH2 0xE6C DUP5 DUP3 DUP6 PUSH2 0xE25 JUMP JUMPDEST POP SWAP4 SWAP3 POP POP POP JUMP JUMPDEST PUSH0 DUP3 PUSH1 0x1F DUP4 ADD SLT PUSH2 0xE88 JUMPI PUSH2 0xE87 PUSH2 0xD65 JUMP JUMPDEST JUMPDEST DUP2 CALLDATALOAD PUSH2 0xE98 DUP5 DUP3 PUSH1 0x20 DUP7 ADD PUSH2 0xE33 JUMP JUMPDEST SWAP2 POP POP SWAP3 SWAP2 POP POP JUMP JUMPDEST PUSH0 DUP1 PUSH0 PUSH1 0x60 DUP5 DUP7 SUB SLT ISZERO PUSH2 0xEB8 JUMPI PUSH2 0xEB7 PUSH2 0xC67 JUMP JUMPDEST JUMPDEST PUSH0 PUSH2 0xEC5 DUP7 DUP3 DUP8 ADD PUSH2 0xD51 JUMP JUMPDEST SWAP4 POP POP PUSH1 0x20 DUP5 ADD CALLDATALOAD PUSH8 0xFFFFFFFFFFFFFFFF DUP2 GT ISZERO PUSH2 0xEE6 JUMPI PUSH2 0xEE5 PUSH2 0xC6B JUMP JUMPDEST JUMPDEST PUSH2 0xEF2 DUP7 DUP3 DUP8 ADD PUSH2 0xE74 JUMP JUMPDEST SWAP3 POP POP PUSH1 0x40 PUSH2 0xF03 DUP7 DUP3 DUP8 ADD PUSH2 0xC8E JUMP JUMPDEST SWAP2 POP POP SWAP3 POP SWAP3 POP SWAP3 JUMP JUMPDEST PUSH2 0xF16 DUP2 PUSH2 0xC6F JUMP JUMPDEST DUP3 MSTORE POP POP JUMP JUMPDEST PUSH2 0xF25 DUP2 PUSH2 0xD2A JUMP JUMPDEST DUP3 MSTORE POP POP JUMP JUMPDEST PUSH0 PUSH1 0x80 DUP3 ADD SWAP1 POP PUSH2 0xF3E PUSH0 DUP4 ADD DUP8 PUSH2 0xF0D JUMP JUMPDEST PUSH2 0xF4B PUSH1 0x20 DUP4 ADD DUP7 PUSH2 0xF1C JUMP JUMPDEST PUSH2 0xF58 PUSH1 0x40 DUP4 ADD DUP6 PUSH2 0xF1C JUMP JUMPDEST PUSH2 0xF65 PUSH1 0x60 DUP4 ADD DUP5 PUSH2 0xF0D JUMP JUMPDEST SWAP6 SWAP5 POP POP POP POP POP JUMP JUMPDEST PUSH0 DUP2 MLOAD SWAP1 POP SWAP2 SWAP1 POP JUMP JUMPDEST PUSH0 DUP3 DUP3 MSTORE PUSH1 0x20 DUP3 ADD SWAP1 POP SWAP3 SWAP2 POP POP JUMP JUMPDEST DUP3 DUP2 DUP4 MCOPY PUSH0 DUP4 DUP4 ADD MSTORE POP POP POP JUMP JUMPDEST PUSH0 PUSH2 0xFA0 DUP3 PUSH2 0xF6E JUMP JUMPDEST PUSH2 0xFAA DUP2 DUP6 PUSH2 0xF78 JUMP JUMPDEST SWAP4 POP PUSH2 0xFBA DUP2 DUP6 PUSH1 0x20 DUP7 ADD PUSH2 0xF88 JUMP JUMPDEST PUSH2 0xFC3 DUP2 PUSH2 0xD6D JUMP JUMPDEST DUP5 ADD SWAP2 POP POP SWAP3 SWAP2 POP POP JUMP JUMPDEST PUSH0 DUP2 ISZERO ISZERO SWAP1 POP SWAP2 SWAP1 POP JUMP JUMPDEST PUSH2 0xFE2 DUP2 PUSH2 0xFCE JUMP JUMPDEST DUP3 MSTORE POP POP JUMP JUMPDEST PUSH0 PUSH1 0xA0 DUP3 ADD SWAP1 POP PUSH2 0xFFB PUSH0 DUP4 ADD DUP9 PUSH2 0xF1C JUMP JUMPDEST DUP2 DUP2 SUB PUSH1 0x20 DUP4 ADD MSTORE PUSH2 0x100D DUP2 DUP8 PUSH2 0xF96 JUMP JUMPDEST SWAP1 POP PUSH2 0x101C PUSH1 0x40 DUP4 ADD DUP7 PUSH2 0xF0D JUMP JUMPDEST PUSH2 0x1029 PUSH1 0x60 DUP4 ADD DUP6 PUSH2 0xFD9 JUMP JUMPDEST PUSH2 0x1036 PUSH1 0x80 DUP4 ADD DUP5 PUSH2 0xFD9 JUMP JUMPDEST SWAP7 SWAP6 POP POP POP POP POP POP JUMP JUMPDEST PUSH32 0x41646D696E206F6E6C7900000000000000000000000000000000000000000000 PUSH0 DUP3 ADD MSTORE POP JUMP JUMPDEST PUSH0 PUSH2 0x1074 PUSH1 0xA DUP4 PUSH2 0xF78 JUMP JUMPDEST SWAP2 POP PUSH2 0x107F DUP3 PUSH2 0x1040 JUMP JUMPDEST PUSH1 0x20 DUP3 ADD SWAP1 POP SWAP2 SWAP1 POP JUMP JUMPDEST PUSH0 PUSH1 0x20 DUP3 ADD SWAP1 POP DUP2 DUP2 SUB PUSH0 DUP4 ADD MSTORE PUSH2 0x10A1 DUP2 PUSH2 0x1068 JUMP JUMPDEST SWAP1 POP SWAP2 SWAP1 POP JUMP JUMPDEST PUSH32 0x4E487B7100000000000000000000000000000000000000000000000000000000 PUSH0 MSTORE PUSH1 0x32 PUSH1 0x4 MSTORE PUSH1 0x24 PUSH0 REVERT JUMPDEST PUSH32 0x416C726561647920756E62616E6E656400000000000000000000000000000000 PUSH0 DUP3 ADD MSTORE POP JUMP JUMPDEST PUSH0 PUSH2 0x1109 PUSH1 0x10 DUP4 PUSH2 0xF78 JUMP JUMPDEST SWAP2 POP PUSH2 0x1114 DUP3 PUSH2 0x10D5 JUMP JUMPDEST PUSH1 0x20 DUP3 ADD SWAP1 POP SWAP2 SWAP1 POP JUMP JUMPDEST PUSH0 PUSH1 0x20 DUP3 ADD SWAP1 POP DUP2 DUP2 SUB PUSH0 DUP4 ADD MSTORE PUSH2 0x1136 DUP2 PUSH2 0x10FD JUMP JUMPDEST SWAP1 POP SWAP2 SWAP1 POP JUMP JUMPDEST PUSH32 0x496E76616C696420657374617465494400000000000000000000000000000000 PUSH0 DUP3 ADD MSTORE POP JUMP JUMPDEST PUSH0 PUSH2 0x1171 PUSH1 0x10 DUP4 PUSH2 0xF78 JUMP JUMPDEST SWAP2 POP PUSH2 0x117C DUP3 PUSH2 0x113D JUMP JUMPDEST PUSH1 0x20 DUP3 ADD SWAP1 POP SWAP2 SWAP1 POP JUMP JUMPDEST PUSH0 PUSH1 0x20 DUP3 ADD SWAP1 POP DUP2 DUP2 SUB PUSH0 DUP4 ADD MSTORE PUSH2 0x119E DUP2 PUSH2 0x1165 JUMP JUMPDEST SWAP1 POP SWAP2 SWAP1 POP JUMP JUMPDEST PUSH32 0x4F776E6572206F6E6C7900000000000000000000000000000000000000000000 PUSH0 DUP3 ADD MSTORE POP JUMP JUMPDEST PUSH0 PUSH2 0x11D9 PUSH1 0xA DUP4 PUSH2 0xF78 JUMP JUMPDEST SWAP2 POP PUSH2 0x11E4 DUP3 PUSH2 0x11A5 JUMP JUMPDEST PUSH1 0x20 DUP3 ADD SWAP1 POP SWAP2 SWAP1 POP JUMP JUMPDEST PUSH0 PUSH1 0x20 DUP3 ADD SWAP1 POP DUP2 DUP2 SUB PUSH0 DUP4 ADD MSTORE PUSH2 0x1206 DUP2 PUSH2 0x11CD JUMP JUMPDEST SWAP1 POP SWAP2 SWAP1 POP JUMP JUMPDEST PUSH32 0x507269636520697320746F6F206C6F7700000000000000000000000000000000 PUSH0 DUP3 ADD MSTORE POP JUMP JUMPDEST PUSH0 PUSH2 0x1241 PUSH1 0x10 DUP4 PUSH2 0xF78 JUMP JUMPDEST SWAP2 POP PUSH2 0x124C DUP3 PUSH2 0x120D JUMP JUMPDEST PUSH1 0x20 DUP3 ADD SWAP1 POP SWAP2 SWAP1 POP JUMP JUMPDEST PUSH0 PUSH1 0x20 DUP3 ADD SWAP1 POP DUP2 DUP2 SUB PUSH0 DUP4 ADD MSTORE PUSH2 0x126E DUP2 PUSH2 0x1235 JUMP JUMPDEST SWAP1 POP SWAP2 SWAP1 POP JUMP JUMPDEST PUSH32 0x4573746174652069732062616E6E656400000000000000000000000000000000 PUSH0 DUP3 ADD MSTORE POP JUMP JUMPDEST PUSH0 PUSH2 0x12A9 PUSH1 0x10 DUP4 PUSH2 0xF78 JUMP JUMPDEST SWAP2 POP PUSH2 0x12B4 DUP3 PUSH2 0x1275 JUMP JUMPDEST PUSH1 0x20 DUP3 ADD SWAP1 POP SWAP2 SWAP1 POP JUMP JUMPDEST PUSH0 PUSH1 0x20 DUP3 ADD SWAP1 POP DUP2 DUP2 SUB PUSH0 DUP4 ADD MSTORE PUSH2 0x12D6 DUP2 PUSH2 0x129D JUMP JUMPDEST SWAP1 POP SWAP2 SWAP1 POP JUMP JUMPDEST PUSH32 0x416C7265616479206F6E2073616C650000000000000000000000000000000000 PUSH0 DUP3 ADD MSTORE POP JUMP JUMPDEST PUSH0 PUSH2 0x1311 PUSH1 0xF DUP4 PUSH2 0xF78 JUMP JUMPDEST SWAP2 POP PUSH2 0x131C DUP3 PUSH2 0x12DD JUMP JUMPDEST PUSH1 0x20 DUP3 ADD SWAP1 POP SWAP2 SWAP1 POP JUMP JUMPDEST PUSH0 PUSH1 0x20 DUP3 ADD SWAP1 POP DUP2 DUP2 SUB PUSH0 DUP4 ADD MSTORE PUSH2 0x133E DUP2 PUSH2 0x1305 JUMP JUMPDEST SWAP1 POP SWAP2 SWAP1 POP JUMP JUMPDEST PUSH32 0x416C72656164792062616E6E6564000000000000000000000000000000000000 PUSH0 DUP3 ADD MSTORE POP JUMP JUMPDEST PUSH0 PUSH2 0x1379 PUSH1 0xE DUP4 PUSH2 0xF78 JUMP JUMPDEST SWAP2 POP PUSH2 0x1384 DUP3 PUSH2 0x1345 JUMP JUMPDEST PUSH1 0x20 DUP3 ADD SWAP1 POP SWAP2 SWAP1 POP JUMP JUMPDEST PUSH0 PUSH1 0x20 DUP3 ADD SWAP1 POP DUP2 DUP2 SUB PUSH0 DUP4 ADD MSTORE PUSH2 0x13A6 DUP2 PUSH2 0x136D JUMP JUMPDEST SWAP1 POP SWAP2 SWAP1 POP JUMP JUMPDEST PUSH32 0x496E76616C696420616464726573730000000000000000000000000000000000 PUSH0 DUP3 ADD MSTORE POP JUMP JUMPDEST PUSH0 PUSH2 0x13E1 PUSH1 0xF DUP4 PUSH2 0xF78 JUMP JUMPDEST SWAP2 POP PUSH2 0x13EC DUP3 PUSH2 0x13AD JUMP JUMPDEST PUSH1 0x20 DUP3 ADD SWAP1 POP SWAP2 SWAP1 POP JUMP JUMPDEST PUSH0 PUSH1 0x20 DUP3 ADD SWAP1 POP DUP2 DUP2 SUB PUSH0 DUP4 ADD MSTORE PUSH2 0x140E DUP2 PUSH2 0x13D5 JUMP JUMPDEST SWAP1 POP SWAP2 SWAP1 POP JUMP JUMPDEST PUSH32 0x41726561206D75737420626520706F7369746976650000000000000000000000 PUSH0 DUP3 ADD MSTORE POP JUMP JUMPDEST PUSH0 PUSH2 0x1449 PUSH1 0x15 DUP4 PUSH2 0xF78 JUMP JUMPDEST SWAP2 POP PUSH2 0x1454 DUP3 PUSH2 0x1415 JUMP JUMPDEST PUSH1 0x20 DUP3 ADD SWAP1 POP SWAP2 SWAP1 POP JUMP JUMPDEST PUSH0 PUSH1 0x20 DUP3 ADD SWAP1 POP DUP2 DUP2 SUB PUSH0 DUP4 ADD MSTORE PUSH2 0x1476 DUP2 PUSH2 0x143D JUMP JUMPDEST SWAP1 POP SWAP2 SWAP1 POP JUMP JUMPDEST PUSH32 0x4E487B7100000000000000000000000000000000000000000000000000000000 PUSH0 MSTORE PUSH1 0x22 PUSH1 0x4 MSTORE PUSH1 0x24 PUSH0 REVERT JUMPDEST PUSH0 PUSH1 0x2 DUP3 DIV SWAP1 POP PUSH1 0x1 DUP3 AND DUP1 PUSH2 0x14C1 JUMPI PUSH1 0x7F DUP3 AND SWAP2 POP JUMPDEST PUSH1 0x20 DUP3 LT DUP2 SUB PUSH2 0x14D4 JUMPI PUSH2 0x14D3 PUSH2 0x147D JUMP JUMPDEST JUMPDEST POP SWAP2 SWAP1 POP JUMP JUMPDEST PUSH0 DUP2 SWAP1 POP DUP2 PUSH0 MSTORE PUSH1 0x20 PUSH0 KECCAK256 SWAP1 POP SWAP2 SWAP1 POP JUMP JUMPDEST PUSH0 PUSH1 0x20 PUSH1 0x1F DUP4 ADD DIV SWAP1 POP SWAP2 SWAP1 POP JUMP JUMPDEST PUSH0 DUP3 DUP3 SHL SWAP1 POP SWAP3 SWAP2 POP POP JUMP JUMPDEST PUSH0 PUSH1 0x8 DUP4 MUL PUSH2 0x1536 PUSH32 0xFFFFFFFFFFFFFFFFFFFFFFFFFFFFFFFFFFFFFFFFFFFFFFFFFFFFFFFFFFFFFFFF DUP3 PUSH2 0x14FB JUMP JUMPDEST PUSH2 0x1540 DUP7 DUP4 PUSH2 0x14FB JUMP JUMPDEST SWAP6 POP DUP1 NOT DUP5 AND SWAP4 POP DUP1 DUP7 AND DUP5 OR SWAP3 POP POP POP SWAP4 SWAP3 POP POP POP JUMP JUMPDEST PUSH0 DUP2 SWAP1 POP SWAP2 SWAP1 POP JUMP JUMPDEST PUSH0 PUSH2 0x157B PUSH2 0x1576 PUSH2 0x1571 DUP5 PUSH2 0xC6F JUMP JUMPDEST PUSH2 0x1558 JUMP JUMPDEST PUSH2 0xC6F JUMP JUMPDEST SWAP1 POP SWAP2 SWAP1 POP JUMP JUMPDEST PUSH0 DUP2 SWAP1 POP SWAP2 SWAP1 POP JUMP JUMPDEST PUSH2 0x1594 DUP4 PUSH2 0x1561 JUMP JUMPDEST PUSH2 0x15A8 PUSH2 0x15A0 DUP3 PUSH2 0x1582 JUMP JUMPDEST DUP5 DUP5 SLOAD PUSH2 0x1507 JUMP JUMPDEST DUP3 SSTORE POP POP POP POP JUMP JUMPDEST PUSH0 SWAP1 JUMP JUMPDEST PUSH2 0x15BC PUSH2 0x15B0 JUMP JUMPDEST PUSH2 0x15C7 DUP2 DUP5 DUP5 PUSH2 0x158B JUMP JUMPDEST POP POP POP JUMP JUMPDEST JUMPDEST DUP2 DUP2 LT ISZERO PUSH2 0x15EA JUMPI PUSH2 0x15DF PUSH0 DUP3 PUSH2 0x15B4 JUMP JUMPDEST PUSH1 0x1 DUP2 ADD SWAP1 POP PUSH2 0x15CD JUMP JUMPDEST POP POP JUMP JUMPDEST PUSH1 0x1F DUP3 GT ISZERO PUSH2 0x162F JUMPI PUSH2 0x1600 DUP2 PUSH2 0x14DA JUMP JUMPDEST PUSH2 0x1609 DUP5 PUSH2 0x14EC JUMP JUMPDEST DUP2 ADD PUSH1 0x20 DUP6 LT ISZERO PUSH2 0x1618 JUMPI DUP2 SWAP1 POP JUMPDEST PUSH2 0x162C PUSH2 0x1624 DUP6 PUSH2 0x14EC JUMP JUMPDEST DUP4 ADD DUP3 PUSH2 0x15CC JUMP JUMPDEST POP POP JUMPDEST POP POP POP JUMP JUMPDEST PUSH0 DUP3 DUP3 SHR SWAP1 POP SWAP3 SWAP2 POP POP JUMP JUMPDEST PUSH0 PUSH2 0x164F PUSH0 NOT DUP5 PUSH1 0x8 MUL PUSH2 0x1634 JUMP JUMPDEST NOT DUP1 DUP4 AND SWAP2 POP POP SWAP3 SWAP2 POP POP JUMP JUMPDEST PUSH0 PUSH2 0x1667 DUP4 DUP4 PUSH2 0x1640 JUMP JUMPDEST SWAP2 POP DUP3 PUSH1 0x2 MUL DUP3 OR SWAP1 POP SWAP3 SWAP2 POP POP JUMP JUMPDEST PUSH2 0x1680 DUP3 PUSH2 0xF6E JUMP JUMPDEST PUSH8 0xFFFFFFFFFFFFFFFF DUP2 GT ISZERO PUSH2 0x1699 JUMPI PUSH2 0x1698 PUSH2 0xD7D JUMP JUMPDEST JUMPDEST PUSH2 0x16A3 DUP3 SLOAD PUSH2 0x14AA JUMP JUMPDEST PUSH2 0x16AE DUP3 DUP3 DUP6 PUSH2 0x15EE JUMP JUMPDEST PUSH0 PUSH1 0x20 SWAP1 POP PUSH1 0x1F DUP4 GT PUSH1 0x1 DUP2 EQ PUSH2 0x16DF JUMPI PUSH0 DUP5 ISZERO PUSH2 0x16CD JUMPI DUP3 DUP8 ADD MLOAD SWAP1 POP JUMPDEST PUSH2 0x16D7 DUP6 DUP3 PUSH2 0x165C JUMP JUMPDEST DUP7 SSTORE POP PUSH2 0x173E JUMP JUMPDEST PUSH1 0x1F NOT DUP5 AND PUSH2 0x16ED DUP7 PUSH2 0x14DA JUMP JUMPDEST PUSH0 JUMPDEST DUP3 DUP2 LT ISZERO PUSH2 0x1714 JUMPI DUP5 DUP10 ADD MLOAD DUP3 SSTORE PUSH1 0x1 DUP3 ADD SWAP2 POP PUSH1 0x20 DUP6 ADD SWAP5 POP PUSH1 0x20 DUP2 ADD SWAP1 POP PUSH2 0x16EF JUMP JUMPDEST DUP7 DUP4 LT ISZERO PUSH2 0x1731 JUMPI DUP5 DUP10 ADD MLOAD PUSH2 0x172D PUSH1 0x1F DUP10 AND DUP3 PUSH2 0x1640 JUMP JUMPDEST DUP4 SSTORE POP JUMPDEST PUSH1 0x1 PUSH1 0x2 DUP9 MUL ADD DUP9 SSTORE POP POP POP JUMPDEST POP POP POP POP POP POP JUMP INVALID LOG2 PUSH5 0x6970667358 0x22 SLT KECCAK256 EXP 0xD0 PUSH21 0x2CB9CE319F0B95C553FA9DC0AFC0152C7FD160A3A2 DUP15 SLOAD SDIV 0xD5 0xE7 SWAP15 BLOBBASEFEE PUSH16 0x64736F6C634300081A00330000000000 "
				},
				"gasEstimates": {
					"creation": {
						"codeDepositCost": "1202400",
						"executionCost": "25511",
						"totalCost": "1227911"
					},
					"external": {
						"banEstate(uint256)": "33401",
						"createEstate(address,string,uint256)": "infinite",
						"createSale(uint256,uint256)": "infinite",
						"estates(uint256)": "infinite",
						"sales(uint256)": "infinite",
						"unbanEstate(uint256)": "33354"
					}
				},
				"methodIdentifiers": {
					"banEstate(uint256)": "78034a2d",
					"createEstate(address,string,uint256)": "a6f10988",
					"createSale(uint256,uint256)": "6019061b",
					"estates(uint256)": "d70f83c2",
					"sales(uint256)": "b5f522f7",
					"unbanEstate(uint256)": "064bf2f8"
				}
			},
			"storageLayout": {
				"storage": [
					{
						"astId": 31,
						"contract": "contracts/Estate.sol:EstateAgency",
						"label": "estates",
						"offset": 0,
						"slot": "0",
						"type": "t_array(t_struct(Estate)12_storage)dyn_storage"
					},
					{
						"astId": 35,
						"contract": "contracts/Estate.sol:EstateAgency",
						"label": "sales",
						"offset": 0,
						"slot": "1",
						"type": "t_array(t_struct(Sale)27_storage)dyn_storage"
					},
					{
						"astId": 37,
						"contract": "contracts/Estate.sol:EstateAgency",
						"label": "admin",
						"offset": 0,
						"slot": "2",
						"type": "t_address"
					}
				],
				"types": {
					"t_address": {
						"encoding": "inplace",
						"label": "address",
						"numberOfBytes": "20"
					},
					"t_array(t_address)dyn_storage": {
						"base": "t_address",
						"encoding": "dynamic_array",
						"label": "address[]",
						"numberOfBytes": "32"
					},
					"t_array(t_struct(Estate)12_storage)dyn_storage": {
						"base": "t_struct(Estate)12_storage",
						"encoding": "dynamic_array",
						"label": "struct EstateAgency.Estate[]",
						"numberOfBytes": "32"
					},
					"t_array(t_struct(Sale)27_storage)dyn_storage": {
						"base": "t_struct(Sale)27_storage",
						"encoding": "dynamic_array",
						"label": "struct EstateAgency.Sale[]",
						"numberOfBytes": "32"
					},
					"t_array(t_uint256)dyn_storage": {
						"base": "t_uint256",
						"encoding": "dynamic_array",
						"label": "uint256[]",
						"numberOfBytes": "32"
					},
					"t_bool": {
						"encoding": "inplace",
						"label": "bool",
						"numberOfBytes": "1"
					},
					"t_string_storage": {
						"encoding": "bytes",
						"label": "string",
						"numberOfBytes": "32"
					},
					"t_struct(Estate)12_storage": {
						"encoding": "inplace",
						"label": "struct EstateAgency.Estate",
						"members": [
							{
								"astId": 3,
								"contract": "contracts/Estate.sol:EstateAgency",
								"label": "owner",
								"offset": 0,
								"slot": "0",
								"type": "t_address"
							},
							{
								"astId": 5,
								"contract": "contracts/Estate.sol:EstateAgency",
								"label": "info",
								"offset": 0,
								"slot": "1",
								"type": "t_string_storage"
							},
							{
								"astId": 7,
								"contract": "contracts/Estate.sol:EstateAgency",
								"label": "area",
								"offset": 0,
								"slot": "2",
								"type": "t_uint256"
							},
							{
								"astId": 9,
								"contract": "contracts/Estate.sol:EstateAgency",
								"label": "is_banned",
								"offset": 0,
								"slot": "3",
								"type": "t_bool"
							},
							{
								"astId": 11,
								"contract": "contracts/Estate.sol:EstateAgency",
								"label": "on_sale",
								"offset": 1,
								"slot": "3",
								"type": "t_bool"
							}
						],
						"numberOfBytes": "128"
					},
					"t_struct(Sale)27_storage": {
						"encoding": "inplace",
						"label": "struct EstateAgency.Sale",
						"members": [
							{
								"astId": 14,
								"contract": "contracts/Estate.sol:EstateAgency",
								"label": "EstateID",
								"offset": 0,
								"slot": "0",
								"type": "t_uint256"
							},
							{
								"astId": 16,
								"contract": "contracts/Estate.sol:EstateAgency",
								"label": "seller",
								"offset": 0,
								"slot": "1",
								"type": "t_address"
							},
							{
								"astId": 18,
								"contract": "contracts/Estate.sol:EstateAgency",
								"label": "newOwner",
								"offset": 0,
								"slot": "2",
								"type": "t_address"
							},
							{
								"astId": 20,
								"contract": "contracts/Estate.sol:EstateAgency",
								"label": "price",
								"offset": 0,
								"slot": "3",
								"type": "t_uint256"
							},
							{
								"astId": 23,
								"contract": "contracts/Estate.sol:EstateAgency",
								"label": "buyers",
								"offset": 0,
								"slot": "4",
								"type": "t_array(t_address)dyn_storage"
							},
							{
								"astId": 26,
								"contract": "contracts/Estate.sol:EstateAgency",
								"label": "bids",
								"offset": 0,
								"slot": "5",
								"type": "t_array(t_uint256)dyn_storage"
							}
						],
						"numberOfBytes": "192"
					},
					"t_uint256": {
						"encoding": "inplace",
						"label": "uint256",
						"numberOfBytes": "32"
					}
				}
			},
			"userdoc": {
				"kind": "user",
				"methods": {},
				"version": 1
			}
		}
	}
}